{
  "abi": [
    {
      "inputs": [
        {
          "internalType": "string",
          "name": "name_",
          "type": "string"
        },
        {
          "internalType": "string",
          "name": "symbol_",
          "type": "string"
        },
        {
          "internalType": "uint256",
          "name": "tokenPrice_",
          "type": "uint256"
        },
        {
          "internalType": "uint256",
          "name": "signupBonus_",
          "type": "uint256"
        }
      ],
      "stateMutability": "nonpayable",
      "type": "constructor"
    },
    {
      "anonymous": false,
      "inputs": [
        {
          "indexed": true,
          "internalType": "address",
          "name": "owner",
          "type": "address"
        },
        {
          "indexed": true,
          "internalType": "address",
          "name": "spender",
          "type": "address"
        },
        {
          "indexed": false,
          "internalType": "uint256",
          "name": "value",
          "type": "uint256"
        }
      ],
      "name": "Approval",
      "type": "event"
    },
    {
      "anonymous": false,
      "inputs": [
        {
          "indexed": true,
          "internalType": "address",
          "name": "previousOwner",
          "type": "address"
        },
        {
          "indexed": true,
          "internalType": "address",
          "name": "newOwner",
          "type": "address"
        }
      ],
      "name": "OwnershipTransferred",
      "type": "event"
    },
    {
      "anonymous": false,
      "inputs": [
        {
          "indexed": true,
          "internalType": "address",
          "name": "from",
          "type": "address"
        },
        {
          "indexed": true,
          "internalType": "address",
          "name": "to",
          "type": "address"
        },
        {
          "indexed": false,
          "internalType": "uint256",
          "name": "value",
          "type": "uint256"
        }
      ],
      "name": "Transfer",
      "type": "event"
    },
    {
      "stateMutability": "payable",
      "type": "fallback"
    },
    {
      "inputs": [],
      "name": "_signupBonus",
      "outputs": [
        {
          "internalType": "uint256",
          "name": "",
          "type": "uint256"
        }
      ],
      "stateMutability": "view",
      "type": "function"
    },
    {
      "inputs": [],
      "name": "_tokenPrice",
      "outputs": [
        {
          "internalType": "uint256",
          "name": "",
          "type": "uint256"
        }
      ],
      "stateMutability": "view",
      "type": "function"
    },
    {
      "inputs": [
        {
          "internalType": "address",
          "name": "owner",
          "type": "address"
        },
        {
          "internalType": "address",
          "name": "spender",
          "type": "address"
        }
      ],
      "name": "allowance",
      "outputs": [
        {
          "internalType": "uint256",
          "name": "",
          "type": "uint256"
        }
      ],
      "stateMutability": "view",
      "type": "function"
    },
    {
      "inputs": [
        {
          "internalType": "address",
          "name": "spender",
          "type": "address"
        },
        {
          "internalType": "uint256",
          "name": "amount",
          "type": "uint256"
        }
      ],
      "name": "approve",
      "outputs": [
        {
          "internalType": "bool",
          "name": "",
          "type": "bool"
        }
      ],
      "stateMutability": "nonpayable",
      "type": "function"
    },
    {
      "inputs": [
        {
          "internalType": "address",
          "name": "account",
          "type": "address"
        }
      ],
      "name": "balanceOf",
      "outputs": [
        {
          "internalType": "uint256",
          "name": "",
          "type": "uint256"
        }
      ],
      "stateMutability": "view",
      "type": "function"
    },
    {
      "inputs": [
        {
          "internalType": "uint256",
          "name": "_amount",
          "type": "uint256"
        }
      ],
      "name": "buyTokens",
      "outputs": [
        {
          "internalType": "uint256",
          "name": "",
          "type": "uint256"
        }
      ],
      "stateMutability": "payable",
      "type": "function"
    },
    {
      "inputs": [
        {
          "internalType": "uint256",
          "name": "accuracy",
          "type": "uint256"
        },
        {
          "internalType": "uint256",
          "name": "streak",
          "type": "uint256"
        },
        {
          "internalType": "address",
          "name": "user",
          "type": "address"
        }
      ],
      "name": "dailyRewards",
      "outputs": [
        {
          "internalType": "uint256",
          "name": "",
          "type": "uint256"
        }
      ],
      "stateMutability": "payable",
      "type": "function"
    },
    {
      "inputs": [],
      "name": "decimals",
      "outputs": [
        {
          "internalType": "uint8",
          "name": "",
          "type": "uint8"
        }
      ],
      "stateMutability": "view",
      "type": "function"
    },
    {
      "inputs": [
        {
          "internalType": "address",
          "name": "spender",
          "type": "address"
        },
        {
          "internalType": "uint256",
          "name": "subtractedValue",
          "type": "uint256"
        }
      ],
      "name": "decreaseAllowance",
      "outputs": [
        {
          "internalType": "bool",
          "name": "",
          "type": "bool"
        }
      ],
      "stateMutability": "nonpayable",
      "type": "function"
    },
    {
      "inputs": [
        {
          "internalType": "uint256",
          "name": "start",
          "type": "uint256"
        },
        {
          "internalType": "uint8",
          "name": "limit",
          "type": "uint8"
        }
      ],
      "name": "getUsers",
      "outputs": [
        {
          "internalType": "address[]",
          "name": "",
          "type": "address[]"
        }
      ],
      "stateMutability": "view",
      "type": "function"
    },
    {
      "inputs": [
        {
          "internalType": "address",
          "name": "spender",
          "type": "address"
        },
        {
          "internalType": "uint256",
          "name": "addedValue",
          "type": "uint256"
        }
      ],
      "name": "increaseAllowance",
      "outputs": [
        {
          "internalType": "bool",
          "name": "",
          "type": "bool"
        }
      ],
      "stateMutability": "nonpayable",
      "type": "function"
    },
    {
      "inputs": [],
      "name": "name",
      "outputs": [
        {
          "internalType": "string",
          "name": "",
          "type": "string"
        }
      ],
      "stateMutability": "view",
      "type": "function"
    },
    {
      "inputs": [],
      "name": "owner",
      "outputs": [
        {
          "internalType": "address",
          "name": "",
          "type": "address"
        }
      ],
      "stateMutability": "view",
      "type": "function"
    },
    {
      "inputs": [],
      "name": "register",
      "outputs": [
        {
          "internalType": "uint256",
          "name": "",
          "type": "uint256"
        }
      ],
      "stateMutability": "payable",
      "type": "function"
    },
    {
      "inputs": [],
      "name": "renounceOwnership",
      "outputs": [],
      "stateMutability": "nonpayable",
      "type": "function"
    },
    {
      "inputs": [
        {
          "internalType": "uint256",
          "name": "signupBonus_",
          "type": "uint256"
        }
      ],
      "name": "setSignUpBonus",
      "outputs": [],
      "stateMutability": "nonpayable",
      "type": "function"
    },
    {
      "inputs": [
        {
          "internalType": "uint256",
          "name": "tokenPrice_",
          "type": "uint256"
        }
      ],
      "name": "setTokenPrice",
      "outputs": [],
      "stateMutability": "nonpayable",
      "type": "function"
    },
    {
      "inputs": [
        {
          "internalType": "uint256",
          "name": "streak",
          "type": "uint256"
        },
        {
          "internalType": "address",
          "name": "user",
          "type": "address"
        }
      ],
      "name": "streakRewards",
      "outputs": [
        {
          "internalType": "uint256",
          "name": "",
          "type": "uint256"
        }
      ],
      "stateMutability": "payable",
      "type": "function"
    },
    {
      "inputs": [],
      "name": "symbol",
      "outputs": [
        {
          "internalType": "string",
          "name": "",
          "type": "string"
        }
      ],
      "stateMutability": "view",
      "type": "function"
    },
    {
      "inputs": [],
      "name": "totalSupply",
      "outputs": [
        {
          "internalType": "uint256",
          "name": "",
          "type": "uint256"
        }
      ],
      "stateMutability": "view",
      "type": "function"
    },
    {
      "inputs": [
        {
          "internalType": "address",
          "name": "to",
          "type": "address"
        },
        {
          "internalType": "uint256",
          "name": "amount",
          "type": "uint256"
        }
      ],
      "name": "transfer",
      "outputs": [
        {
          "internalType": "bool",
          "name": "",
          "type": "bool"
        }
      ],
      "stateMutability": "nonpayable",
      "type": "function"
    },
    {
      "inputs": [
        {
          "internalType": "address",
          "name": "from",
          "type": "address"
        },
        {
          "internalType": "address",
          "name": "to",
          "type": "address"
        },
        {
          "internalType": "uint256",
          "name": "amount",
          "type": "uint256"
        }
      ],
      "name": "transferFrom",
      "outputs": [
        {
          "internalType": "bool",
          "name": "",
          "type": "bool"
        }
      ],
      "stateMutability": "nonpayable",
      "type": "function"
    },
    {
      "inputs": [
        {
          "internalType": "address",
          "name": "newOwner",
          "type": "address"
        }
      ],
      "name": "transferOwnership",
      "outputs": [],
      "stateMutability": "nonpayable",
      "type": "function"
    },
    {
      "inputs": [],
      "name": "userCount",
      "outputs": [
        {
          "internalType": "uint256",
          "name": "",
          "type": "uint256"
        }
      ],
      "stateMutability": "view",
      "type": "function"
    },
    {
      "stateMutability": "payable",
      "type": "receive"
    }
  ],
  "devdoc": {
    "kind": "dev",
    "methods": {
      "allowance(address,address)": {
        "details": "See {IERC20-allowance}."
      },
      "approve(address,uint256)": {
        "details": "See {IERC20-approve}. NOTE: If `amount` is the maximum `uint256`, the allowance is not updated on `transferFrom`. This is semantically equivalent to an infinite approval. Requirements: - `spender` cannot be the zero address."
      },
      "balanceOf(address)": {
        "details": "See {IERC20-balanceOf}."
      },
      "decimals()": {
        "details": "Returns the number of decimals used to get its user representation. For example, if `decimals` equals `2`, a balance of `505` tokens should be displayed to a user as `5.05` (`505 / 10 ** 2`). Tokens usually opt for a value of 18, imitating the relationship between Ether and Wei. This is the value {ERC20} uses, unless this function is overridden; NOTE: This information is only used for _display_ purposes: it in no way affects any of the arithmetic of the contract, including {IERC20-balanceOf} and {IERC20-transfer}."
      },
      "decreaseAllowance(address,uint256)": {
        "details": "Atomically decreases the allowance granted to `spender` by the caller. This is an alternative to {approve} that can be used as a mitigation for problems described in {IERC20-approve}. Emits an {Approval} event indicating the updated allowance. Requirements: - `spender` cannot be the zero address. - `spender` must have allowance for the caller of at least `subtractedValue`."
      },
      "increaseAllowance(address,uint256)": {
        "details": "Atomically increases the allowance granted to `spender` by the caller. This is an alternative to {approve} that can be used as a mitigation for problems described in {IERC20-approve}. Emits an {Approval} event indicating the updated allowance. Requirements: - `spender` cannot be the zero address."
      },
      "name()": {
        "details": "Returns the name of the token."
      },
      "owner()": {
        "details": "Returns the address of the current owner."
      },
      "renounceOwnership()": {
        "details": "Leaves the contract without owner. It will not be possible to call `onlyOwner` functions anymore. Can only be called by the current owner. NOTE: Renouncing ownership will leave the contract without an owner, thereby removing any functionality that is only available to the owner."
      },
      "symbol()": {
        "details": "Returns the symbol of the token, usually a shorter version of the name."
      },
      "totalSupply()": {
        "details": "See {IERC20-totalSupply}."
      },
      "transfer(address,uint256)": {
        "details": "See {IERC20-transfer}. Requirements: - `to` cannot be the zero address. - the caller must have a balance of at least `amount`."
      },
      "transferFrom(address,address,uint256)": {
        "details": "See {IERC20-transferFrom}. Emits an {Approval} event indicating the updated allowance. This is not required by the EIP. See the note at the beginning of {ERC20}. NOTE: Does not update the allowance if the current allowance is the maximum `uint256`. Requirements: - `from` and `to` cannot be the zero address. - `from` must have a balance of at least `amount`. - the caller must have allowance for ``from``'s tokens of at least `amount`."
      },
      "transferOwnership(address)": {
        "details": "Transfers ownership of the contract to a new account (`newOwner`). Can only be called by the current owner."
      }
    },
    "version": 1
  },
  "evm": {
    "assembly": "    /* \"VerNull.sol\":561:2865  contract VerNull is ERC20, Ownable  {... */\n  mstore(0x40, 0x80)\n    /* \"VerNull.sol\":702:896  constructor(string memory name_, string memory symbol_, uint tokenPrice_, uint signupBonus_) ERC20(name_, symbol_) {... */\n  callvalue\n  dup1\n  iszero\n  tag_1\n  jumpi\n  0x00\n  dup1\n  revert\ntag_1:\n  pop\n  mload(0x40)\n  sub(codesize, bytecodeSize)\n  dup1\n  bytecodeSize\n  dup4\n  codecopy\n  dup2\n  add\n  0x40\n  dup2\n  swap1\n  mstore\n  tag_2\n  swap2\n  tag_3\n  jump\t// in\ntag_2:\n    /* \"@openzeppelin/contracts/token/ERC20/ERC20.sol\":2044:2057   */\n  dup4\n  mload\n    /* \"VerNull.sol\":801:806  name_ */\n  dup5\n  swap1\n    /* \"VerNull.sol\":808:815  symbol_ */\n  dup5\n  swap1\n    /* \"@openzeppelin/contracts/token/ERC20/ERC20.sol\":2044:2057   */\n  tag_8\n  swap1\n    /* \"@openzeppelin/contracts/token/ERC20/ERC20.sol\":2044:2049   */\n  0x03\n  swap1\n    /* \"@openzeppelin/contracts/token/ERC20/ERC20.sol\":2044:2057   */\n  0x20\n  dup6\n  add\n  swap1\n  tag_9\n  jump\t// in\ntag_8:\n  pop\n    /* \"@openzeppelin/contracts/token/ERC20/ERC20.sol\":2067:2084   */\n  dup1\n  mload\n  tag_10\n  swap1\n    /* \"@openzeppelin/contracts/token/ERC20/ERC20.sol\":2067:2074   */\n  0x04\n  swap1\n    /* \"@openzeppelin/contracts/token/ERC20/ERC20.sol\":2067:2084   */\n  0x20\n  dup5\n  add\n  swap1\n  tag_9\n  jump\t// in\ntag_10:\n  pop\n    /* \"@openzeppelin/contracts/token/ERC20/ERC20.sol\":1978:2091   */\n  pop\n  pop\n    /* \"@openzeppelin/contracts/access/Ownable.sol\":936:968   */\n  tag_12\n    /* \"@openzeppelin/contracts/access/Ownable.sol\":955:967   */\n  tag_13\n    /* \"@openzeppelin/contracts/access/Ownable.sol\":955:965   */\n  shl(0x20, tag_14)\n    /* \"@openzeppelin/contracts/access/Ownable.sol\":955:967   */\n  0x20\n  shr\n  jump\t// in\ntag_13:\n    /* \"@openzeppelin/contracts/access/Ownable.sol\":936:954   */\n  tag_15\n    /* \"@openzeppelin/contracts/access/Ownable.sol\":936:968   */\n  jump\t// in\ntag_12:\n    /* \"VerNull.sol\":827:838  _tokenPrice */\n  0x06\n    /* \"VerNull.sol\":827:852  _tokenPrice = tokenPrice_ */\n  swap2\n  swap1\n  swap2\n  sstore\n    /* \"VerNull.sol\":862:874  _signupBonus */\n  0x07\n    /* \"VerNull.sol\":862:889  _signupBonus = signupBonus_ */\n  sstore\n  pop\n    /* \"VerNull.sol\":561:2865  contract VerNull is ERC20, Ownable  {... */\n  tag_33\n  swap1\n  pop\n  jump\n    /* \"@openzeppelin/contracts/utils/Context.sol\":640:736   */\ntag_14:\n    /* \"@openzeppelin/contracts/utils/Context.sol\":719:729   */\n  caller\n  swap1\n    /* \"@openzeppelin/contracts/utils/Context.sol\":640:736   */\n  jump\t// out\n    /* \"@openzeppelin/contracts/access/Ownable.sol\":2433:2620   */\ntag_15:\n    /* \"@openzeppelin/contracts/access/Ownable.sol\":2525:2531   */\n  0x05\n  dup1\n  sload\n  sub(shl(0xa0, 0x01), 0x01)\n    /* \"@openzeppelin/contracts/access/Ownable.sol\":2541:2558   */\n  dup4\n  dup2\n  and\n  not(sub(shl(0xa0, 0x01), 0x01))\n  dup4\n  and\n  dup2\n  or\n  swap1\n  swap4\n  sstore\n    /* \"@openzeppelin/contracts/access/Ownable.sol\":2573:2613   */\n  mload(0x40)\n    /* \"@openzeppelin/contracts/access/Ownable.sol\":2525:2531   */\n  swap2\n  and\n  swap2\n    /* \"@openzeppelin/contracts/access/Ownable.sol\":2541:2558   */\n  swap1\n    /* \"@openzeppelin/contracts/access/Ownable.sol\":2525:2531   */\n  dup3\n  swap1\n    /* \"@openzeppelin/contracts/access/Ownable.sol\":2573:2613   */\n  0x8be0079c531659141344cd1fd0a4f28419497f9722a3daafe3b4186f6b6457e0\n  swap1\n    /* \"@openzeppelin/contracts/access/Ownable.sol\":2506:2522   */\n  0x00\n  swap1\n    /* \"@openzeppelin/contracts/access/Ownable.sol\":2573:2613   */\n  log3\n    /* \"@openzeppelin/contracts/access/Ownable.sol\":2496:2620   */\n  pop\n    /* \"@openzeppelin/contracts/access/Ownable.sol\":2433:2620   */\n  pop\n  jump\t// out\n    /* \"VerNull.sol\":561:2865  contract VerNull is ERC20, Ownable  {... */\ntag_9:\n  dup3\n  dup1\n  sload\n  tag_20\n  swap1\n  tag_21\n  jump\t// in\ntag_20:\n  swap1\n  0x00\n  mstore\n  keccak256(0x00, 0x20)\n  swap1\n  0x1f\n  add\n  0x20\n  swap1\n  div\n  dup2\n  add\n  swap3\n  dup3\n  tag_23\n  jumpi\n  0x00\n  dup6\n  sstore\n  jump(tag_26)\ntag_23:\n  dup3\n  0x1f\n  lt\n  tag_24\n  jumpi\n  dup1\n  mload\n  not(0xff)\n  and\n  dup4\n  dup1\n  add\n  or\n  dup6\n  sstore\n  jump(tag_26)\ntag_24:\n  dup3\n  dup1\n  add\n  0x01\n  add\n  dup6\n  sstore\n  dup3\n  iszero\n  tag_26\n  jumpi\n  swap2\n  dup3\n  add\ntag_25:\n  dup3\n  dup2\n  gt\n  iszero\n  tag_26\n  jumpi\n  dup3\n  mload\n  dup3\n  sstore\n  swap2\n  0x20\n  add\n  swap2\n  swap1\n  0x01\n  add\n  swap1\n  jump(tag_25)\ntag_26:\n  pop\n  tag_27\n  swap3\n  swap2\n  pop\n  tag_28\n  jump\t// in\ntag_27:\n  pop\n  swap1\n  jump\t// out\ntag_28:\ntag_29:\n  dup1\n  dup3\n  gt\n  iszero\n  tag_27\n  jumpi\n  0x00\n  dup2\n  sstore\n  0x01\n  add\n  jump(tag_29)\n    /* \"#utility.yul\":14:141   */\ntag_31:\n    /* \"#utility.yul\":75:85   */\n  0x4e487b71\n    /* \"#utility.yul\":70:73   */\n  0xe0\n    /* \"#utility.yul\":66:86   */\n  shl\n    /* \"#utility.yul\":63:64   */\n  0x00\n    /* \"#utility.yul\":56:87   */\n  mstore\n    /* \"#utility.yul\":106:110   */\n  0x41\n    /* \"#utility.yul\":103:104   */\n  0x04\n    /* \"#utility.yul\":96:111   */\n  mstore\n    /* \"#utility.yul\":130:134   */\n  0x24\n    /* \"#utility.yul\":127:128   */\n  0x00\n    /* \"#utility.yul\":120:135   */\n  revert\n    /* \"#utility.yul\":146:1031   */\ntag_32:\n    /* \"#utility.yul\":200:205   */\n  0x00\n    /* \"#utility.yul\":253:256   */\n  dup3\n    /* \"#utility.yul\":246:250   */\n  0x1f\n    /* \"#utility.yul\":238:244   */\n  dup4\n    /* \"#utility.yul\":234:251   */\n  add\n    /* \"#utility.yul\":230:257   */\n  slt\n    /* \"#utility.yul\":220:275   */\n  tag_36\n  jumpi\n    /* \"#utility.yul\":271:272   */\n  0x00\n    /* \"#utility.yul\":268:269   */\n  dup1\n    /* \"#utility.yul\":261:273   */\n  revert\n    /* \"#utility.yul\":220:275   */\ntag_36:\n    /* \"#utility.yul\":294:307   */\n  dup2\n  mload\n  sub(shl(0x40, 0x01), 0x01)\n    /* \"#utility.yul\":356:366   */\n  dup1\n  dup3\n  gt\n    /* \"#utility.yul\":353:389   */\n  iszero\n  tag_38\n  jumpi\n    /* \"#utility.yul\":369:387   */\n  tag_38\n  tag_31\n  jump\t// in\ntag_38:\n    /* \"#utility.yul\":444:446   */\n  0x40\n    /* \"#utility.yul\":438:447   */\n  mload\n    /* \"#utility.yul\":412:414   */\n  0x1f\n    /* \"#utility.yul\":498:511   */\n  dup4\n  add\n  not(0x1f)\n    /* \"#utility.yul\":494:516   */\n  swap1\n  dup2\n  and\n    /* \"#utility.yul\":518:520   */\n  0x3f\n    /* \"#utility.yul\":490:521   */\n  add\n    /* \"#utility.yul\":486:526   */\n  and\n    /* \"#utility.yul\":474:527   */\n  dup2\n  add\n  swap1\n    /* \"#utility.yul\":542:560   */\n  dup3\n  dup3\n  gt\n    /* \"#utility.yul\":562:584   */\n  dup2\n  dup4\n  lt\n    /* \"#utility.yul\":539:585   */\n  or\n    /* \"#utility.yul\":536:608   */\n  iszero\n  tag_40\n  jumpi\n    /* \"#utility.yul\":588:606   */\n  tag_40\n  tag_31\n  jump\t// in\ntag_40:\n    /* \"#utility.yul\":628:638   */\n  dup2\n    /* \"#utility.yul\":624:626   */\n  0x40\n    /* \"#utility.yul\":617:639   */\n  mstore\n    /* \"#utility.yul\":663:665   */\n  dup4\n    /* \"#utility.yul\":655:661   */\n  dup2\n    /* \"#utility.yul\":648:666   */\n  mstore\n    /* \"#utility.yul\":685:689   */\n  0x20\n    /* \"#utility.yul\":675:689   */\n  swap3\n  pop\n    /* \"#utility.yul\":730:733   */\n  dup7\n    /* \"#utility.yul\":725:727   */\n  dup4\n    /* \"#utility.yul\":720:722   */\n  dup6\n    /* \"#utility.yul\":712:718   */\n  dup9\n    /* \"#utility.yul\":708:723   */\n  add\n    /* \"#utility.yul\":704:728   */\n  add\n    /* \"#utility.yul\":701:734   */\n  gt\n    /* \"#utility.yul\":698:751   */\n  iszero\n  tag_41\n  jumpi\n    /* \"#utility.yul\":747:748   */\n  0x00\n    /* \"#utility.yul\":744:745   */\n  dup1\n    /* \"#utility.yul\":737:749   */\n  revert\n    /* \"#utility.yul\":698:751   */\ntag_41:\n    /* \"#utility.yul\":769:770   */\n  0x00\n    /* \"#utility.yul\":760:770   */\n  swap2\n  pop\n    /* \"#utility.yul\":779:912   */\ntag_42:\n    /* \"#utility.yul\":793:795   */\n  dup4\n    /* \"#utility.yul\":790:791   */\n  dup3\n    /* \"#utility.yul\":787:796   */\n  lt\n    /* \"#utility.yul\":779:912   */\n  iszero\n  tag_44\n  jumpi\n    /* \"#utility.yul\":881:895   */\n  dup6\n  dup3\n  add\n    /* \"#utility.yul\":877:900   */\n  dup4\n  add\n    /* \"#utility.yul\":871:901   */\n  mload\n    /* \"#utility.yul\":850:864   */\n  dup2\n  dup4\n  add\n    /* \"#utility.yul\":846:869   */\n  dup5\n  add\n    /* \"#utility.yul\":839:902   */\n  mstore\n    /* \"#utility.yul\":804:814   */\n  swap1\n  dup3\n  add\n  swap1\n    /* \"#utility.yul\":779:912   */\n  jump(tag_42)\ntag_44:\n    /* \"#utility.yul\":930:932   */\n  dup4\n    /* \"#utility.yul\":927:928   */\n  dup3\n    /* \"#utility.yul\":924:933   */\n  gt\n    /* \"#utility.yul\":921:1001   */\n  iszero\n  tag_45\n  jumpi\n    /* \"#utility.yul\":989:990   */\n  0x00\n    /* \"#utility.yul\":984:986   */\n  dup4\n    /* \"#utility.yul\":979:981   */\n  dup6\n    /* \"#utility.yul\":971:977   */\n  dup4\n    /* \"#utility.yul\":967:982   */\n  add\n    /* \"#utility.yul\":963:987   */\n  add\n    /* \"#utility.yul\":956:991   */\n  mstore\n    /* \"#utility.yul\":921:1001   */\ntag_45:\n    /* \"#utility.yul\":1019:1025   */\n  swap7\n    /* \"#utility.yul\":146:1031   */\n  swap6\n  pop\n  pop\n  pop\n  pop\n  pop\n  pop\n  jump\t// out\n    /* \"#utility.yul\":1036:1721   */\ntag_3:\n    /* \"#utility.yul\":1153:1159   */\n  0x00\n    /* \"#utility.yul\":1161:1167   */\n  dup1\n    /* \"#utility.yul\":1169:1175   */\n  0x00\n    /* \"#utility.yul\":1177:1183   */\n  dup1\n    /* \"#utility.yul\":1230:1233   */\n  0x80\n    /* \"#utility.yul\":1218:1227   */\n  dup6\n    /* \"#utility.yul\":1209:1216   */\n  dup8\n    /* \"#utility.yul\":1205:1228   */\n  sub\n    /* \"#utility.yul\":1201:1234   */\n  slt\n    /* \"#utility.yul\":1198:1251   */\n  iszero\n  tag_47\n  jumpi\n    /* \"#utility.yul\":1247:1248   */\n  0x00\n    /* \"#utility.yul\":1244:1245   */\n  dup1\n    /* \"#utility.yul\":1237:1249   */\n  revert\n    /* \"#utility.yul\":1198:1251   */\ntag_47:\n    /* \"#utility.yul\":1274:1290   */\n  dup5\n  mload\n  sub(shl(0x40, 0x01), 0x01)\n    /* \"#utility.yul\":1339:1353   */\n  dup1\n  dup3\n  gt\n    /* \"#utility.yul\":1336:1370   */\n  iszero\n  tag_48\n  jumpi\n    /* \"#utility.yul\":1366:1367   */\n  0x00\n    /* \"#utility.yul\":1363:1364   */\n  dup1\n    /* \"#utility.yul\":1356:1368   */\n  revert\n    /* \"#utility.yul\":1336:1370   */\ntag_48:\n    /* \"#utility.yul\":1389:1450   */\n  tag_49\n    /* \"#utility.yul\":1442:1449   */\n  dup9\n    /* \"#utility.yul\":1433:1439   */\n  dup4\n    /* \"#utility.yul\":1422:1431   */\n  dup10\n    /* \"#utility.yul\":1418:1440   */\n  add\n    /* \"#utility.yul\":1389:1450   */\n  tag_32\n  jump\t// in\ntag_49:\n    /* \"#utility.yul\":1379:1450   */\n  swap6\n  pop\n    /* \"#utility.yul\":1496:1498   */\n  0x20\n    /* \"#utility.yul\":1485:1494   */\n  dup8\n    /* \"#utility.yul\":1481:1499   */\n  add\n    /* \"#utility.yul\":1475:1500   */\n  mload\n    /* \"#utility.yul\":1459:1500   */\n  swap2\n  pop\n    /* \"#utility.yul\":1525:1527   */\n  dup1\n    /* \"#utility.yul\":1515:1523   */\n  dup3\n    /* \"#utility.yul\":1512:1528   */\n  gt\n    /* \"#utility.yul\":1509:1545   */\n  iszero\n  tag_50\n  jumpi\n    /* \"#utility.yul\":1541:1542   */\n  0x00\n    /* \"#utility.yul\":1538:1539   */\n  dup1\n    /* \"#utility.yul\":1531:1543   */\n  revert\n    /* \"#utility.yul\":1509:1545   */\ntag_50:\n  pop\n    /* \"#utility.yul\":1564:1627   */\n  tag_51\n    /* \"#utility.yul\":1619:1626   */\n  dup8\n    /* \"#utility.yul\":1608:1616   */\n  dup3\n    /* \"#utility.yul\":1597:1606   */\n  dup9\n    /* \"#utility.yul\":1593:1617   */\n  add\n    /* \"#utility.yul\":1564:1627   */\n  tag_32\n  jump\t// in\ntag_51:\n    /* \"#utility.yul\":1667:1669   */\n  0x40\n    /* \"#utility.yul\":1652:1670   */\n  dup8\n  add\n    /* \"#utility.yul\":1646:1671   */\n  mload\n    /* \"#utility.yul\":1711:1713   */\n  0x60\n    /* \"#utility.yul\":1696:1714   */\n  swap1\n  swap8\n  add\n    /* \"#utility.yul\":1690:1715   */\n  mload\n    /* \"#utility.yul\":1036:1721   */\n  swap6\n  swap9\n    /* \"#utility.yul\":1554:1627   */\n  swap1\n  swap8\n  pop\n    /* \"#utility.yul\":1036:1721   */\n  swap4\n  pop\n  pop\n  pop\n  pop\n  jump\t// out\n    /* \"#utility.yul\":1726:2106   */\ntag_21:\n    /* \"#utility.yul\":1805:1806   */\n  0x01\n    /* \"#utility.yul\":1801:1813   */\n  dup2\n  dup2\n  shr\n  swap1\n    /* \"#utility.yul\":1848:1860   */\n  dup3\n  and\n  dup1\n    /* \"#utility.yul\":1869:1930   */\n  tag_53\n  jumpi\n    /* \"#utility.yul\":1923:1927   */\n  0x7f\n    /* \"#utility.yul\":1915:1921   */\n  dup3\n    /* \"#utility.yul\":1911:1928   */\n  and\n    /* \"#utility.yul\":1901:1928   */\n  swap2\n  pop\n    /* \"#utility.yul\":1869:1930   */\ntag_53:\n    /* \"#utility.yul\":1976:1978   */\n  0x20\n    /* \"#utility.yul\":1968:1974   */\n  dup3\n    /* \"#utility.yul\":1965:1979   */\n  lt\n    /* \"#utility.yul\":1945:1963   */\n  dup2\n    /* \"#utility.yul\":1942:1980   */\n  sub\n    /* \"#utility.yul\":1939:2100   */\n  tag_54\n  jumpi\n    /* \"#utility.yul\":2022:2032   */\n  0x4e487b71\n    /* \"#utility.yul\":2017:2020   */\n  0xe0\n    /* \"#utility.yul\":2013:2033   */\n  shl\n    /* \"#utility.yul\":2010:2011   */\n  0x00\n    /* \"#utility.yul\":2003:2034   */\n  mstore\n    /* \"#utility.yul\":2057:2061   */\n  0x22\n    /* \"#utility.yul\":2054:2055   */\n  0x04\n    /* \"#utility.yul\":2047:2062   */\n  mstore\n    /* \"#utility.yul\":2085:2089   */\n  0x24\n    /* \"#utility.yul\":2082:2083   */\n  0x00\n    /* \"#utility.yul\":2075:2090   */\n  revert\n    /* \"#utility.yul\":1939:2100   */\ntag_54:\n  pop\n    /* \"#utility.yul\":1726:2106   */\n  swap2\n  swap1\n  pop\n  jump\t// out\ntag_33:\n    /* \"VerNull.sol\":561:2865  contract VerNull is ERC20, Ownable  {... */\n  dataSize(sub_0)\n  dup1\n  dataOffset(sub_0)\n  0x00\n  codecopy\n  0x00\n  return\nstop\n\nsub_0: assembly {\n        /* \"VerNull.sol\":561:2865  contract VerNull is ERC20, Ownable  {... */\n      mstore(0x40, 0x80)\n      jumpi(tag_1, lt(calldatasize, 0x04))\n      shr(0xe0, calldataload(0x00))\n      dup1\n      0x70a08231\n      gt\n      tag_27\n      jumpi\n      dup1\n      0x9daf2111\n      gt\n      tag_28\n      jumpi\n      dup1\n      0xaa1ed76d\n      gt\n      tag_29\n      jumpi\n      dup1\n      0xaa1ed76d\n      eq\n      tag_24\n      jumpi\n      dup1\n      0xdd62ed3e\n      eq\n      tag_25\n      jumpi\n      dup1\n      0xf2fde38b\n      eq\n      tag_26\n      jumpi\n      stop\n    tag_29:\n      dup1\n      0x9daf2111\n      eq\n      tag_21\n      jumpi\n      dup1\n      0xa457c2d7\n      eq\n      tag_22\n      jumpi\n      dup1\n      0xa9059cbb\n      eq\n      tag_23\n      jumpi\n      stop\n    tag_28:\n      dup1\n      0x8da5cb5b\n      gt\n      tag_30\n      jumpi\n      dup1\n      0x8da5cb5b\n      eq\n      tag_18\n      jumpi\n      dup1\n      0x95d89b41\n      eq\n      tag_19\n      jumpi\n      dup1\n      0x98dd233f\n      eq\n      tag_20\n      jumpi\n      stop\n    tag_30:\n      dup1\n      0x70a08231\n      eq\n      tag_15\n      jumpi\n      dup1\n      0x715018a6\n      eq\n      tag_16\n      jumpi\n      dup1\n      0x798ee5a9\n      eq\n      tag_17\n      jumpi\n      stop\n    tag_27:\n      dup1\n      0x313ce567\n      gt\n      tag_31\n      jumpi\n      dup1\n      0x3b971f9f\n      gt\n      tag_32\n      jumpi\n      dup1\n      0x3b971f9f\n      eq\n      tag_12\n      jumpi\n      dup1\n      0x6a29d715\n      eq\n      tag_13\n      jumpi\n      dup1\n      0x6a61e5fc\n      eq\n      tag_14\n      jumpi\n      stop\n    tag_32:\n      dup1\n      0x313ce567\n      eq\n      tag_9\n      jumpi\n      dup1\n      0x3610724e\n      eq\n      tag_10\n      jumpi\n      dup1\n      0x39509351\n      eq\n      tag_11\n      jumpi\n      stop\n    tag_31:\n      dup1\n      0x18160ddd\n      gt\n      tag_33\n      jumpi\n      dup1\n      0x18160ddd\n      eq\n      tag_6\n      jumpi\n      dup1\n      0x1aa3a008\n      eq\n      tag_7\n      jumpi\n      dup1\n      0x23b872dd\n      eq\n      tag_8\n      jumpi\n      stop\n    tag_33:\n      dup1\n      0x06fdde03\n      eq\n      tag_3\n      jumpi\n      dup1\n      0x07973ccf\n      eq\n      tag_4\n      jumpi\n      dup1\n      0x095ea7b3\n      eq\n      tag_5\n      jumpi\n      stop\n    tag_1:\n      jumpi(tag_2, calldatasize)\n      stop\n    tag_2:\n      stop\n        /* \"@openzeppelin/contracts/token/ERC20/ERC20.sol\":2156:2254   */\n    tag_3:\n      callvalue\n      dup1\n      iszero\n      tag_38\n      jumpi\n      0x00\n      dup1\n      revert\n    tag_38:\n      pop\n      tag_39\n      tag_40\n      jump\t// in\n    tag_39:\n      mload(0x40)\n      tag_41\n      swap2\n      swap1\n      tag_42\n      jump\t// in\n    tag_41:\n      mload(0x40)\n      dup1\n      swap2\n      sub\n      swap1\n      return\n        /* \"VerNull.sol\":2221:2306  function userCount() public view returns (uint) {... */\n    tag_4:\n      callvalue\n      dup1\n      iszero\n      tag_43\n      jumpi\n      0x00\n      dup1\n      revert\n    tag_43:\n      pop\n        /* \"VerNull.sol\":2286:2292  _users */\n      0x08\n        /* \"VerNull.sol\":2286:2299  _users.length */\n      sload\n        /* \"VerNull.sol\":2221:2306  function userCount() public view returns (uint) {... */\n    tag_44:\n      mload(0x40)\n        /* \"#utility.yul\":762:787   */\n      swap1\n      dup2\n      mstore\n        /* \"#utility.yul\":750:752   */\n      0x20\n        /* \"#utility.yul\":735:753   */\n      add\n        /* \"VerNull.sol\":2221:2306  function userCount() public view returns (uint) {... */\n      tag_41\n        /* \"#utility.yul\":616:793   */\n      jump\n        /* \"@openzeppelin/contracts/token/ERC20/ERC20.sol\":4433:4630   */\n    tag_5:\n      callvalue\n      dup1\n      iszero\n      tag_48\n      jumpi\n      0x00\n      dup1\n      revert\n    tag_48:\n      pop\n      tag_49\n      tag_50\n      calldatasize\n      0x04\n      tag_51\n      jump\t// in\n    tag_50:\n      tag_52\n      jump\t// in\n    tag_49:\n      mload(0x40)\n        /* \"#utility.yul\":1423:1437   */\n      swap1\n      iszero\n        /* \"#utility.yul\":1416:1438   */\n      iszero\n        /* \"#utility.yul\":1398:1439   */\n      dup2\n      mstore\n        /* \"#utility.yul\":1386:1388   */\n      0x20\n        /* \"#utility.yul\":1371:1389   */\n      add\n        /* \"@openzeppelin/contracts/token/ERC20/ERC20.sol\":4433:4630   */\n      tag_41\n        /* \"#utility.yul\":1258:1445   */\n      jump\n        /* \"@openzeppelin/contracts/token/ERC20/ERC20.sol\":3244:3350   */\n    tag_6:\n      callvalue\n      dup1\n      iszero\n      tag_55\n      jumpi\n      0x00\n      dup1\n      revert\n    tag_55:\n      pop\n        /* \"@openzeppelin/contracts/token/ERC20/ERC20.sol\":3331:3343   */\n      sload(0x02)\n        /* \"@openzeppelin/contracts/token/ERC20/ERC20.sol\":3244:3350   */\n      jump(tag_44)\n        /* \"VerNull.sol\":1130:1438  function register() public payable returns (uint) {... */\n    tag_7:\n      tag_44\n      tag_60\n      jump\t// in\n        /* \"@openzeppelin/contracts/token/ERC20/ERC20.sol\":5192:5478   */\n    tag_8:\n      callvalue\n      dup1\n      iszero\n      tag_62\n      jumpi\n      0x00\n      dup1\n      revert\n    tag_62:\n      pop\n      tag_49\n      tag_64\n      calldatasize\n      0x04\n      tag_65\n      jump\t// in\n    tag_64:\n      tag_66\n      jump\t// in\n        /* \"@openzeppelin/contracts/token/ERC20/ERC20.sol\":3093:3184   */\n    tag_9:\n      callvalue\n      dup1\n      iszero\n      tag_68\n      jumpi\n      0x00\n      dup1\n      revert\n    tag_68:\n      pop\n      mload(0x40)\n        /* \"@openzeppelin/contracts/token/ERC20/ERC20.sol\":3175:3177   */\n      0x12\n        /* \"#utility.yul\":1925:1961   */\n      dup2\n      mstore\n        /* \"#utility.yul\":1913:1915   */\n      0x20\n        /* \"#utility.yul\":1898:1916   */\n      add\n        /* \"@openzeppelin/contracts/token/ERC20/ERC20.sol\":3093:3184   */\n      tag_41\n        /* \"#utility.yul\":1783:1967   */\n      jump\n        /* \"VerNull.sol\":1994:2211  function buyTokens(uint _amount) public payable returns (uint) {... */\n    tag_10:\n      tag_44\n      tag_74\n      calldatasize\n      0x04\n      tag_75\n      jump\t// in\n    tag_74:\n      tag_76\n      jump\t// in\n        /* \"@openzeppelin/contracts/token/ERC20/ERC20.sol\":5873:6107   */\n    tag_11:\n      callvalue\n      dup1\n      iszero\n      tag_78\n      jumpi\n      0x00\n      dup1\n      revert\n    tag_78:\n      pop\n      tag_49\n      tag_80\n      calldatasize\n      0x04\n      tag_51\n      jump\t// in\n    tag_80:\n      tag_81\n      jump\t// in\n        /* \"VerNull.sol\":603:626  uint public _tokenPrice */\n    tag_12:\n      callvalue\n      dup1\n      iszero\n      tag_83\n      jumpi\n      0x00\n      dup1\n      revert\n    tag_83:\n      pop\n      tag_44\n      sload(0x06)\n      dup2\n      jump\n        /* \"VerNull.sol\":1759:1984  function streakRewards( uint streak, address user ) public payable returns (uint) {... */\n    tag_13:\n      tag_44\n      tag_88\n      calldatasize\n      0x04\n      tag_89\n      jump\t// in\n    tag_88:\n      tag_90\n      jump\t// in\n        /* \"VerNull.sol\":1020:1119  function setTokenPrice(uint tokenPrice_) public onlyOwner {... */\n    tag_14:\n      callvalue\n      dup1\n      iszero\n      tag_92\n      jumpi\n      0x00\n      dup1\n      revert\n    tag_92:\n      pop\n      tag_2\n      tag_94\n      calldatasize\n      0x04\n      tag_75\n      jump\t// in\n    tag_94:\n      tag_95\n      jump\t// in\n        /* \"@openzeppelin/contracts/token/ERC20/ERC20.sol\":3408:3533   */\n    tag_15:\n      callvalue\n      dup1\n      iszero\n      tag_96\n      jumpi\n      0x00\n      dup1\n      revert\n    tag_96:\n      pop\n      tag_44\n      tag_98\n      calldatasize\n      0x04\n      tag_99\n      jump\t// in\n    tag_98:\n      sub(shl(0xa0, 0x01), 0x01)\n        /* \"@openzeppelin/contracts/token/ERC20/ERC20.sol\":3508:3526   */\n      and\n        /* \"@openzeppelin/contracts/token/ERC20/ERC20.sol\":3482:3489   */\n      0x00\n        /* \"@openzeppelin/contracts/token/ERC20/ERC20.sol\":3508:3526   */\n      swap1\n      dup2\n      mstore\n      0x20\n      dup2\n      swap1\n      mstore\n      0x40\n      swap1\n      keccak256\n      sload\n      swap1\n        /* \"@openzeppelin/contracts/token/ERC20/ERC20.sol\":3408:3533   */\n      jump\n        /* \"@openzeppelin/contracts/access/Ownable.sol\":1831:1932   */\n    tag_16:\n      callvalue\n      dup1\n      iszero\n      tag_102\n      jumpi\n      0x00\n      dup1\n      revert\n    tag_102:\n      pop\n      tag_2\n      tag_104\n      jump\t// in\n        /* \"VerNull.sol\":906:1010  function setSignUpBonus (uint signupBonus_) public onlyOwner {... */\n    tag_17:\n      callvalue\n      dup1\n      iszero\n      tag_105\n      jumpi\n      0x00\n      dup1\n      revert\n    tag_105:\n      pop\n      tag_2\n      tag_107\n      calldatasize\n      0x04\n      tag_75\n      jump\t// in\n    tag_107:\n      tag_108\n      jump\t// in\n        /* \"@openzeppelin/contracts/access/Ownable.sol\":1201:1286   */\n    tag_18:\n      callvalue\n      dup1\n      iszero\n      tag_109\n      jumpi\n      0x00\n      dup1\n      revert\n    tag_109:\n      pop\n        /* \"@openzeppelin/contracts/access/Ownable.sol\":1273:1279   */\n      sload(0x05)\n        /* \"@openzeppelin/contracts/access/Ownable.sol\":1201:1286   */\n      mload(0x40)\n      sub(shl(0xa0, 0x01), 0x01)\n        /* \"@openzeppelin/contracts/access/Ownable.sol\":1273:1279   */\n      swap1\n      swap2\n      and\n        /* \"#utility.yul\":2753:2827   */\n      dup2\n      mstore\n        /* \"#utility.yul\":2741:2743   */\n      0x20\n        /* \"#utility.yul\":2726:2744   */\n      add\n        /* \"@openzeppelin/contracts/access/Ownable.sol\":1201:1286   */\n      tag_41\n        /* \"#utility.yul\":2607:2833   */\n      jump\n        /* \"@openzeppelin/contracts/token/ERC20/ERC20.sol\":2367:2469   */\n    tag_19:\n      callvalue\n      dup1\n      iszero\n      tag_114\n      jumpi\n      0x00\n      dup1\n      revert\n    tag_114:\n      pop\n      tag_39\n      tag_116\n      jump\t// in\n        /* \"VerNull.sol\":632:656  uint public _signupBonus */\n    tag_20:\n      callvalue\n      dup1\n      iszero\n      tag_118\n      jumpi\n      0x00\n      dup1\n      revert\n    tag_118:\n      pop\n      tag_44\n      sload(0x07)\n      dup2\n      jump\n        /* \"VerNull.sol\":2316:2784  function getUsers(uint start, uint8 limit) public view returns (address[] memory) {... */\n    tag_21:\n      callvalue\n      dup1\n      iszero\n      tag_122\n      jumpi\n      0x00\n      dup1\n      revert\n    tag_122:\n      pop\n      tag_123\n      tag_124\n      calldatasize\n      0x04\n      tag_125\n      jump\t// in\n    tag_124:\n      tag_126\n      jump\t// in\n    tag_123:\n      mload(0x40)\n      tag_41\n      swap2\n      swap1\n      tag_128\n      jump\t// in\n        /* \"@openzeppelin/contracts/token/ERC20/ERC20.sol\":6594:7021   */\n    tag_22:\n      callvalue\n      dup1\n      iszero\n      tag_129\n      jumpi\n      0x00\n      dup1\n      revert\n    tag_129:\n      pop\n      tag_49\n      tag_131\n      calldatasize\n      0x04\n      tag_51\n      jump\t// in\n    tag_131:\n      tag_132\n      jump\t// in\n        /* \"@openzeppelin/contracts/token/ERC20/ERC20.sol\":3729:3918   */\n    tag_23:\n      callvalue\n      dup1\n      iszero\n      tag_134\n      jumpi\n      0x00\n      dup1\n      revert\n    tag_134:\n      pop\n      tag_49\n      tag_136\n      calldatasize\n      0x04\n      tag_51\n      jump\t// in\n    tag_136:\n      tag_137\n      jump\t// in\n        /* \"VerNull.sol\":1444:1753  function dailyRewards(uint accuracy, uint streak, address user ) public payable returns (uint) {... */\n    tag_24:\n      tag_44\n      tag_140\n      calldatasize\n      0x04\n      tag_141\n      jump\t// in\n    tag_140:\n      tag_142\n      jump\t// in\n        /* \"@openzeppelin/contracts/token/ERC20/ERC20.sol\":3976:4125   */\n    tag_25:\n      callvalue\n      dup1\n      iszero\n      tag_144\n      jumpi\n      0x00\n      dup1\n      revert\n    tag_144:\n      pop\n      tag_44\n      tag_146\n      calldatasize\n      0x04\n      tag_147\n      jump\t// in\n    tag_146:\n      sub(shl(0xa0, 0x01), 0x01)\n        /* \"@openzeppelin/contracts/token/ERC20/ERC20.sol\":4091:4109   */\n      swap2\n      dup3\n      and\n        /* \"@openzeppelin/contracts/token/ERC20/ERC20.sol\":4065:4072   */\n      0x00\n        /* \"@openzeppelin/contracts/token/ERC20/ERC20.sol\":4091:4109   */\n      swap1\n      dup2\n      mstore\n        /* \"@openzeppelin/contracts/token/ERC20/ERC20.sol\":4091:4102   */\n      0x01\n        /* \"@openzeppelin/contracts/token/ERC20/ERC20.sol\":4091:4109   */\n      0x20\n      swap1\n      dup2\n      mstore\n      0x40\n      dup1\n      dup4\n      keccak256\n        /* \"@openzeppelin/contracts/token/ERC20/ERC20.sol\":4091:4118   */\n      swap4\n      swap1\n      swap5\n      and\n      dup3\n      mstore\n      swap2\n      swap1\n      swap2\n      mstore\n      keccak256\n      sload\n      swap1\n        /* \"@openzeppelin/contracts/token/ERC20/ERC20.sol\":3976:4125   */\n      jump\n        /* \"@openzeppelin/contracts/access/Ownable.sol\":2081:2279   */\n    tag_26:\n      callvalue\n      dup1\n      iszero\n      tag_150\n      jumpi\n      0x00\n      dup1\n      revert\n    tag_150:\n      pop\n      tag_2\n      tag_152\n      calldatasize\n      0x04\n      tag_99\n      jump\t// in\n    tag_152:\n      tag_153\n      jump\t// in\n        /* \"@openzeppelin/contracts/token/ERC20/ERC20.sol\":2156:2254   */\n    tag_40:\n        /* \"@openzeppelin/contracts/token/ERC20/ERC20.sol\":2210:2223   */\n      0x60\n        /* \"@openzeppelin/contracts/token/ERC20/ERC20.sol\":2242:2247   */\n      0x03\n        /* \"@openzeppelin/contracts/token/ERC20/ERC20.sol\":2235:2247   */\n      dup1\n      sload\n      tag_155\n      swap1\n      tag_156\n      jump\t// in\n    tag_155:\n      dup1\n      0x1f\n      add\n      0x20\n      dup1\n      swap2\n      div\n      mul\n      0x20\n      add\n      mload(0x40)\n      swap1\n      dup2\n      add\n      0x40\n      mstore\n      dup1\n      swap3\n      swap2\n      swap1\n      dup2\n      dup2\n      mstore\n      0x20\n      add\n      dup3\n      dup1\n      sload\n      tag_157\n      swap1\n      tag_156\n      jump\t// in\n    tag_157:\n      dup1\n      iszero\n      tag_158\n      jumpi\n      dup1\n      0x1f\n      lt\n      tag_159\n      jumpi\n      0x0100\n      dup1\n      dup4\n      sload\n      div\n      mul\n      dup4\n      mstore\n      swap2\n      0x20\n      add\n      swap2\n      jump(tag_158)\n    tag_159:\n      dup3\n      add\n      swap2\n      swap1\n      0x00\n      mstore\n      keccak256(0x00, 0x20)\n      swap1\n    tag_160:\n      dup2\n      sload\n      dup2\n      mstore\n      swap1\n      0x01\n      add\n      swap1\n      0x20\n      add\n      dup1\n      dup4\n      gt\n      tag_160\n      jumpi\n      dup3\n      swap1\n      sub\n      0x1f\n      and\n      dup3\n      add\n      swap2\n    tag_158:\n      pop\n      pop\n      pop\n      pop\n      pop\n      swap1\n      pop\n        /* \"@openzeppelin/contracts/token/ERC20/ERC20.sol\":2156:2254   */\n      swap1\n      jump\t// out\n        /* \"@openzeppelin/contracts/token/ERC20/ERC20.sol\":4433:4630   */\n    tag_52:\n        /* \"@openzeppelin/contracts/token/ERC20/ERC20.sol\":4516:4520   */\n      0x00\n        /* \"@openzeppelin/contracts/utils/Context.sol\":719:729   */\n      caller\n        /* \"@openzeppelin/contracts/token/ERC20/ERC20.sol\":4570:4602   */\n      tag_165\n        /* \"@openzeppelin/contracts/utils/Context.sol\":719:729   */\n      dup2\n        /* \"@openzeppelin/contracts/token/ERC20/ERC20.sol\":4586:4593   */\n      dup6\n        /* \"@openzeppelin/contracts/token/ERC20/ERC20.sol\":4595:4601   */\n      dup6\n        /* \"@openzeppelin/contracts/token/ERC20/ERC20.sol\":4570:4578   */\n      tag_166\n        /* \"@openzeppelin/contracts/token/ERC20/ERC20.sol\":4570:4602   */\n      jump\t// in\n    tag_165:\n      pop\n        /* \"@openzeppelin/contracts/token/ERC20/ERC20.sol\":4619:4623   */\n      0x01\n      swap4\n        /* \"@openzeppelin/contracts/token/ERC20/ERC20.sol\":4433:4630   */\n      swap3\n      pop\n      pop\n      pop\n      jump\t// out\n        /* \"VerNull.sol\":1130:1438  function register() public payable returns (uint) {... */\n    tag_60:\n        /* \"VerNull.sol\":1289:1299  msg.sender */\n      caller\n        /* \"VerNull.sol\":1174:1178  uint */\n      0x00\n        /* \"@openzeppelin/contracts/token/ERC20/ERC20.sol\":3508:3526   */\n      swap1\n      dup2\n      mstore\n      0x20\n      dup2\n      swap1\n      mstore\n      0x40\n      dup2\n      keccak256\n      sload\n        /* \"VerNull.sol\":1279:1305  balanceOf(msg.sender) == 0 */\n      iszero\n        /* \"VerNull.sol\":1271:1328  require(balanceOf(msg.sender) == 0, \"Already registered\") */\n      tag_170\n      jumpi\n      mload(0x40)\n      shl(0xe5, 0x461bcd)\n      dup2\n      mstore\n        /* \"#utility.yul\":5045:5047   */\n      0x20\n        /* \"VerNull.sol\":1271:1328  require(balanceOf(msg.sender) == 0, \"Already registered\") */\n      0x04\n      dup3\n      add\n        /* \"#utility.yul\":5027:5048   */\n      mstore\n        /* \"#utility.yul\":5084:5086   */\n      0x12\n        /* \"#utility.yul\":5064:5082   */\n      0x24\n      dup3\n      add\n        /* \"#utility.yul\":5057:5087   */\n      mstore\n        /* \"#utility.yul\":5123:5143   */\n      0x416c726561647920726567697374657265640000000000000000000000000000\n        /* \"#utility.yul\":5103:5121   */\n      0x44\n      dup3\n      add\n        /* \"#utility.yul\":5096:5144   */\n      mstore\n        /* \"#utility.yul\":5161:5179   */\n      0x64\n      add\n        /* \"VerNull.sol\":1271:1328  require(balanceOf(msg.sender) == 0, \"Already registered\") */\n    tag_171:\n      mload(0x40)\n      dup1\n      swap2\n      sub\n      swap1\n      revert\n    tag_170:\n        /* \"VerNull.sol\":1338:1369  _mint(msg.sender, _signupBonus) */\n      tag_173\n        /* \"VerNull.sol\":1344:1354  msg.sender */\n      caller\n        /* \"VerNull.sol\":1356:1368  _signupBonus */\n      sload(0x07)\n        /* \"VerNull.sol\":1338:1343  _mint */\n      tag_174\n        /* \"VerNull.sol\":1338:1369  _mint(msg.sender, _signupBonus) */\n      jump\t// in\n    tag_173:\n      pop\n        /* \"VerNull.sol\":1379:1385  _users */\n      0x08\n        /* \"VerNull.sol\":1379:1402  _users.push(msg.sender) */\n      dup1\n      sload\n      0x01\n      dup2\n      add\n      dup3\n      sstore\n      0x00\n      swap2\n      swap1\n      swap2\n      mstore\n      0xf3f7a9fe364faab93b216da50a3214154f22a0a2b415b23a84c8169e8b636ee3\n      add\n      dup1\n      sload\n      not(0xffffffffffffffffffffffffffffffffffffffff)\n      and\n        /* \"VerNull.sol\":1391:1401  msg.sender */\n      caller\n        /* \"VerNull.sol\":1379:1402  _users.push(msg.sender) */\n      or\n      swap1\n      sstore\n        /* \"VerNull.sol\":1419:1431  _signupBonus */\n      sload(0x07)\n      swap1\n        /* \"VerNull.sol\":1130:1438  function register() public payable returns (uint) {... */\n      jump\t// out\n        /* \"@openzeppelin/contracts/token/ERC20/ERC20.sol\":5192:5478   */\n    tag_66:\n        /* \"@openzeppelin/contracts/token/ERC20/ERC20.sol\":5319:5323   */\n      0x00\n        /* \"@openzeppelin/contracts/utils/Context.sol\":719:729   */\n      caller\n        /* \"@openzeppelin/contracts/token/ERC20/ERC20.sol\":5375:5413   */\n      tag_178\n        /* \"@openzeppelin/contracts/token/ERC20/ERC20.sol\":5391:5395   */\n      dup6\n        /* \"@openzeppelin/contracts/utils/Context.sol\":719:729   */\n      dup3\n        /* \"@openzeppelin/contracts/token/ERC20/ERC20.sol\":5406:5412   */\n      dup6\n        /* \"@openzeppelin/contracts/token/ERC20/ERC20.sol\":5375:5390   */\n      tag_179\n        /* \"@openzeppelin/contracts/token/ERC20/ERC20.sol\":5375:5413   */\n      jump\t// in\n    tag_178:\n        /* \"@openzeppelin/contracts/token/ERC20/ERC20.sol\":5423:5450   */\n      tag_180\n        /* \"@openzeppelin/contracts/token/ERC20/ERC20.sol\":5433:5437   */\n      dup6\n        /* \"@openzeppelin/contracts/token/ERC20/ERC20.sol\":5439:5441   */\n      dup6\n        /* \"@openzeppelin/contracts/token/ERC20/ERC20.sol\":5443:5449   */\n      dup6\n        /* \"@openzeppelin/contracts/token/ERC20/ERC20.sol\":5423:5432   */\n      tag_181\n        /* \"@openzeppelin/contracts/token/ERC20/ERC20.sol\":5423:5450   */\n      jump\t// in\n    tag_180:\n      pop\n        /* \"@openzeppelin/contracts/token/ERC20/ERC20.sol\":5467:5471   */\n      0x01\n      swap5\n        /* \"@openzeppelin/contracts/token/ERC20/ERC20.sol\":5192:5478   */\n      swap4\n      pop\n      pop\n      pop\n      pop\n      jump\t// out\n        /* \"VerNull.sol\":1994:2211  function buyTokens(uint _amount) public payable returns (uint) {... */\n    tag_76:\n        /* \"VerNull.sol\":2051:2055  uint */\n      0x00\n        /* \"VerNull.sol\":2102:2109  _amount */\n      dup2\n        /* \"VerNull.sol\":2088:2099  _tokenPrice */\n      sload(0x06)\n        /* \"VerNull.sol\":2088:2109  _tokenPrice * _amount */\n      tag_184\n      swap2\n      swap1\n      tag_185\n      jump\t// in\n    tag_184:\n        /* \"VerNull.sol\":2075:2084  msg.value */\n      callvalue\n        /* \"VerNull.sol\":2075:2109  msg.value >= _tokenPrice * _amount */\n      lt\n      iszero\n        /* \"VerNull.sol\":2067:2130  require(msg.value >= _tokenPrice * _amount, \"Not enough funds\") */\n      tag_186\n      jumpi\n      mload(0x40)\n      shl(0xe5, 0x461bcd)\n      dup2\n      mstore\n        /* \"#utility.yul\":5697:5699   */\n      0x20\n        /* \"VerNull.sol\":2067:2130  require(msg.value >= _tokenPrice * _amount, \"Not enough funds\") */\n      0x04\n      dup3\n      add\n        /* \"#utility.yul\":5679:5700   */\n      mstore\n        /* \"#utility.yul\":5736:5738   */\n      0x10\n        /* \"#utility.yul\":5716:5734   */\n      0x24\n      dup3\n      add\n        /* \"#utility.yul\":5709:5739   */\n      mstore\n        /* \"#utility.yul\":5775:5793   */\n      0x4e6f7420656e6f7567682066756e647300000000000000000000000000000000\n        /* \"#utility.yul\":5755:5773   */\n      0x44\n      dup3\n      add\n        /* \"#utility.yul\":5748:5794   */\n      mstore\n        /* \"#utility.yul\":5811:5829   */\n      0x64\n      add\n        /* \"VerNull.sol\":2067:2130  require(msg.value >= _tokenPrice * _amount, \"Not enough funds\") */\n      tag_171\n        /* \"#utility.yul\":5495:5835   */\n      jump\n        /* \"VerNull.sol\":2067:2130  require(msg.value >= _tokenPrice * _amount, \"Not enough funds\") */\n    tag_186:\n        /* \"VerNull.sol\":2140:2166  _mint(msg.sender, _amount) */\n      tag_189\n        /* \"VerNull.sol\":2146:2156  msg.sender */\n      caller\n        /* \"VerNull.sol\":2158:2165  _amount */\n      dup4\n        /* \"VerNull.sol\":2140:2145  _mint */\n      tag_174\n        /* \"VerNull.sol\":2140:2166  _mint(msg.sender, _amount) */\n      jump\t// in\n    tag_189:\n      pop\n      pop\n        /* \"VerNull.sol\":2193:2203  msg.sender */\n      caller\n        /* \"@openzeppelin/contracts/token/ERC20/ERC20.sol\":3482:3489   */\n      0x00\n        /* \"@openzeppelin/contracts/token/ERC20/ERC20.sol\":3508:3526   */\n      swap1\n      dup2\n      mstore\n      0x20\n      dup2\n      swap1\n      mstore\n      0x40\n      swap1\n      keccak256\n      sload\n      swap1\n        /* \"VerNull.sol\":1994:2211  function buyTokens(uint _amount) public payable returns (uint) {... */\n      jump\t// out\n        /* \"@openzeppelin/contracts/token/ERC20/ERC20.sol\":5873:6107   */\n    tag_81:\n        /* \"@openzeppelin/contracts/utils/Context.sol\":719:729   */\n      caller\n        /* \"@openzeppelin/contracts/token/ERC20/ERC20.sol\":5961:5965   */\n      0x00\n        /* \"@openzeppelin/contracts/token/ERC20/ERC20.sol\":4091:4109   */\n      dup2\n      dup2\n      mstore\n        /* \"@openzeppelin/contracts/token/ERC20/ERC20.sol\":4091:4102   */\n      0x01\n        /* \"@openzeppelin/contracts/token/ERC20/ERC20.sol\":4091:4109   */\n      0x20\n      swap1\n      dup2\n      mstore\n      0x40\n      dup1\n      dup4\n      keccak256\n      sub(shl(0xa0, 0x01), 0x01)\n        /* \"@openzeppelin/contracts/token/ERC20/ERC20.sol\":4091:4118   */\n      dup8\n      and\n      dup5\n      mstore\n      swap1\n      swap2\n      mstore\n      dup2\n      keccak256\n      sload\n        /* \"@openzeppelin/contracts/token/ERC20/ERC20.sol\":5961:5965   */\n      swap1\n      swap2\n        /* \"@openzeppelin/contracts/utils/Context.sol\":719:729   */\n      swap1\n        /* \"@openzeppelin/contracts/token/ERC20/ERC20.sol\":6015:6079   */\n      tag_165\n      swap1\n        /* \"@openzeppelin/contracts/utils/Context.sol\":719:729   */\n      dup3\n      swap1\n        /* \"@openzeppelin/contracts/token/ERC20/ERC20.sol\":4091:4118   */\n      dup7\n      swap1\n        /* \"@openzeppelin/contracts/token/ERC20/ERC20.sol\":6040:6078   */\n      tag_195\n      swap1\n        /* \"@openzeppelin/contracts/token/ERC20/ERC20.sol\":6068:6078   */\n      dup8\n      swap1\n        /* \"@openzeppelin/contracts/token/ERC20/ERC20.sol\":6040:6078   */\n      tag_196\n      jump\t// in\n    tag_195:\n        /* \"@openzeppelin/contracts/token/ERC20/ERC20.sol\":6015:6023   */\n      tag_166\n        /* \"@openzeppelin/contracts/token/ERC20/ERC20.sol\":6015:6079   */\n      jump\t// in\n        /* \"VerNull.sol\":1759:1984  function streakRewards( uint streak, address user ) public payable returns (uint) {... */\n    tag_90:\n        /* \"VerNull.sol\":1835:1839  uint */\n      0x00\n        /* \"VerNull.sol\":1925:1945  _mint(user,5*streak) */\n      tag_198\n        /* \"VerNull.sol\":1931:1935  user */\n      dup3\n        /* \"VerNull.sol\":1936:1944  5*streak */\n      tag_199\n        /* \"VerNull.sol\":1938:1944  streak */\n      dup6\n        /* \"VerNull.sol\":1936:1937  5 */\n      0x05\n        /* \"VerNull.sol\":1936:1944  5*streak */\n      tag_185\n      jump\t// in\n    tag_199:\n        /* \"VerNull.sol\":1925:1930  _mint */\n      tag_174\n        /* \"VerNull.sol\":1925:1945  _mint(user,5*streak) */\n      jump\t// in\n    tag_198:\n      sub(shl(0xa0, 0x01), 0x01)\n        /* \"@openzeppelin/contracts/token/ERC20/ERC20.sol\":3508:3526   */\n      dup3\n      and\n        /* \"@openzeppelin/contracts/token/ERC20/ERC20.sol\":3482:3489   */\n      0x00\n        /* \"@openzeppelin/contracts/token/ERC20/ERC20.sol\":3508:3526   */\n      swap1\n      dup2\n      mstore\n      0x20\n      dup2\n      swap1\n      mstore\n      0x40\n      swap1\n      keccak256\n      sload\n        /* \"VerNull.sol\":1962:1977  balanceOf(user) */\n    tag_200:\n        /* \"VerNull.sol\":1955:1977  return balanceOf(user) */\n      swap4\n        /* \"VerNull.sol\":1759:1984  function streakRewards( uint streak, address user ) public payable returns (uint) {... */\n      swap3\n      pop\n      pop\n      pop\n      jump\t// out\n        /* \"VerNull.sol\":1020:1119  function setTokenPrice(uint tokenPrice_) public onlyOwner {... */\n    tag_95:\n        /* \"@openzeppelin/contracts/access/Ownable.sol\":1094:1107   */\n      tag_202\n        /* \"@openzeppelin/contracts/access/Ownable.sol\":1094:1105   */\n      tag_203\n        /* \"@openzeppelin/contracts/access/Ownable.sol\":1094:1107   */\n      jump\t// in\n    tag_202:\n        /* \"VerNull.sol\":1087:1098  _tokenPrice */\n      0x06\n        /* \"VerNull.sol\":1087:1112  _tokenPrice = tokenPrice_ */\n      sstore\n        /* \"VerNull.sol\":1020:1119  function setTokenPrice(uint tokenPrice_) public onlyOwner {... */\n      jump\t// out\n        /* \"@openzeppelin/contracts/access/Ownable.sol\":1831:1932   */\n    tag_104:\n        /* \"@openzeppelin/contracts/access/Ownable.sol\":1094:1107   */\n      tag_207\n        /* \"@openzeppelin/contracts/access/Ownable.sol\":1094:1105   */\n      tag_203\n        /* \"@openzeppelin/contracts/access/Ownable.sol\":1094:1107   */\n      jump\t// in\n    tag_207:\n        /* \"@openzeppelin/contracts/access/Ownable.sol\":1895:1925   */\n      tag_209\n        /* \"@openzeppelin/contracts/access/Ownable.sol\":1922:1923   */\n      0x00\n        /* \"@openzeppelin/contracts/access/Ownable.sol\":1895:1913   */\n      tag_210\n        /* \"@openzeppelin/contracts/access/Ownable.sol\":1895:1925   */\n      jump\t// in\n    tag_209:\n        /* \"@openzeppelin/contracts/access/Ownable.sol\":1831:1932   */\n      jump\t// out\n        /* \"VerNull.sol\":906:1010  function setSignUpBonus (uint signupBonus_) public onlyOwner {... */\n    tag_108:\n        /* \"@openzeppelin/contracts/access/Ownable.sol\":1094:1107   */\n      tag_212\n        /* \"@openzeppelin/contracts/access/Ownable.sol\":1094:1105   */\n      tag_203\n        /* \"@openzeppelin/contracts/access/Ownable.sol\":1094:1107   */\n      jump\t// in\n    tag_212:\n        /* \"VerNull.sol\":976:988  _signupBonus */\n      0x07\n        /* \"VerNull.sol\":976:1003  _signupBonus = signupBonus_ */\n      sstore\n        /* \"VerNull.sol\":906:1010  function setSignUpBonus (uint signupBonus_) public onlyOwner {... */\n      jump\t// out\n        /* \"@openzeppelin/contracts/token/ERC20/ERC20.sol\":2367:2469   */\n    tag_116:\n        /* \"@openzeppelin/contracts/token/ERC20/ERC20.sol\":2423:2436   */\n      0x60\n        /* \"@openzeppelin/contracts/token/ERC20/ERC20.sol\":2455:2462   */\n      0x04\n        /* \"@openzeppelin/contracts/token/ERC20/ERC20.sol\":2448:2462   */\n      dup1\n      sload\n      tag_155\n      swap1\n      tag_156\n      jump\t// in\n        /* \"VerNull.sol\":2316:2784  function getUsers(uint start, uint8 limit) public view returns (address[] memory) {... */\n    tag_126:\n        /* \"VerNull.sol\":2425:2431  _users */\n      0x08\n        /* \"VerNull.sol\":2425:2438  _users.length */\n      sload\n        /* \"VerNull.sol\":2380:2396  address[] memory */\n      0x60\n      swap1\n        /* \"VerNull.sol\":2464:2477  noOfUsers - 1 */\n      tag_222\n        /* \"VerNull.sol\":2476:2477  1 */\n      0x01\n        /* \"VerNull.sol\":2425:2438  _users.length */\n      dup3\n        /* \"VerNull.sol\":2464:2477  noOfUsers - 1 */\n      tag_223\n      jump\t// in\n    tag_222:\n        /* \"VerNull.sol\":2456:2461  start */\n      dup5\n        /* \"VerNull.sol\":2456:2477  start < noOfUsers - 1 */\n      lt\n        /* \"VerNull.sol\":2448:2501  require(start < noOfUsers - 1, \"Invalid start index\") */\n      tag_224\n      jumpi\n      mload(0x40)\n      shl(0xe5, 0x461bcd)\n      dup2\n      mstore\n        /* \"#utility.yul\":6305:6307   */\n      0x20\n        /* \"VerNull.sol\":2448:2501  require(start < noOfUsers - 1, \"Invalid start index\") */\n      0x04\n      dup3\n      add\n        /* \"#utility.yul\":6287:6308   */\n      mstore\n        /* \"#utility.yul\":6344:6346   */\n      0x13\n        /* \"#utility.yul\":6324:6342   */\n      0x24\n      dup3\n      add\n        /* \"#utility.yul\":6317:6347   */\n      mstore\n        /* \"#utility.yul\":6383:6404   */\n      0x496e76616c696420737461727420696e64657800000000000000000000000000\n        /* \"#utility.yul\":6363:6381   */\n      0x44\n      dup3\n      add\n        /* \"#utility.yul\":6356:6405   */\n      mstore\n        /* \"#utility.yul\":6422:6440   */\n      0x64\n      add\n        /* \"VerNull.sol\":2448:2501  require(start < noOfUsers - 1, \"Invalid start index\") */\n      tag_171\n        /* \"#utility.yul\":6103:6446   */\n      jump\n        /* \"VerNull.sol\":2448:2501  require(start < noOfUsers - 1, \"Invalid start index\") */\n    tag_224:\n        /* \"VerNull.sol\":2511:2519  uint end */\n      0x00\n        /* \"VerNull.sol\":2522:2535  start + limit */\n      tag_227\n      0xff\n      dup6\n      and\n        /* \"VerNull.sol\":2522:2527  start */\n      dup7\n        /* \"VerNull.sol\":2522:2535  start + limit */\n      tag_196\n      jump\t// in\n    tag_227:\n        /* \"VerNull.sol\":2511:2535  uint end = start + limit */\n      swap1\n      pop\n        /* \"VerNull.sol\":2555:2564  noOfUsers */\n      dup2\n        /* \"VerNull.sol\":2549:2552  end */\n      dup2\n        /* \"VerNull.sol\":2549:2564  end > noOfUsers */\n      gt\n        /* \"VerNull.sol\":2545:2606  if (end > noOfUsers) {... */\n      iszero\n      tag_228\n      jumpi\n      pop\n        /* \"VerNull.sol\":2586:2595  noOfUsers */\n      dup1\n        /* \"VerNull.sol\":2545:2606  if (end > noOfUsers) {... */\n    tag_228:\n        /* \"VerNull.sol\":2615:2637  address[] memory users */\n      0x00\n        /* \"VerNull.sol\":2654:2665  end - start */\n      tag_229\n        /* \"VerNull.sol\":2660:2665  start */\n      dup7\n        /* \"VerNull.sol\":2654:2657  end */\n      dup4\n        /* \"VerNull.sol\":2654:2665  end - start */\n      tag_223\n      jump\t// in\n    tag_229:\n        /* \"VerNull.sol\":2640:2666  new address[](end - start) */\n      0xffffffffffffffff\n      dup2\n      gt\n      iszero\n      tag_231\n      jumpi\n      tag_231\n      tag_232\n      jump\t// in\n    tag_231:\n      mload(0x40)\n      swap1\n      dup1\n      dup3\n      mstore\n      dup1\n      0x20\n      mul\n      0x20\n      add\n      dup3\n      add\n      0x40\n      mstore\n      dup1\n      iszero\n      tag_233\n      jumpi\n      dup2\n      0x20\n      add\n      0x20\n      dup3\n      mul\n      dup1\n      calldatasize\n      dup4\n      calldatacopy\n      add\n      swap1\n      pop\n    tag_233:\n      pop\n        /* \"VerNull.sol\":2615:2666  address[] memory users = new address[](end - start) */\n      swap1\n      pop\n        /* \"VerNull.sol\":2690:2695  start */\n      dup6\n        /* \"VerNull.sol\":2676:2756  for (uint i = start; i < end; i++) {... */\n    tag_234:\n        /* \"VerNull.sol\":2701:2704  end */\n      dup3\n        /* \"VerNull.sol\":2697:2698  i */\n      dup2\n        /* \"VerNull.sol\":2697:2704  i < end */\n      lt\n        /* \"VerNull.sol\":2676:2756  for (uint i = start; i < end; i++) {... */\n      iszero\n      tag_235\n      jumpi\n        /* \"VerNull.sol\":2736:2742  _users */\n      0x08\n        /* \"VerNull.sol\":2743:2744  i */\n      dup2\n        /* \"VerNull.sol\":2736:2745  _users[i] */\n      dup2\n      sload\n      dup2\n      lt\n      tag_238\n      jumpi\n      tag_238\n      tag_239\n      jump\t// in\n    tag_238:\n      swap1\n      0x00\n      mstore\n      keccak256(0x00, 0x20)\n      add\n      0x00\n      swap1\n      sload\n      swap1\n      0x0100\n      exp\n      swap1\n      div\n      sub(shl(0xa0, 0x01), 0x01)\n      and\n        /* \"VerNull.sol\":2725:2730  users */\n      dup3\n        /* \"VerNull.sol\":2731:2732  i */\n      dup3\n        /* \"VerNull.sol\":2725:2733  users[i] */\n      dup2\n      mload\n      dup2\n      lt\n      tag_242\n      jumpi\n      tag_242\n      tag_239\n      jump\t// in\n    tag_242:\n      sub(shl(0xa0, 0x01), 0x01)\n        /* \"VerNull.sol\":2725:2745  users[i] = _users[i] */\n      swap1\n      swap3\n      and\n        /* \"VerNull.sol\":2725:2733  users[i] */\n      0x20\n      swap3\n      dup4\n      mul\n      swap2\n      swap1\n      swap2\n      add\n      swap1\n      swap2\n      add\n        /* \"VerNull.sol\":2725:2745  users[i] = _users[i] */\n      mstore\n        /* \"VerNull.sol\":2706:2709  i++ */\n      dup1\n      tag_243\n      dup2\n      tag_244\n      jump\t// in\n    tag_243:\n      swap2\n      pop\n      pop\n        /* \"VerNull.sol\":2676:2756  for (uint i = start; i < end; i++) {... */\n      jump(tag_234)\n    tag_235:\n      pop\n        /* \"VerNull.sol\":2772:2777  users */\n      swap6\n        /* \"VerNull.sol\":2316:2784  function getUsers(uint start, uint8 limit) public view returns (address[] memory) {... */\n      swap5\n      pop\n      pop\n      pop\n      pop\n      pop\n      jump\t// out\n        /* \"@openzeppelin/contracts/token/ERC20/ERC20.sol\":6594:7021   */\n    tag_132:\n        /* \"@openzeppelin/contracts/utils/Context.sol\":719:729   */\n      caller\n        /* \"@openzeppelin/contracts/token/ERC20/ERC20.sol\":6687:6691   */\n      0x00\n        /* \"@openzeppelin/contracts/token/ERC20/ERC20.sol\":4091:4109   */\n      dup2\n      dup2\n      mstore\n        /* \"@openzeppelin/contracts/token/ERC20/ERC20.sol\":4091:4102   */\n      0x01\n        /* \"@openzeppelin/contracts/token/ERC20/ERC20.sol\":4091:4109   */\n      0x20\n      swap1\n      dup2\n      mstore\n      0x40\n      dup1\n      dup4\n      keccak256\n      sub(shl(0xa0, 0x01), 0x01)\n        /* \"@openzeppelin/contracts/token/ERC20/ERC20.sol\":4091:4118   */\n      dup8\n      and\n      dup5\n      mstore\n      swap1\n      swap2\n      mstore\n      dup2\n      keccak256\n      sload\n        /* \"@openzeppelin/contracts/token/ERC20/ERC20.sol\":6687:6691   */\n      swap1\n      swap2\n        /* \"@openzeppelin/contracts/utils/Context.sol\":719:729   */\n      swap1\n        /* \"@openzeppelin/contracts/token/ERC20/ERC20.sol\":6831:6846   */\n      dup4\n        /* \"@openzeppelin/contracts/token/ERC20/ERC20.sol\":6811:6827   */\n      dup2\n        /* \"@openzeppelin/contracts/token/ERC20/ERC20.sol\":6811:6846   */\n      lt\n      iszero\n        /* \"@openzeppelin/contracts/token/ERC20/ERC20.sol\":6803:6888   */\n      tag_248\n      jumpi\n      mload(0x40)\n      shl(0xe5, 0x461bcd)\n      dup2\n      mstore\n        /* \"#utility.yul\":7057:7059   */\n      0x20\n        /* \"@openzeppelin/contracts/token/ERC20/ERC20.sol\":6803:6888   */\n      0x04\n      dup3\n      add\n        /* \"#utility.yul\":7039:7060   */\n      mstore\n        /* \"#utility.yul\":7096:7098   */\n      0x25\n        /* \"#utility.yul\":7076:7094   */\n      0x24\n      dup3\n      add\n        /* \"#utility.yul\":7069:7099   */\n      mstore\n        /* \"#utility.yul\":7135:7169   */\n      0x45524332303a2064656372656173656420616c6c6f77616e63652062656c6f77\n        /* \"#utility.yul\":7115:7133   */\n      0x44\n      dup3\n      add\n        /* \"#utility.yul\":7108:7170   */\n      mstore\n        /* \"#utility.yul\":7206:7213   */\n      0x207a65726f000000000000000000000000000000000000000000000000000000\n        /* \"#utility.yul\":7186:7204   */\n      0x64\n      dup3\n      add\n        /* \"#utility.yul\":7179:7214   */\n      mstore\n        /* \"#utility.yul\":7231:7250   */\n      0x84\n      add\n        /* \"@openzeppelin/contracts/token/ERC20/ERC20.sol\":6803:6888   */\n      tag_171\n        /* \"#utility.yul\":6855:7256   */\n      jump\n        /* \"@openzeppelin/contracts/token/ERC20/ERC20.sol\":6803:6888   */\n    tag_248:\n        /* \"@openzeppelin/contracts/token/ERC20/ERC20.sol\":6922:6982   */\n      tag_180\n        /* \"@openzeppelin/contracts/token/ERC20/ERC20.sol\":6931:6936   */\n      dup3\n        /* \"@openzeppelin/contracts/token/ERC20/ERC20.sol\":6938:6945   */\n      dup7\n        /* \"@openzeppelin/contracts/token/ERC20/ERC20.sol\":6966:6981   */\n      dup7\n        /* \"@openzeppelin/contracts/token/ERC20/ERC20.sol\":6947:6963   */\n      dup5\n        /* \"@openzeppelin/contracts/token/ERC20/ERC20.sol\":6947:6981   */\n      sub\n        /* \"@openzeppelin/contracts/token/ERC20/ERC20.sol\":6922:6930   */\n      tag_166\n        /* \"@openzeppelin/contracts/token/ERC20/ERC20.sol\":6922:6982   */\n      jump\t// in\n        /* \"@openzeppelin/contracts/token/ERC20/ERC20.sol\":3729:3918   */\n    tag_137:\n        /* \"@openzeppelin/contracts/token/ERC20/ERC20.sol\":3808:3812   */\n      0x00\n        /* \"@openzeppelin/contracts/utils/Context.sol\":719:729   */\n      caller\n        /* \"@openzeppelin/contracts/token/ERC20/ERC20.sol\":3862:3890   */\n      tag_165\n        /* \"@openzeppelin/contracts/utils/Context.sol\":719:729   */\n      dup2\n        /* \"@openzeppelin/contracts/token/ERC20/ERC20.sol\":3879:3881   */\n      dup6\n        /* \"@openzeppelin/contracts/token/ERC20/ERC20.sol\":3883:3889   */\n      dup6\n        /* \"@openzeppelin/contracts/token/ERC20/ERC20.sol\":3862:3871   */\n      tag_181\n        /* \"@openzeppelin/contracts/token/ERC20/ERC20.sol\":3862:3890   */\n      jump\t// in\n        /* \"VerNull.sol\":1444:1753  function dailyRewards(uint accuracy, uint streak, address user ) public payable returns (uint) {... */\n    tag_142:\n        /* \"VerNull.sol\":1533:1537  uint */\n      0x00\n        /* \"VerNull.sol\":1569:1571  85 */\n      0x55\n        /* \"VerNull.sol\":1557:1565  accuracy */\n      dup5\n        /* \"VerNull.sol\":1557:1571  accuracy >= 85 */\n      lt\n      iszero\n        /* \"VerNull.sol\":1549:1588  require(accuracy >= 85, \"Low accuracy\") */\n      tag_256\n      jumpi\n      mload(0x40)\n      shl(0xe5, 0x461bcd)\n      dup2\n      mstore\n        /* \"#utility.yul\":7463:7465   */\n      0x20\n        /* \"VerNull.sol\":1549:1588  require(accuracy >= 85, \"Low accuracy\") */\n      0x04\n      dup3\n      add\n        /* \"#utility.yul\":7445:7466   */\n      mstore\n        /* \"#utility.yul\":7502:7504   */\n      0x0c\n        /* \"#utility.yul\":7482:7500   */\n      0x24\n      dup3\n      add\n        /* \"#utility.yul\":7475:7505   */\n      mstore\n        /* \"#utility.yul\":7541:7555   */\n      0x4c6f772061636375726163790000000000000000000000000000000000000000\n        /* \"#utility.yul\":7521:7539   */\n      0x44\n      dup3\n      add\n        /* \"#utility.yul\":7514:7556   */\n      mstore\n        /* \"#utility.yul\":7573:7591   */\n      0x64\n      add\n        /* \"VerNull.sol\":1549:1588  require(accuracy >= 85, \"Low accuracy\") */\n      tag_171\n        /* \"#utility.yul\":7261:7597   */\n      jump\n        /* \"VerNull.sol\":1549:1588  require(accuracy >= 85, \"Low accuracy\") */\n    tag_256:\n        /* \"VerNull.sol\":1611:1613  85 */\n      0x55\n        /* \"VerNull.sol\":1601:1609  accuracy */\n      dup5\n        /* \"VerNull.sol\":1601:1613  accuracy>=85 */\n      lt\n        /* \"VerNull.sol\":1598:1705  if(accuracy>=85){... */\n      tag_259\n      jumpi\n        /* \"VerNull.sol\":1628:1639  uint reward */\n      0x00\n        /* \"VerNull.sol\":1656:1662  streak */\n      dup4\n        /* \"VerNull.sol\":1643:1654  accuracy-85 */\n      tag_260\n        /* \"VerNull.sol\":1652:1654  85 */\n      0x55\n        /* \"VerNull.sol\":1643:1651  accuracy */\n      dup8\n        /* \"VerNull.sol\":1643:1654  accuracy-85 */\n      tag_223\n      jump\t// in\n    tag_260:\n        /* \"VerNull.sol\":1642:1662  (accuracy-85)*streak */\n      tag_261\n      swap2\n      swap1\n      tag_185\n      jump\t// in\n    tag_261:\n        /* \"VerNull.sol\":1628:1662  uint reward = (accuracy-85)*streak */\n      swap1\n      pop\n        /* \"VerNull.sol\":1676:1694  _mint(user,reward) */\n      tag_262\n        /* \"VerNull.sol\":1682:1686  user */\n      dup4\n        /* \"VerNull.sol\":1687:1693  reward */\n      dup3\n        /* \"VerNull.sol\":1676:1681  _mint */\n      tag_174\n        /* \"VerNull.sol\":1676:1694  _mint(user,reward) */\n      jump\t// in\n    tag_262:\n        /* \"VerNull.sol\":1614:1705  {... */\n      pop\n        /* \"VerNull.sol\":1598:1705  if(accuracy>=85){... */\n    tag_259:\n      pop\n      sub(shl(0xa0, 0x01), 0x01)\n        /* \"@openzeppelin/contracts/token/ERC20/ERC20.sol\":3508:3526   */\n      and\n        /* \"@openzeppelin/contracts/token/ERC20/ERC20.sol\":3482:3489   */\n      0x00\n        /* \"@openzeppelin/contracts/token/ERC20/ERC20.sol\":3508:3526   */\n      swap1\n      dup2\n      mstore\n      0x20\n      dup2\n      swap1\n      mstore\n      0x40\n      swap1\n      keccak256\n      sload\n      swap3\n        /* \"VerNull.sol\":1723:1745  return balanceOf(user) */\n      swap2\n      pop\n      pop\n        /* \"VerNull.sol\":1444:1753  function dailyRewards(uint accuracy, uint streak, address user ) public payable returns (uint) {... */\n      jump\t// out\n        /* \"@openzeppelin/contracts/access/Ownable.sol\":2081:2279   */\n    tag_153:\n        /* \"@openzeppelin/contracts/access/Ownable.sol\":1094:1107   */\n      tag_266\n        /* \"@openzeppelin/contracts/access/Ownable.sol\":1094:1105   */\n      tag_203\n        /* \"@openzeppelin/contracts/access/Ownable.sol\":1094:1107   */\n      jump\t// in\n    tag_266:\n      sub(shl(0xa0, 0x01), 0x01)\n        /* \"@openzeppelin/contracts/access/Ownable.sol\":2169:2191   */\n      dup2\n      and\n        /* \"@openzeppelin/contracts/access/Ownable.sol\":2161:2234   */\n      tag_268\n      jumpi\n      mload(0x40)\n      shl(0xe5, 0x461bcd)\n      dup2\n      mstore\n        /* \"#utility.yul\":7804:7806   */\n      0x20\n        /* \"@openzeppelin/contracts/access/Ownable.sol\":2161:2234   */\n      0x04\n      dup3\n      add\n        /* \"#utility.yul\":7786:7807   */\n      mstore\n        /* \"#utility.yul\":7843:7845   */\n      0x26\n        /* \"#utility.yul\":7823:7841   */\n      0x24\n      dup3\n      add\n        /* \"#utility.yul\":7816:7846   */\n      mstore\n        /* \"#utility.yul\":7882:7916   */\n      0x4f776e61626c653a206e6577206f776e657220697320746865207a65726f2061\n        /* \"#utility.yul\":7862:7880   */\n      0x44\n      dup3\n      add\n        /* \"#utility.yul\":7855:7917   */\n      mstore\n        /* \"#utility.yul\":7953:7961   */\n      0x6464726573730000000000000000000000000000000000000000000000000000\n        /* \"#utility.yul\":7933:7951   */\n      0x64\n      dup3\n      add\n        /* \"#utility.yul\":7926:7962   */\n      mstore\n        /* \"#utility.yul\":7979:7998   */\n      0x84\n      add\n        /* \"@openzeppelin/contracts/access/Ownable.sol\":2161:2234   */\n      tag_171\n        /* \"#utility.yul\":7602:8004   */\n      jump\n        /* \"@openzeppelin/contracts/access/Ownable.sol\":2161:2234   */\n    tag_268:\n        /* \"@openzeppelin/contracts/access/Ownable.sol\":2244:2272   */\n      tag_271\n        /* \"@openzeppelin/contracts/access/Ownable.sol\":2263:2271   */\n      dup2\n        /* \"@openzeppelin/contracts/access/Ownable.sol\":2244:2262   */\n      tag_210\n        /* \"@openzeppelin/contracts/access/Ownable.sol\":2244:2272   */\n      jump\t// in\n    tag_271:\n        /* \"@openzeppelin/contracts/access/Ownable.sol\":2081:2279   */\n      pop\n      jump\t// out\n        /* \"@openzeppelin/contracts/token/ERC20/ERC20.sol\":10110:10480   */\n    tag_166:\n      sub(shl(0xa0, 0x01), 0x01)\n        /* \"@openzeppelin/contracts/token/ERC20/ERC20.sol\":10241:10260   */\n      dup4\n      and\n        /* \"@openzeppelin/contracts/token/ERC20/ERC20.sol\":10233:10301   */\n      tag_274\n      jumpi\n      mload(0x40)\n      shl(0xe5, 0x461bcd)\n      dup2\n      mstore\n        /* \"#utility.yul\":8211:8213   */\n      0x20\n        /* \"@openzeppelin/contracts/token/ERC20/ERC20.sol\":10233:10301   */\n      0x04\n      dup3\n      add\n        /* \"#utility.yul\":8193:8214   */\n      mstore\n        /* \"#utility.yul\":8250:8252   */\n      0x24\n        /* \"#utility.yul\":8230:8248   */\n      dup1\n      dup3\n      add\n        /* \"#utility.yul\":8223:8253   */\n      mstore\n        /* \"#utility.yul\":8289:8323   */\n      0x45524332303a20617070726f76652066726f6d20746865207a65726f20616464\n        /* \"#utility.yul\":8269:8287   */\n      0x44\n      dup3\n      add\n        /* \"#utility.yul\":8262:8324   */\n      mstore\n      shl(0xe0, 0x72657373)\n        /* \"#utility.yul\":8340:8358   */\n      0x64\n      dup3\n      add\n        /* \"#utility.yul\":8333:8367   */\n      mstore\n        /* \"#utility.yul\":8384:8403   */\n      0x84\n      add\n        /* \"@openzeppelin/contracts/token/ERC20/ERC20.sol\":10233:10301   */\n      tag_171\n        /* \"#utility.yul\":8009:8409   */\n      jump\n        /* \"@openzeppelin/contracts/token/ERC20/ERC20.sol\":10233:10301   */\n    tag_274:\n      sub(shl(0xa0, 0x01), 0x01)\n        /* \"@openzeppelin/contracts/token/ERC20/ERC20.sol\":10319:10340   */\n      dup3\n      and\n        /* \"@openzeppelin/contracts/token/ERC20/ERC20.sol\":10311:10379   */\n      tag_277\n      jumpi\n      mload(0x40)\n      shl(0xe5, 0x461bcd)\n      dup2\n      mstore\n        /* \"#utility.yul\":8616:8618   */\n      0x20\n        /* \"@openzeppelin/contracts/token/ERC20/ERC20.sol\":10311:10379   */\n      0x04\n      dup3\n      add\n        /* \"#utility.yul\":8598:8619   */\n      mstore\n        /* \"#utility.yul\":8655:8657   */\n      0x22\n        /* \"#utility.yul\":8635:8653   */\n      0x24\n      dup3\n      add\n        /* \"#utility.yul\":8628:8658   */\n      mstore\n        /* \"#utility.yul\":8694:8728   */\n      0x45524332303a20617070726f766520746f20746865207a65726f206164647265\n        /* \"#utility.yul\":8674:8692   */\n      0x44\n      dup3\n      add\n        /* \"#utility.yul\":8667:8729   */\n      mstore\n      shl(0xf0, 0x7373)\n        /* \"#utility.yul\":8745:8763   */\n      0x64\n      dup3\n      add\n        /* \"#utility.yul\":8738:8770   */\n      mstore\n        /* \"#utility.yul\":8787:8806   */\n      0x84\n      add\n        /* \"@openzeppelin/contracts/token/ERC20/ERC20.sol\":10311:10379   */\n      tag_171\n        /* \"#utility.yul\":8414:8812   */\n      jump\n        /* \"@openzeppelin/contracts/token/ERC20/ERC20.sol\":10311:10379   */\n    tag_277:\n      sub(shl(0xa0, 0x01), 0x01)\n        /* \"@openzeppelin/contracts/token/ERC20/ERC20.sol\":10390:10408   */\n      dup4\n      dup2\n      and\n      0x00\n      dup2\n      dup2\n      mstore\n        /* \"@openzeppelin/contracts/token/ERC20/ERC20.sol\":10390:10401   */\n      0x01\n        /* \"@openzeppelin/contracts/token/ERC20/ERC20.sol\":10390:10408   */\n      0x20\n      swap1\n      dup2\n      mstore\n      0x40\n      dup1\n      dup4\n      keccak256\n        /* \"@openzeppelin/contracts/token/ERC20/ERC20.sol\":10390:10417   */\n      swap5\n      dup8\n      and\n      dup1\n      dup5\n      mstore\n      swap5\n      dup3\n      mstore\n      swap2\n      dup3\n      swap1\n      keccak256\n        /* \"@openzeppelin/contracts/token/ERC20/ERC20.sol\":10390:10426   */\n      dup6\n      swap1\n      sstore\n        /* \"@openzeppelin/contracts/token/ERC20/ERC20.sol\":10441:10473   */\n      swap1\n      mload\n        /* \"#utility.yul\":762:787   */\n      dup5\n      dup2\n      mstore\n        /* \"@openzeppelin/contracts/token/ERC20/ERC20.sol\":10441:10473   */\n      0x8c5be1e5ebec7d5bd14f71427d1e84f3dd0314c0f7b2291e5b200ac8c7c3b925\n      swap2\n        /* \"#utility.yul\":735:753   */\n      add\n        /* \"@openzeppelin/contracts/token/ERC20/ERC20.sol\":10441:10473   */\n      mload(0x40)\n      dup1\n      swap2\n      sub\n      swap1\n      log3\n        /* \"@openzeppelin/contracts/token/ERC20/ERC20.sol\":10110:10480   */\n      pop\n      pop\n      pop\n      jump\t// out\n        /* \"@openzeppelin/contracts/token/ERC20/ERC20.sol\":8402:8791   */\n    tag_174:\n      sub(shl(0xa0, 0x01), 0x01)\n        /* \"@openzeppelin/contracts/token/ERC20/ERC20.sol\":8485:8506   */\n      dup3\n      and\n        /* \"@openzeppelin/contracts/token/ERC20/ERC20.sol\":8477:8542   */\n      tag_282\n      jumpi\n      mload(0x40)\n      shl(0xe5, 0x461bcd)\n      dup2\n      mstore\n        /* \"#utility.yul\":9019:9021   */\n      0x20\n        /* \"@openzeppelin/contracts/token/ERC20/ERC20.sol\":8477:8542   */\n      0x04\n      dup3\n      add\n        /* \"#utility.yul\":9001:9022   */\n      mstore\n        /* \"#utility.yul\":9058:9060   */\n      0x1f\n        /* \"#utility.yul\":9038:9056   */\n      0x24\n      dup3\n      add\n        /* \"#utility.yul\":9031:9061   */\n      mstore\n        /* \"#utility.yul\":9097:9130   */\n      0x45524332303a206d696e7420746f20746865207a65726f206164647265737300\n        /* \"#utility.yul\":9077:9095   */\n      0x44\n      dup3\n      add\n        /* \"#utility.yul\":9070:9131   */\n      mstore\n        /* \"#utility.yul\":9148:9166   */\n      0x64\n      add\n        /* \"@openzeppelin/contracts/token/ERC20/ERC20.sol\":8477:8542   */\n      tag_171\n        /* \"#utility.yul\":8817:9172   */\n      jump\n        /* \"@openzeppelin/contracts/token/ERC20/ERC20.sol\":8477:8542   */\n    tag_282:\n        /* \"@openzeppelin/contracts/token/ERC20/ERC20.sol\":8629:8635   */\n      dup1\n        /* \"@openzeppelin/contracts/token/ERC20/ERC20.sol\":8613:8625   */\n      0x02\n      0x00\n        /* \"@openzeppelin/contracts/token/ERC20/ERC20.sol\":8613:8635   */\n      dup3\n      dup3\n      sload\n      tag_287\n      swap2\n      swap1\n      tag_196\n      jump\t// in\n    tag_287:\n      swap1\n      swap2\n      sstore\n      pop\n      pop\n      sub(shl(0xa0, 0x01), 0x01)\n        /* \"@openzeppelin/contracts/token/ERC20/ERC20.sol\":8645:8663   */\n      dup3\n      and\n        /* \"@openzeppelin/contracts/token/ERC20/ERC20.sol\":8645:8654   */\n      0x00\n        /* \"@openzeppelin/contracts/token/ERC20/ERC20.sol\":8645:8663   */\n      swap1\n      dup2\n      mstore\n      0x20\n      dup2\n      swap1\n      mstore\n      0x40\n      dup2\n      keccak256\n        /* \"@openzeppelin/contracts/token/ERC20/ERC20.sol\":8645:8673   */\n      dup1\n      sload\n        /* \"@openzeppelin/contracts/token/ERC20/ERC20.sol\":8667:8673   */\n      dup4\n      swap3\n        /* \"@openzeppelin/contracts/token/ERC20/ERC20.sol\":8645:8654   */\n      swap1\n        /* \"@openzeppelin/contracts/token/ERC20/ERC20.sol\":8645:8673   */\n      tag_288\n      swap1\n        /* \"@openzeppelin/contracts/token/ERC20/ERC20.sol\":8667:8673   */\n      dup5\n      swap1\n        /* \"@openzeppelin/contracts/token/ERC20/ERC20.sol\":8645:8673   */\n      tag_196\n      jump\t// in\n    tag_288:\n      swap1\n      swap2\n      sstore\n      pop\n      pop\n        /* \"@openzeppelin/contracts/token/ERC20/ERC20.sol\":8688:8725   */\n      mload(0x40)\n        /* \"#utility.yul\":762:787   */\n      dup2\n      dup2\n      mstore\n      sub(shl(0xa0, 0x01), 0x01)\n        /* \"@openzeppelin/contracts/token/ERC20/ERC20.sol\":8688:8725   */\n      dup4\n      and\n      swap1\n        /* \"@openzeppelin/contracts/token/ERC20/ERC20.sol\":8705:8706   */\n      0x00\n      swap1\n        /* \"@openzeppelin/contracts/token/ERC20/ERC20.sol\":8688:8725   */\n      0xddf252ad1be2c89b69c2b068fc378daa952ba7f163c4a11628f55a4df523b3ef\n      swap1\n        /* \"#utility.yul\":750:752   */\n      0x20\n        /* \"#utility.yul\":735:753   */\n      add\n        /* \"@openzeppelin/contracts/token/ERC20/ERC20.sol\":8688:8725   */\n      mload(0x40)\n      dup1\n      swap2\n      sub\n      swap1\n      log3\n        /* \"@openzeppelin/contracts/token/ERC20/ERC20.sol\":8402:8791   */\n      pop\n      pop\n      jump\t// out\n        /* \"@openzeppelin/contracts/token/ERC20/ERC20.sol\":10761:11202   */\n    tag_179:\n      sub(shl(0xa0, 0x01), 0x01)\n        /* \"@openzeppelin/contracts/token/ERC20/ERC20.sol\":4091:4109   */\n      dup4\n      dup2\n      and\n        /* \"@openzeppelin/contracts/token/ERC20/ERC20.sol\":10891:10915   */\n      0x00\n        /* \"@openzeppelin/contracts/token/ERC20/ERC20.sol\":4091:4109   */\n      swap1\n      dup2\n      mstore\n        /* \"@openzeppelin/contracts/token/ERC20/ERC20.sol\":4091:4102   */\n      0x01\n        /* \"@openzeppelin/contracts/token/ERC20/ERC20.sol\":4091:4109   */\n      0x20\n      swap1\n      dup2\n      mstore\n      0x40\n      dup1\n      dup4\n      keccak256\n        /* \"@openzeppelin/contracts/token/ERC20/ERC20.sol\":4091:4118   */\n      swap4\n      dup7\n      and\n      dup4\n      mstore\n      swap3\n      swap1\n      mstore\n      keccak256\n      sload\n      not(0x00)\n        /* \"@openzeppelin/contracts/token/ERC20/ERC20.sol\":10957:10994   */\n      dup2\n      eq\n        /* \"@openzeppelin/contracts/token/ERC20/ERC20.sol\":10953:11196   */\n      tag_298\n      jumpi\n        /* \"@openzeppelin/contracts/token/ERC20/ERC20.sol\":11038:11044   */\n      dup2\n        /* \"@openzeppelin/contracts/token/ERC20/ERC20.sol\":11018:11034   */\n      dup2\n        /* \"@openzeppelin/contracts/token/ERC20/ERC20.sol\":11018:11044   */\n      lt\n      iszero\n        /* \"@openzeppelin/contracts/token/ERC20/ERC20.sol\":11010:11078   */\n      tag_295\n      jumpi\n      mload(0x40)\n      shl(0xe5, 0x461bcd)\n      dup2\n      mstore\n        /* \"#utility.yul\":9379:9381   */\n      0x20\n        /* \"@openzeppelin/contracts/token/ERC20/ERC20.sol\":11010:11078   */\n      0x04\n      dup3\n      add\n        /* \"#utility.yul\":9361:9382   */\n      mstore\n        /* \"#utility.yul\":9418:9420   */\n      0x1d\n        /* \"#utility.yul\":9398:9416   */\n      0x24\n      dup3\n      add\n        /* \"#utility.yul\":9391:9421   */\n      mstore\n        /* \"#utility.yul\":9457:9488   */\n      0x45524332303a20696e73756666696369656e7420616c6c6f77616e6365000000\n        /* \"#utility.yul\":9437:9455   */\n      0x44\n      dup3\n      add\n        /* \"#utility.yul\":9430:9489   */\n      mstore\n        /* \"#utility.yul\":9506:9524   */\n      0x64\n      add\n        /* \"@openzeppelin/contracts/token/ERC20/ERC20.sol\":11010:11078   */\n      tag_171\n        /* \"#utility.yul\":9177:9530   */\n      jump\n        /* \"@openzeppelin/contracts/token/ERC20/ERC20.sol\":11010:11078   */\n    tag_295:\n        /* \"@openzeppelin/contracts/token/ERC20/ERC20.sol\":11120:11171   */\n      tag_298\n        /* \"@openzeppelin/contracts/token/ERC20/ERC20.sol\":11129:11134   */\n      dup5\n        /* \"@openzeppelin/contracts/token/ERC20/ERC20.sol\":11136:11143   */\n      dup5\n        /* \"@openzeppelin/contracts/token/ERC20/ERC20.sol\":11164:11170   */\n      dup5\n        /* \"@openzeppelin/contracts/token/ERC20/ERC20.sol\":11145:11161   */\n      dup5\n        /* \"@openzeppelin/contracts/token/ERC20/ERC20.sol\":11145:11170   */\n      sub\n        /* \"@openzeppelin/contracts/token/ERC20/ERC20.sol\":11120:11128   */\n      tag_166\n        /* \"@openzeppelin/contracts/token/ERC20/ERC20.sol\":11120:11171   */\n      jump\t// in\n    tag_298:\n        /* \"@openzeppelin/contracts/token/ERC20/ERC20.sol\":10881:11202   */\n      pop\n        /* \"@openzeppelin/contracts/token/ERC20/ERC20.sol\":10761:11202   */\n      pop\n      pop\n      pop\n      jump\t// out\n        /* \"@openzeppelin/contracts/token/ERC20/ERC20.sol\":7475:8126   */\n    tag_181:\n      sub(shl(0xa0, 0x01), 0x01)\n        /* \"@openzeppelin/contracts/token/ERC20/ERC20.sol\":7601:7619   */\n      dup4\n      and\n        /* \"@openzeppelin/contracts/token/ERC20/ERC20.sol\":7593:7661   */\n      tag_300\n      jumpi\n      mload(0x40)\n      shl(0xe5, 0x461bcd)\n      dup2\n      mstore\n        /* \"#utility.yul\":9737:9739   */\n      0x20\n        /* \"@openzeppelin/contracts/token/ERC20/ERC20.sol\":7593:7661   */\n      0x04\n      dup3\n      add\n        /* \"#utility.yul\":9719:9740   */\n      mstore\n        /* \"#utility.yul\":9776:9778   */\n      0x25\n        /* \"#utility.yul\":9756:9774   */\n      0x24\n      dup3\n      add\n        /* \"#utility.yul\":9749:9779   */\n      mstore\n        /* \"#utility.yul\":9815:9849   */\n      0x45524332303a207472616e736665722066726f6d20746865207a65726f206164\n        /* \"#utility.yul\":9795:9813   */\n      0x44\n      dup3\n      add\n        /* \"#utility.yul\":9788:9850   */\n      mstore\n        /* \"#utility.yul\":9886:9893   */\n      0x6472657373000000000000000000000000000000000000000000000000000000\n        /* \"#utility.yul\":9866:9884   */\n      0x64\n      dup3\n      add\n        /* \"#utility.yul\":9859:9894   */\n      mstore\n        /* \"#utility.yul\":9911:9930   */\n      0x84\n      add\n        /* \"@openzeppelin/contracts/token/ERC20/ERC20.sol\":7593:7661   */\n      tag_171\n        /* \"#utility.yul\":9535:9936   */\n      jump\n        /* \"@openzeppelin/contracts/token/ERC20/ERC20.sol\":7593:7661   */\n    tag_300:\n      sub(shl(0xa0, 0x01), 0x01)\n        /* \"@openzeppelin/contracts/token/ERC20/ERC20.sol\":7679:7695   */\n      dup3\n      and\n        /* \"@openzeppelin/contracts/token/ERC20/ERC20.sol\":7671:7735   */\n      tag_303\n      jumpi\n      mload(0x40)\n      shl(0xe5, 0x461bcd)\n      dup2\n      mstore\n        /* \"#utility.yul\":10143:10145   */\n      0x20\n        /* \"@openzeppelin/contracts/token/ERC20/ERC20.sol\":7671:7735   */\n      0x04\n      dup3\n      add\n        /* \"#utility.yul\":10125:10146   */\n      mstore\n        /* \"#utility.yul\":10182:10184   */\n      0x23\n        /* \"#utility.yul\":10162:10180   */\n      0x24\n      dup3\n      add\n        /* \"#utility.yul\":10155:10185   */\n      mstore\n        /* \"#utility.yul\":10221:10255   */\n      0x45524332303a207472616e7366657220746f20746865207a65726f2061646472\n        /* \"#utility.yul\":10201:10219   */\n      0x44\n      dup3\n      add\n        /* \"#utility.yul\":10194:10256   */\n      mstore\n      shl(0xe8, 0x657373)\n        /* \"#utility.yul\":10272:10290   */\n      0x64\n      dup3\n      add\n        /* \"#utility.yul\":10265:10298   */\n      mstore\n        /* \"#utility.yul\":10315:10334   */\n      0x84\n      add\n        /* \"@openzeppelin/contracts/token/ERC20/ERC20.sol\":7671:7735   */\n      tag_171\n        /* \"#utility.yul\":9941:10340   */\n      jump\n        /* \"@openzeppelin/contracts/token/ERC20/ERC20.sol\":7671:7735   */\n    tag_303:\n      sub(shl(0xa0, 0x01), 0x01)\n        /* \"@openzeppelin/contracts/token/ERC20/ERC20.sol\":7817:7832   */\n      dup4\n      and\n        /* \"@openzeppelin/contracts/token/ERC20/ERC20.sol\":7795:7814   */\n      0x00\n        /* \"@openzeppelin/contracts/token/ERC20/ERC20.sol\":7817:7832   */\n      swap1\n      dup2\n      mstore\n      0x20\n      dup2\n      swap1\n      mstore\n      0x40\n      swap1\n      keccak256\n      sload\n        /* \"@openzeppelin/contracts/token/ERC20/ERC20.sol\":7850:7871   */\n      dup2\n      dup2\n      lt\n      iszero\n        /* \"@openzeppelin/contracts/token/ERC20/ERC20.sol\":7842:7914   */\n      tag_307\n      jumpi\n      mload(0x40)\n      shl(0xe5, 0x461bcd)\n      dup2\n      mstore\n        /* \"#utility.yul\":10547:10549   */\n      0x20\n        /* \"@openzeppelin/contracts/token/ERC20/ERC20.sol\":7842:7914   */\n      0x04\n      dup3\n      add\n        /* \"#utility.yul\":10529:10550   */\n      mstore\n        /* \"#utility.yul\":10586:10588   */\n      0x26\n        /* \"#utility.yul\":10566:10584   */\n      0x24\n      dup3\n      add\n        /* \"#utility.yul\":10559:10589   */\n      mstore\n        /* \"#utility.yul\":10625:10659   */\n      0x45524332303a207472616e7366657220616d6f756e7420657863656564732062\n        /* \"#utility.yul\":10605:10623   */\n      0x44\n      dup3\n      add\n        /* \"#utility.yul\":10598:10660   */\n      mstore\n        /* \"#utility.yul\":10696:10704   */\n      0x616c616e63650000000000000000000000000000000000000000000000000000\n        /* \"#utility.yul\":10676:10694   */\n      0x64\n      dup3\n      add\n        /* \"#utility.yul\":10669:10705   */\n      mstore\n        /* \"#utility.yul\":10722:10741   */\n      0x84\n      add\n        /* \"@openzeppelin/contracts/token/ERC20/ERC20.sol\":7842:7914   */\n      tag_171\n        /* \"#utility.yul\":10345:10747   */\n      jump\n        /* \"@openzeppelin/contracts/token/ERC20/ERC20.sol\":7842:7914   */\n    tag_307:\n      sub(shl(0xa0, 0x01), 0x01)\n        /* \"@openzeppelin/contracts/token/ERC20/ERC20.sol\":7948:7963   */\n      dup1\n      dup6\n      and\n        /* \"@openzeppelin/contracts/token/ERC20/ERC20.sol\":7948:7957   */\n      0x00\n        /* \"@openzeppelin/contracts/token/ERC20/ERC20.sol\":7948:7963   */\n      swap1\n      dup2\n      mstore\n      0x20\n      dup2\n      swap1\n      mstore\n      0x40\n      dup1\n      dup3\n      keccak256\n        /* \"@openzeppelin/contracts/token/ERC20/ERC20.sol\":7966:7986   */\n      dup6\n      dup6\n      sub\n        /* \"@openzeppelin/contracts/token/ERC20/ERC20.sol\":7948:7986   */\n      swap1\n      sstore\n        /* \"@openzeppelin/contracts/token/ERC20/ERC20.sol\":8006:8019   */\n      swap2\n      dup6\n      and\n      dup2\n      mstore\n      swap1\n      dup2\n      keccak256\n        /* \"@openzeppelin/contracts/token/ERC20/ERC20.sol\":8006:8029   */\n      dup1\n      sload\n        /* \"@openzeppelin/contracts/token/ERC20/ERC20.sol\":7980:7986   */\n      dup5\n      swap3\n        /* \"@openzeppelin/contracts/token/ERC20/ERC20.sol\":7948:7957   */\n      swap1\n        /* \"@openzeppelin/contracts/token/ERC20/ERC20.sol\":8006:8029   */\n      tag_310\n      swap1\n        /* \"@openzeppelin/contracts/token/ERC20/ERC20.sol\":7980:7986   */\n      dup5\n      swap1\n        /* \"@openzeppelin/contracts/token/ERC20/ERC20.sol\":8006:8029   */\n      tag_196\n      jump\t// in\n    tag_310:\n      swap3\n      pop\n      pop\n      dup2\n      swap1\n      sstore\n      pop\n        /* \"@openzeppelin/contracts/token/ERC20/ERC20.sol\":8060:8062   */\n      dup3\n      sub(shl(0xa0, 0x01), 0x01)\n        /* \"@openzeppelin/contracts/token/ERC20/ERC20.sol\":8045:8071   */\n      and\n        /* \"@openzeppelin/contracts/token/ERC20/ERC20.sol\":8054:8058   */\n      dup5\n      sub(shl(0xa0, 0x01), 0x01)\n        /* \"@openzeppelin/contracts/token/ERC20/ERC20.sol\":8045:8071   */\n      and\n      0xddf252ad1be2c89b69c2b068fc378daa952ba7f163c4a11628f55a4df523b3ef\n        /* \"@openzeppelin/contracts/token/ERC20/ERC20.sol\":8064:8070   */\n      dup5\n        /* \"@openzeppelin/contracts/token/ERC20/ERC20.sol\":8045:8071   */\n      mload(0x40)\n      tag_311\n      swap2\n        /* \"#utility.yul\":762:787   */\n      dup2\n      mstore\n        /* \"#utility.yul\":750:752   */\n      0x20\n        /* \"#utility.yul\":735:753   */\n      add\n      swap1\n        /* \"#utility.yul\":616:793   */\n      jump\n        /* \"@openzeppelin/contracts/token/ERC20/ERC20.sol\":8045:8071   */\n    tag_311:\n      mload(0x40)\n      dup1\n      swap2\n      sub\n      swap1\n      log3\n        /* \"@openzeppelin/contracts/token/ERC20/ERC20.sol\":8082:8119   */\n      tag_298\n        /* \"@openzeppelin/contracts/token/ERC20/ERC20.sol\":11786:11907   */\n      jump\n        /* \"@openzeppelin/contracts/access/Ownable.sol\":1359:1489   */\n    tag_203:\n        /* \"@openzeppelin/contracts/access/Ownable.sol\":1273:1279   */\n      and(sub(shl(0xa0, 0x01), 0x01), sload(0x05))\n        /* \"@openzeppelin/contracts/utils/Context.sol\":719:729   */\n      caller\n        /* \"@openzeppelin/contracts/access/Ownable.sol\":1422:1445   */\n      eq\n        /* \"@openzeppelin/contracts/access/Ownable.sol\":1414:1482   */\n      tag_209\n      jumpi\n      mload(0x40)\n      shl(0xe5, 0x461bcd)\n      dup2\n      mstore\n        /* \"#utility.yul\":10954:10956   */\n      0x20\n        /* \"@openzeppelin/contracts/access/Ownable.sol\":1414:1482   */\n      0x04\n      dup3\n      add\n        /* \"#utility.yul\":10936:10957   */\n      dup2\n      swap1\n      mstore\n        /* \"#utility.yul\":10973:10991   */\n      0x24\n      dup3\n      add\n        /* \"#utility.yul\":10966:10996   */\n      mstore\n        /* \"#utility.yul\":11032:11066   */\n      0x4f776e61626c653a2063616c6c6572206973206e6f7420746865206f776e6572\n        /* \"#utility.yul\":11012:11030   */\n      0x44\n      dup3\n      add\n        /* \"#utility.yul\":11005:11067   */\n      mstore\n        /* \"#utility.yul\":11084:11102   */\n      0x64\n      add\n        /* \"@openzeppelin/contracts/access/Ownable.sol\":1414:1482   */\n      tag_171\n        /* \"#utility.yul\":10752:11108   */\n      jump\n        /* \"@openzeppelin/contracts/access/Ownable.sol\":2433:2620   */\n    tag_210:\n        /* \"@openzeppelin/contracts/access/Ownable.sol\":2525:2531   */\n      0x05\n      dup1\n      sload\n      sub(shl(0xa0, 0x01), 0x01)\n        /* \"@openzeppelin/contracts/access/Ownable.sol\":2541:2558   */\n      dup4\n      dup2\n      and\n      not(0xffffffffffffffffffffffffffffffffffffffff)\n      dup4\n      and\n      dup2\n      or\n      swap1\n      swap4\n      sstore\n        /* \"@openzeppelin/contracts/access/Ownable.sol\":2573:2613   */\n      mload(0x40)\n        /* \"@openzeppelin/contracts/access/Ownable.sol\":2525:2531   */\n      swap2\n      and\n      swap2\n        /* \"@openzeppelin/contracts/access/Ownable.sol\":2541:2558   */\n      swap1\n        /* \"@openzeppelin/contracts/access/Ownable.sol\":2525:2531   */\n      dup3\n      swap1\n        /* \"@openzeppelin/contracts/access/Ownable.sol\":2573:2613   */\n      0x8be0079c531659141344cd1fd0a4f28419497f9722a3daafe3b4186f6b6457e0\n      swap1\n        /* \"@openzeppelin/contracts/access/Ownable.sol\":2506:2522   */\n      0x00\n      swap1\n        /* \"@openzeppelin/contracts/access/Ownable.sol\":2573:2613   */\n      log3\n        /* \"@openzeppelin/contracts/access/Ownable.sol\":2496:2620   */\n      pop\n        /* \"@openzeppelin/contracts/access/Ownable.sol\":2433:2620   */\n      pop\n      jump\t// out\n        /* \"#utility.yul\":14:611   */\n    tag_42:\n        /* \"#utility.yul\":126:130   */\n      0x00\n        /* \"#utility.yul\":155:157   */\n      0x20\n        /* \"#utility.yul\":184:186   */\n      dup1\n        /* \"#utility.yul\":173:182   */\n      dup4\n        /* \"#utility.yul\":166:187   */\n      mstore\n        /* \"#utility.yul\":216:222   */\n      dup4\n        /* \"#utility.yul\":210:223   */\n      mload\n        /* \"#utility.yul\":259:265   */\n      dup1\n        /* \"#utility.yul\":254:256   */\n      dup3\n        /* \"#utility.yul\":243:252   */\n      dup6\n        /* \"#utility.yul\":239:257   */\n      add\n        /* \"#utility.yul\":232:266   */\n      mstore\n        /* \"#utility.yul\":284:285   */\n      0x00\n        /* \"#utility.yul\":294:434   */\n    tag_326:\n        /* \"#utility.yul\":308:314   */\n      dup2\n        /* \"#utility.yul\":305:306   */\n      dup2\n        /* \"#utility.yul\":302:315   */\n      lt\n        /* \"#utility.yul\":294:434   */\n      iszero\n      tag_328\n      jumpi\n        /* \"#utility.yul\":403:417   */\n      dup6\n      dup2\n      add\n        /* \"#utility.yul\":399:422   */\n      dup4\n      add\n        /* \"#utility.yul\":393:423   */\n      mload\n        /* \"#utility.yul\":369:386   */\n      dup6\n      dup3\n      add\n        /* \"#utility.yul\":388:390   */\n      0x40\n        /* \"#utility.yul\":365:391   */\n      add\n        /* \"#utility.yul\":358:424   */\n      mstore\n        /* \"#utility.yul\":323:333   */\n      dup3\n      add\n        /* \"#utility.yul\":294:434   */\n      jump(tag_326)\n    tag_328:\n        /* \"#utility.yul\":452:458   */\n      dup2\n        /* \"#utility.yul\":449:450   */\n      dup2\n        /* \"#utility.yul\":446:459   */\n      gt\n        /* \"#utility.yul\":443:534   */\n      iszero\n      tag_329\n      jumpi\n        /* \"#utility.yul\":522:523   */\n      0x00\n        /* \"#utility.yul\":517:519   */\n      0x40\n        /* \"#utility.yul\":508:514   */\n      dup4\n        /* \"#utility.yul\":497:506   */\n      dup8\n        /* \"#utility.yul\":493:515   */\n      add\n        /* \"#utility.yul\":489:520   */\n      add\n        /* \"#utility.yul\":482:524   */\n      mstore\n        /* \"#utility.yul\":443:534   */\n    tag_329:\n      pop\n        /* \"#utility.yul\":595:597   */\n      0x1f\n        /* \"#utility.yul\":574:589   */\n      add\n      not(0x1f)\n        /* \"#utility.yul\":570:599   */\n      and\n        /* \"#utility.yul\":555:600   */\n      swap3\n      swap1\n      swap3\n      add\n        /* \"#utility.yul\":602:604   */\n      0x40\n        /* \"#utility.yul\":551:605   */\n      add\n      swap4\n        /* \"#utility.yul\":14:611   */\n      swap3\n      pop\n      pop\n      pop\n      jump\t// out\n        /* \"#utility.yul\":798:994   */\n    tag_322:\n        /* \"#utility.yul\":866:886   */\n      dup1\n      calldataload\n      sub(shl(0xa0, 0x01), 0x01)\n        /* \"#utility.yul\":915:969   */\n      dup2\n      and\n        /* \"#utility.yul\":905:970   */\n      dup2\n      eq\n        /* \"#utility.yul\":895:988   */\n      tag_332\n      jumpi\n        /* \"#utility.yul\":984:985   */\n      0x00\n        /* \"#utility.yul\":981:982   */\n      dup1\n        /* \"#utility.yul\":974:986   */\n      revert\n        /* \"#utility.yul\":895:988   */\n    tag_332:\n        /* \"#utility.yul\":798:994   */\n      swap2\n      swap1\n      pop\n      jump\t// out\n        /* \"#utility.yul\":999:1253   */\n    tag_51:\n        /* \"#utility.yul\":1067:1073   */\n      0x00\n        /* \"#utility.yul\":1075:1081   */\n      dup1\n        /* \"#utility.yul\":1128:1130   */\n      0x40\n        /* \"#utility.yul\":1116:1125   */\n      dup4\n        /* \"#utility.yul\":1107:1114   */\n      dup6\n        /* \"#utility.yul\":1103:1126   */\n      sub\n        /* \"#utility.yul\":1099:1131   */\n      slt\n        /* \"#utility.yul\":1096:1148   */\n      iszero\n      tag_334\n      jumpi\n        /* \"#utility.yul\":1144:1145   */\n      0x00\n        /* \"#utility.yul\":1141:1142   */\n      dup1\n        /* \"#utility.yul\":1134:1146   */\n      revert\n        /* \"#utility.yul\":1096:1148   */\n    tag_334:\n        /* \"#utility.yul\":1167:1196   */\n      tag_335\n        /* \"#utility.yul\":1186:1195   */\n      dup4\n        /* \"#utility.yul\":1167:1196   */\n      tag_322\n      jump\t// in\n    tag_335:\n        /* \"#utility.yul\":1157:1196   */\n      swap5\n        /* \"#utility.yul\":1243:1245   */\n      0x20\n        /* \"#utility.yul\":1228:1246   */\n      swap4\n      swap1\n      swap4\n      add\n        /* \"#utility.yul\":1215:1247   */\n      calldataload\n      swap4\n      pop\n      pop\n      pop\n        /* \"#utility.yul\":999:1253   */\n      jump\t// out\n        /* \"#utility.yul\":1450:1778   */\n    tag_65:\n        /* \"#utility.yul\":1527:1533   */\n      0x00\n        /* \"#utility.yul\":1535:1541   */\n      dup1\n        /* \"#utility.yul\":1543:1549   */\n      0x00\n        /* \"#utility.yul\":1596:1598   */\n      0x60\n        /* \"#utility.yul\":1584:1593   */\n      dup5\n        /* \"#utility.yul\":1575:1582   */\n      dup7\n        /* \"#utility.yul\":1571:1594   */\n      sub\n        /* \"#utility.yul\":1567:1599   */\n      slt\n        /* \"#utility.yul\":1564:1616   */\n      iszero\n      tag_338\n      jumpi\n        /* \"#utility.yul\":1612:1613   */\n      0x00\n        /* \"#utility.yul\":1609:1610   */\n      dup1\n        /* \"#utility.yul\":1602:1614   */\n      revert\n        /* \"#utility.yul\":1564:1616   */\n    tag_338:\n        /* \"#utility.yul\":1635:1664   */\n      tag_339\n        /* \"#utility.yul\":1654:1663   */\n      dup5\n        /* \"#utility.yul\":1635:1664   */\n      tag_322\n      jump\t// in\n    tag_339:\n        /* \"#utility.yul\":1625:1664   */\n      swap3\n      pop\n        /* \"#utility.yul\":1683:1721   */\n      tag_340\n        /* \"#utility.yul\":1717:1719   */\n      0x20\n        /* \"#utility.yul\":1706:1715   */\n      dup6\n        /* \"#utility.yul\":1702:1720   */\n      add\n        /* \"#utility.yul\":1683:1721   */\n      tag_322\n      jump\t// in\n    tag_340:\n        /* \"#utility.yul\":1673:1721   */\n      swap2\n      pop\n        /* \"#utility.yul\":1768:1770   */\n      0x40\n        /* \"#utility.yul\":1757:1766   */\n      dup5\n        /* \"#utility.yul\":1753:1771   */\n      add\n        /* \"#utility.yul\":1740:1772   */\n      calldataload\n        /* \"#utility.yul\":1730:1772   */\n      swap1\n      pop\n        /* \"#utility.yul\":1450:1778   */\n      swap3\n      pop\n      swap3\n      pop\n      swap3\n      jump\t// out\n        /* \"#utility.yul\":1972:2152   */\n    tag_75:\n        /* \"#utility.yul\":2031:2037   */\n      0x00\n        /* \"#utility.yul\":2084:2086   */\n      0x20\n        /* \"#utility.yul\":2072:2081   */\n      dup3\n        /* \"#utility.yul\":2063:2070   */\n      dup5\n        /* \"#utility.yul\":2059:2082   */\n      sub\n        /* \"#utility.yul\":2055:2087   */\n      slt\n        /* \"#utility.yul\":2052:2104   */\n      iszero\n      tag_343\n      jumpi\n        /* \"#utility.yul\":2100:2101   */\n      0x00\n        /* \"#utility.yul\":2097:2098   */\n      dup1\n        /* \"#utility.yul\":2090:2102   */\n      revert\n        /* \"#utility.yul\":2052:2104   */\n    tag_343:\n      pop\n        /* \"#utility.yul\":2123:2146   */\n      calldataload\n      swap2\n        /* \"#utility.yul\":1972:2152   */\n      swap1\n      pop\n      jump\t// out\n        /* \"#utility.yul\":2157:2411   */\n    tag_89:\n        /* \"#utility.yul\":2225:2231   */\n      0x00\n        /* \"#utility.yul\":2233:2239   */\n      dup1\n        /* \"#utility.yul\":2286:2288   */\n      0x40\n        /* \"#utility.yul\":2274:2283   */\n      dup4\n        /* \"#utility.yul\":2265:2272   */\n      dup6\n        /* \"#utility.yul\":2261:2284   */\n      sub\n        /* \"#utility.yul\":2257:2289   */\n      slt\n        /* \"#utility.yul\":2254:2306   */\n      iszero\n      tag_345\n      jumpi\n        /* \"#utility.yul\":2302:2303   */\n      0x00\n        /* \"#utility.yul\":2299:2300   */\n      dup1\n        /* \"#utility.yul\":2292:2304   */\n      revert\n        /* \"#utility.yul\":2254:2306   */\n    tag_345:\n        /* \"#utility.yul\":2338:2347   */\n      dup3\n        /* \"#utility.yul\":2325:2348   */\n      calldataload\n        /* \"#utility.yul\":2315:2348   */\n      swap2\n      pop\n        /* \"#utility.yul\":2367:2405   */\n      tag_346\n        /* \"#utility.yul\":2401:2403   */\n      0x20\n        /* \"#utility.yul\":2390:2399   */\n      dup5\n        /* \"#utility.yul\":2386:2404   */\n      add\n        /* \"#utility.yul\":2367:2405   */\n      tag_322\n      jump\t// in\n    tag_346:\n        /* \"#utility.yul\":2357:2405   */\n      swap1\n      pop\n        /* \"#utility.yul\":2157:2411   */\n      swap3\n      pop\n      swap3\n      swap1\n      pop\n      jump\t// out\n        /* \"#utility.yul\":2416:2602   */\n    tag_99:\n        /* \"#utility.yul\":2475:2481   */\n      0x00\n        /* \"#utility.yul\":2528:2530   */\n      0x20\n        /* \"#utility.yul\":2516:2525   */\n      dup3\n        /* \"#utility.yul\":2507:2514   */\n      dup5\n        /* \"#utility.yul\":2503:2526   */\n      sub\n        /* \"#utility.yul\":2499:2531   */\n      slt\n        /* \"#utility.yul\":2496:2548   */\n      iszero\n      tag_348\n      jumpi\n        /* \"#utility.yul\":2544:2545   */\n      0x00\n        /* \"#utility.yul\":2541:2542   */\n      dup1\n        /* \"#utility.yul\":2534:2546   */\n      revert\n        /* \"#utility.yul\":2496:2548   */\n    tag_348:\n        /* \"#utility.yul\":2567:2596   */\n      tag_200\n        /* \"#utility.yul\":2586:2595   */\n      dup3\n        /* \"#utility.yul\":2567:2596   */\n      tag_322\n      jump\t// in\n        /* \"#utility.yul\":2838:3175   */\n    tag_125:\n        /* \"#utility.yul\":2904:2910   */\n      0x00\n        /* \"#utility.yul\":2912:2918   */\n      dup1\n        /* \"#utility.yul\":2965:2967   */\n      0x40\n        /* \"#utility.yul\":2953:2962   */\n      dup4\n        /* \"#utility.yul\":2944:2951   */\n      dup6\n        /* \"#utility.yul\":2940:2963   */\n      sub\n        /* \"#utility.yul\":2936:2968   */\n      slt\n        /* \"#utility.yul\":2933:2985   */\n      iszero\n      tag_352\n      jumpi\n        /* \"#utility.yul\":2981:2982   */\n      0x00\n        /* \"#utility.yul\":2978:2979   */\n      dup1\n        /* \"#utility.yul\":2971:2983   */\n      revert\n        /* \"#utility.yul\":2933:2985   */\n    tag_352:\n        /* \"#utility.yul\":3017:3026   */\n      dup3\n        /* \"#utility.yul\":3004:3027   */\n      calldataload\n        /* \"#utility.yul\":2994:3027   */\n      swap2\n      pop\n        /* \"#utility.yul\":3077:3079   */\n      0x20\n        /* \"#utility.yul\":3066:3075   */\n      dup4\n        /* \"#utility.yul\":3062:3080   */\n      add\n        /* \"#utility.yul\":3049:3081   */\n      calldataload\n        /* \"#utility.yul\":3121:3125   */\n      0xff\n        /* \"#utility.yul\":3114:3119   */\n      dup2\n        /* \"#utility.yul\":3110:3126   */\n      and\n        /* \"#utility.yul\":3103:3108   */\n      dup2\n        /* \"#utility.yul\":3100:3127   */\n      eq\n        /* \"#utility.yul\":3090:3145   */\n      tag_353\n      jumpi\n        /* \"#utility.yul\":3141:3142   */\n      0x00\n        /* \"#utility.yul\":3138:3139   */\n      dup1\n        /* \"#utility.yul\":3131:3143   */\n      revert\n        /* \"#utility.yul\":3090:3145   */\n    tag_353:\n        /* \"#utility.yul\":3164:3169   */\n      dup1\n        /* \"#utility.yul\":3154:3169   */\n      swap2\n      pop\n      pop\n        /* \"#utility.yul\":2838:3175   */\n      swap3\n      pop\n      swap3\n      swap1\n      pop\n      jump\t// out\n        /* \"#utility.yul\":3180:3861   */\n    tag_128:\n        /* \"#utility.yul\":3351:3353   */\n      0x20\n        /* \"#utility.yul\":3403:3424   */\n      dup1\n      dup3\n      mstore\n        /* \"#utility.yul\":3473:3486   */\n      dup3\n      mload\n        /* \"#utility.yul\":3376:3394   */\n      dup3\n      dup3\n      add\n        /* \"#utility.yul\":3495:3517   */\n      dup2\n      swap1\n      mstore\n        /* \"#utility.yul\":3322:3326   */\n      0x00\n      swap2\n        /* \"#utility.yul\":3351:3353   */\n      swap1\n        /* \"#utility.yul\":3574:3589   */\n      dup5\n      dup3\n      add\n      swap1\n        /* \"#utility.yul\":3548:3550   */\n      0x40\n        /* \"#utility.yul\":3533:3551   */\n      dup6\n      add\n      swap1\n        /* \"#utility.yul\":3322:3326   */\n      dup5\n        /* \"#utility.yul\":3617:3835   */\n    tag_355:\n        /* \"#utility.yul\":3631:3637   */\n      dup2\n        /* \"#utility.yul\":3628:3629   */\n      dup2\n        /* \"#utility.yul\":3625:3638   */\n      lt\n        /* \"#utility.yul\":3617:3835   */\n      iszero\n      tag_357\n      jumpi\n        /* \"#utility.yul\":3696:3709   */\n      dup4\n      mload\n      sub(shl(0xa0, 0x01), 0x01)\n        /* \"#utility.yul\":3692:3754   */\n      and\n        /* \"#utility.yul\":3680:3755   */\n      dup4\n      mstore\n        /* \"#utility.yul\":3810:3825   */\n      swap3\n      dup5\n      add\n      swap3\n        /* \"#utility.yul\":3775:3787   */\n      swap2\n      dup5\n      add\n      swap2\n        /* \"#utility.yul\":3653:3654   */\n      0x01\n        /* \"#utility.yul\":3646:3655   */\n      add\n        /* \"#utility.yul\":3617:3835   */\n      jump(tag_355)\n    tag_357:\n      pop\n        /* \"#utility.yul\":3852:3855   */\n      swap1\n      swap7\n        /* \"#utility.yul\":3180:3861   */\n      swap6\n      pop\n      pop\n      pop\n      pop\n      pop\n      pop\n      jump\t// out\n        /* \"#utility.yul\":3866:4188   */\n    tag_141:\n        /* \"#utility.yul\":3943:3949   */\n      0x00\n        /* \"#utility.yul\":3951:3957   */\n      dup1\n        /* \"#utility.yul\":3959:3965   */\n      0x00\n        /* \"#utility.yul\":4012:4014   */\n      0x60\n        /* \"#utility.yul\":4000:4009   */\n      dup5\n        /* \"#utility.yul\":3991:3998   */\n      dup7\n        /* \"#utility.yul\":3987:4010   */\n      sub\n        /* \"#utility.yul\":3983:4015   */\n      slt\n        /* \"#utility.yul\":3980:4032   */\n      iszero\n      tag_359\n      jumpi\n        /* \"#utility.yul\":4028:4029   */\n      0x00\n        /* \"#utility.yul\":4025:4026   */\n      dup1\n        /* \"#utility.yul\":4018:4030   */\n      revert\n        /* \"#utility.yul\":3980:4032   */\n    tag_359:\n        /* \"#utility.yul\":4064:4073   */\n      dup4\n        /* \"#utility.yul\":4051:4074   */\n      calldataload\n        /* \"#utility.yul\":4041:4074   */\n      swap3\n      pop\n        /* \"#utility.yul\":4121:4123   */\n      0x20\n        /* \"#utility.yul\":4110:4119   */\n      dup5\n        /* \"#utility.yul\":4106:4124   */\n      add\n        /* \"#utility.yul\":4093:4125   */\n      calldataload\n        /* \"#utility.yul\":4083:4125   */\n      swap2\n      pop\n        /* \"#utility.yul\":4144:4182   */\n      tag_360\n        /* \"#utility.yul\":4178:4180   */\n      0x40\n        /* \"#utility.yul\":4167:4176   */\n      dup6\n        /* \"#utility.yul\":4163:4181   */\n      add\n        /* \"#utility.yul\":4144:4182   */\n      tag_322\n      jump\t// in\n    tag_360:\n        /* \"#utility.yul\":4134:4182   */\n      swap1\n      pop\n        /* \"#utility.yul\":3866:4188   */\n      swap3\n      pop\n      swap3\n      pop\n      swap3\n      jump\t// out\n        /* \"#utility.yul\":4193:4453   */\n    tag_147:\n        /* \"#utility.yul\":4261:4267   */\n      0x00\n        /* \"#utility.yul\":4269:4275   */\n      dup1\n        /* \"#utility.yul\":4322:4324   */\n      0x40\n        /* \"#utility.yul\":4310:4319   */\n      dup4\n        /* \"#utility.yul\":4301:4308   */\n      dup6\n        /* \"#utility.yul\":4297:4320   */\n      sub\n        /* \"#utility.yul\":4293:4325   */\n      slt\n        /* \"#utility.yul\":4290:4342   */\n      iszero\n      tag_362\n      jumpi\n        /* \"#utility.yul\":4338:4339   */\n      0x00\n        /* \"#utility.yul\":4335:4336   */\n      dup1\n        /* \"#utility.yul\":4328:4340   */\n      revert\n        /* \"#utility.yul\":4290:4342   */\n    tag_362:\n        /* \"#utility.yul\":4361:4390   */\n      tag_363\n        /* \"#utility.yul\":4380:4389   */\n      dup4\n        /* \"#utility.yul\":4361:4390   */\n      tag_322\n      jump\t// in\n    tag_363:\n        /* \"#utility.yul\":4351:4390   */\n      swap2\n      pop\n        /* \"#utility.yul\":4409:4447   */\n      tag_346\n        /* \"#utility.yul\":4443:4445   */\n      0x20\n        /* \"#utility.yul\":4432:4441   */\n      dup5\n        /* \"#utility.yul\":4428:4446   */\n      add\n        /* \"#utility.yul\":4409:4447   */\n      tag_322\n      jump\t// in\n        /* \"#utility.yul\":4458:4838   */\n    tag_156:\n        /* \"#utility.yul\":4537:4538   */\n      0x01\n        /* \"#utility.yul\":4533:4545   */\n      dup2\n      dup2\n      shr\n      swap1\n        /* \"#utility.yul\":4580:4592   */\n      dup3\n      and\n      dup1\n        /* \"#utility.yul\":4601:4662   */\n      tag_366\n      jumpi\n        /* \"#utility.yul\":4655:4659   */\n      0x7f\n        /* \"#utility.yul\":4647:4653   */\n      dup3\n        /* \"#utility.yul\":4643:4660   */\n      and\n        /* \"#utility.yul\":4633:4660   */\n      swap2\n      pop\n        /* \"#utility.yul\":4601:4662   */\n    tag_366:\n        /* \"#utility.yul\":4708:4710   */\n      0x20\n        /* \"#utility.yul\":4700:4706   */\n      dup3\n        /* \"#utility.yul\":4697:4711   */\n      lt\n        /* \"#utility.yul\":4677:4695   */\n      dup2\n        /* \"#utility.yul\":4674:4712   */\n      sub\n        /* \"#utility.yul\":4671:4832   */\n      tag_367\n      jumpi\n        /* \"#utility.yul\":4754:4764   */\n      0x4e487b71\n        /* \"#utility.yul\":4749:4752   */\n      0xe0\n        /* \"#utility.yul\":4745:4765   */\n      shl\n        /* \"#utility.yul\":4742:4743   */\n      0x00\n        /* \"#utility.yul\":4735:4766   */\n      mstore\n        /* \"#utility.yul\":4789:4793   */\n      0x22\n        /* \"#utility.yul\":4786:4787   */\n      0x04\n        /* \"#utility.yul\":4779:4794   */\n      mstore\n        /* \"#utility.yul\":4817:4821   */\n      0x24\n        /* \"#utility.yul\":4814:4815   */\n      0x00\n        /* \"#utility.yul\":4807:4822   */\n      revert\n        /* \"#utility.yul\":4671:4832   */\n    tag_367:\n      pop\n        /* \"#utility.yul\":4458:4838   */\n      swap2\n      swap1\n      pop\n      jump\t// out\n        /* \"#utility.yul\":5190:5317   */\n    tag_323:\n        /* \"#utility.yul\":5251:5261   */\n      0x4e487b71\n        /* \"#utility.yul\":5246:5249   */\n      0xe0\n        /* \"#utility.yul\":5242:5262   */\n      shl\n        /* \"#utility.yul\":5239:5240   */\n      0x00\n        /* \"#utility.yul\":5232:5263   */\n      mstore\n        /* \"#utility.yul\":5282:5286   */\n      0x11\n        /* \"#utility.yul\":5279:5280   */\n      0x04\n        /* \"#utility.yul\":5272:5287   */\n      mstore\n        /* \"#utility.yul\":5306:5310   */\n      0x24\n        /* \"#utility.yul\":5303:5304   */\n      0x00\n        /* \"#utility.yul\":5296:5311   */\n      revert\n        /* \"#utility.yul\":5322:5490   */\n    tag_185:\n        /* \"#utility.yul\":5362:5369   */\n      0x00\n        /* \"#utility.yul\":5428:5429   */\n      dup2\n        /* \"#utility.yul\":5424:5425   */\n      0x00\n        /* \"#utility.yul\":5420:5426   */\n      not\n        /* \"#utility.yul\":5416:5430   */\n      div\n        /* \"#utility.yul\":5413:5414   */\n      dup4\n        /* \"#utility.yul\":5410:5431   */\n      gt\n        /* \"#utility.yul\":5405:5406   */\n      dup3\n        /* \"#utility.yul\":5398:5407   */\n      iszero\n        /* \"#utility.yul\":5391:5408   */\n      iszero\n        /* \"#utility.yul\":5387:5432   */\n      and\n        /* \"#utility.yul\":5384:5455   */\n      iszero\n      tag_372\n      jumpi\n        /* \"#utility.yul\":5435:5453   */\n      tag_372\n      tag_323\n      jump\t// in\n    tag_372:\n      pop\n        /* \"#utility.yul\":5475:5484   */\n      mul\n      swap1\n        /* \"#utility.yul\":5322:5490   */\n      jump\t// out\n        /* \"#utility.yul\":5840:5968   */\n    tag_196:\n        /* \"#utility.yul\":5880:5883   */\n      0x00\n        /* \"#utility.yul\":5911:5912   */\n      dup3\n        /* \"#utility.yul\":5907:5913   */\n      not\n        /* \"#utility.yul\":5904:5905   */\n      dup3\n        /* \"#utility.yul\":5901:5914   */\n      gt\n        /* \"#utility.yul\":5898:5937   */\n      iszero\n      tag_376\n      jumpi\n        /* \"#utility.yul\":5917:5935   */\n      tag_376\n      tag_323\n      jump\t// in\n    tag_376:\n      pop\n        /* \"#utility.yul\":5953:5962   */\n      add\n      swap1\n        /* \"#utility.yul\":5840:5968   */\n      jump\t// out\n        /* \"#utility.yul\":5973:6098   */\n    tag_223:\n        /* \"#utility.yul\":6013:6017   */\n      0x00\n        /* \"#utility.yul\":6041:6042   */\n      dup3\n        /* \"#utility.yul\":6038:6039   */\n      dup3\n        /* \"#utility.yul\":6035:6043   */\n      lt\n        /* \"#utility.yul\":6032:6066   */\n      iszero\n      tag_379\n      jumpi\n        /* \"#utility.yul\":6046:6064   */\n      tag_379\n      tag_323\n      jump\t// in\n    tag_379:\n      pop\n        /* \"#utility.yul\":6083:6092   */\n      sub\n      swap1\n        /* \"#utility.yul\":5973:6098   */\n      jump\t// out\n        /* \"#utility.yul\":6451:6578   */\n    tag_232:\n        /* \"#utility.yul\":6512:6522   */\n      0x4e487b71\n        /* \"#utility.yul\":6507:6510   */\n      0xe0\n        /* \"#utility.yul\":6503:6523   */\n      shl\n        /* \"#utility.yul\":6500:6501   */\n      0x00\n        /* \"#utility.yul\":6493:6524   */\n      mstore\n        /* \"#utility.yul\":6543:6547   */\n      0x41\n        /* \"#utility.yul\":6540:6541   */\n      0x04\n        /* \"#utility.yul\":6533:6548   */\n      mstore\n        /* \"#utility.yul\":6567:6571   */\n      0x24\n        /* \"#utility.yul\":6564:6565   */\n      0x00\n        /* \"#utility.yul\":6557:6572   */\n      revert\n        /* \"#utility.yul\":6583:6710   */\n    tag_239:\n        /* \"#utility.yul\":6644:6654   */\n      0x4e487b71\n        /* \"#utility.yul\":6639:6642   */\n      0xe0\n        /* \"#utility.yul\":6635:6655   */\n      shl\n        /* \"#utility.yul\":6632:6633   */\n      0x00\n        /* \"#utility.yul\":6625:6656   */\n      mstore\n        /* \"#utility.yul\":6675:6679   */\n      0x32\n        /* \"#utility.yul\":6672:6673   */\n      0x04\n        /* \"#utility.yul\":6665:6680   */\n      mstore\n        /* \"#utility.yul\":6699:6703   */\n      0x24\n        /* \"#utility.yul\":6696:6697   */\n      0x00\n        /* \"#utility.yul\":6689:6704   */\n      revert\n        /* \"#utility.yul\":6715:6850   */\n    tag_244:\n        /* \"#utility.yul\":6754:6757   */\n      0x00\n        /* \"#utility.yul\":6775:6792   */\n      0x01\n      dup3\n      add\n        /* \"#utility.yul\":6772:6815   */\n      tag_385\n      jumpi\n        /* \"#utility.yul\":6795:6813   */\n      tag_385\n      tag_323\n      jump\t// in\n    tag_385:\n      pop\n        /* \"#utility.yul\":6842:6843   */\n      0x01\n        /* \"#utility.yul\":6831:6844   */\n      add\n      swap1\n        /* \"#utility.yul\":6715:6850   */\n      jump\t// out\n\n    auxdata: 0xa2646970667358221220ff43dc7bf7ba5ef2f02167b3a7e231d2a0583f9e0c9e0603e9fe803280430a4264736f6c634300080d0033\n}\n",
    "bytecode": {
      "linkReferences": {},
      "object": "60806040523480156200001157600080fd5b50604051620016083803806200160883398101604081905262000034916200025b565b8351849084906200004d906003906020850190620000e8565b50805162000063906004906020840190620000e8565b505050620000806200007a6200009260201b60201c565b62000096565b60069190915560075550620003119050565b3390565b600580546001600160a01b038381166001600160a01b0319831681179093556040519116919082907f8be0079c531659141344cd1fd0a4f28419497f9722a3daafe3b4186f6b6457e090600090a35050565b828054620000f690620002d5565b90600052602060002090601f0160209004810192826200011a576000855562000165565b82601f106200013557805160ff191683800117855562000165565b8280016001018555821562000165579182015b828111156200016557825182559160200191906001019062000148565b506200017392915062000177565b5090565b5b8082111562000173576000815560010162000178565b634e487b7160e01b600052604160045260246000fd5b600082601f830112620001b657600080fd5b81516001600160401b0380821115620001d357620001d36200018e565b604051601f8301601f19908116603f01168101908282118183101715620001fe57620001fe6200018e565b816040528381526020925086838588010111156200021b57600080fd5b600091505b838210156200023f578582018301518183018401529082019062000220565b83821115620002515760008385830101525b9695505050505050565b600080600080608085870312156200027257600080fd5b84516001600160401b03808211156200028a57600080fd5b6200029888838901620001a4565b95506020870151915080821115620002af57600080fd5b50620002be87828801620001a4565b604087015160609097015195989097509350505050565b600181811c90821680620002ea57607f821691505b6020821081036200030b57634e487b7160e01b600052602260045260246000fd5b50919050565b6112e780620003216000396000f3fe6080604052600436106101775760003560e01c806370a08231116100ca5780639daf211111610079578063aa1ed76d11610056578063aa1ed76d146103fa578063dd62ed3e1461040d578063f2fde38b1461045357005b80639daf21111461038d578063a457c2d7146103ba578063a9059cbb146103da57005b80638da5cb5b116100a75780638da5cb5b1461033a57806395d89b411461036257806398dd233f1461037757005b806370a08231146102cf578063715018a614610305578063798ee5a91461031a57005b8063313ce567116101265780633b971f9f116101035780633b971f9f146102865780636a29d7151461029c5780636a61e5fc146102af57005b8063313ce567146102375780633610724e14610253578063395093511461026657005b806318160ddd1161015457806318160ddd146101fa5780631aa3a0081461020f57806323b872dd1461021757005b806306fdde031461018057806307973ccf146101ab578063095ea7b3146101ca57005b3661017e57005b005b34801561018c57600080fd5b50610195610473565b6040516101a29190610fb5565b60405180910390f35b3480156101b757600080fd5b506008545b6040519081526020016101a2565b3480156101d657600080fd5b506101ea6101e5366004611026565b610505565b60405190151581526020016101a2565b34801561020657600080fd5b506002546101bc565b6101bc61051d565b34801561022357600080fd5b506101ea610232366004611050565b6105e1565b34801561024357600080fd5b50604051601281526020016101a2565b6101bc61026136600461108c565b610605565b34801561027257600080fd5b506101ea610281366004611026565b610683565b34801561029257600080fd5b506101bc60065481565b6101bc6102aa3660046110a5565b6106c2565b3480156102bb57600080fd5b5061017e6102ca36600461108c565b6106f9565b3480156102db57600080fd5b506101bc6102ea3660046110d1565b6001600160a01b031660009081526020819052604090205490565b34801561031157600080fd5b5061017e610706565b34801561032657600080fd5b5061017e61033536600461108c565b61071a565b34801561034657600080fd5b506005546040516001600160a01b0390911681526020016101a2565b34801561036e57600080fd5b50610195610727565b34801561038357600080fd5b506101bc60075481565b34801561039957600080fd5b506103ad6103a83660046110ec565b610736565b6040516101a29190611122565b3480156103c657600080fd5b506101ea6103d5366004611026565b610882565b3480156103e657600080fd5b506101ea6103f5366004611026565b61092c565b6101bc61040836600461116f565b61093a565b34801561041957600080fd5b506101bc6104283660046111a4565b6001600160a01b03918216600090815260016020908152604080832093909416825291909152205490565b34801561045f57600080fd5b5061017e61046e3660046110d1565b6109da565b606060038054610482906111ce565b80601f01602080910402602001604051908101604052809291908181526020018280546104ae906111ce565b80156104fb5780601f106104d0576101008083540402835291602001916104fb565b820191906000526020600020905b8154815290600101906020018083116104de57829003601f168201915b5050505050905090565b600033610513818585610a6a565b5060019392505050565b336000908152602081905260408120541561057f5760405162461bcd60e51b815260206004820152601260248201527f416c72656164792072656769737465726564000000000000000000000000000060448201526064015b60405180910390fd5b61058b33600754610b8e565b50600880546001810182556000919091527ff3f7a9fe364faab93b216da50a3214154f22a0a2b415b23a84c8169e8b636ee301805473ffffffffffffffffffffffffffffffffffffffff19163317905560075490565b6000336105ef858285610c6d565b6105fa858585610cff565b506001949350505050565b600081600654610615919061121e565b3410156106645760405162461bcd60e51b815260206004820152601060248201527f4e6f7420656e6f7567682066756e6473000000000000000000000000000000006044820152606401610576565b61066e3383610b8e565b50503360009081526020819052604090205490565b3360008181526001602090815260408083206001600160a01b038716845290915281205490919061051390829086906106bd90879061123d565b610a6a565b60006106d8826106d385600561121e565b610b8e565b6001600160a01b0382166000908152602081905260409020545b9392505050565b610701610efc565b600655565b61070e610efc565b6107186000610f56565b565b610722610efc565b600755565b606060048054610482906111ce565b600854606090610747600182611255565b84106107955760405162461bcd60e51b815260206004820152601360248201527f496e76616c696420737461727420696e646578000000000000000000000000006044820152606401610576565b60006107a460ff85168661123d565b9050818111156107b15750805b60006107bd8683611255565b67ffffffffffffffff8111156107d5576107d561126c565b6040519080825280602002602001820160405280156107fe578160200160208202803683370190505b509050855b82811015610878576008818154811061081e5761081e611282565b9060005260206000200160009054906101000a90046001600160a01b031682828151811061084e5761084e611282565b6001600160a01b03909216602092830291909101909101528061087081611298565b915050610803565b5095945050505050565b3360008181526001602090815260408083206001600160a01b03871684529091528120549091908381101561091f5760405162461bcd60e51b815260206004820152602560248201527f45524332303a2064656372656173656420616c6c6f77616e63652062656c6f7760448201527f207a65726f0000000000000000000000000000000000000000000000000000006064820152608401610576565b6105fa8286868403610a6a565b600033610513818585610cff565b6000605584101561098d5760405162461bcd60e51b815260206004820152600c60248201527f4c6f7720616363757261637900000000000000000000000000000000000000006044820152606401610576565b605584106109bb576000836109a3605587611255565b6109ad919061121e565b90506109b98382610b8e565b505b506001600160a01b031660009081526020819052604090205492915050565b6109e2610efc565b6001600160a01b038116610a5e5760405162461bcd60e51b815260206004820152602660248201527f4f776e61626c653a206e6577206f776e657220697320746865207a65726f206160448201527f64647265737300000000000000000000000000000000000000000000000000006064820152608401610576565b610a6781610f56565b50565b6001600160a01b038316610acc5760405162461bcd60e51b8152602060048201526024808201527f45524332303a20617070726f76652066726f6d20746865207a65726f206164646044820152637265737360e01b6064820152608401610576565b6001600160a01b038216610b2d5760405162461bcd60e51b815260206004820152602260248201527f45524332303a20617070726f766520746f20746865207a65726f206164647265604482015261737360f01b6064820152608401610576565b6001600160a01b0383811660008181526001602090815260408083209487168084529482529182902085905590518481527f8c5be1e5ebec7d5bd14f71427d1e84f3dd0314c0f7b2291e5b200ac8c7c3b925910160405180910390a3505050565b6001600160a01b038216610be45760405162461bcd60e51b815260206004820152601f60248201527f45524332303a206d696e7420746f20746865207a65726f2061646472657373006044820152606401610576565b8060026000828254610bf6919061123d565b90915550506001600160a01b03821660009081526020819052604081208054839290610c2390849061123d565b90915550506040518181526001600160a01b038316906000907fddf252ad1be2c89b69c2b068fc378daa952ba7f163c4a11628f55a4df523b3ef9060200160405180910390a35050565b6001600160a01b038381166000908152600160209081526040808320938616835292905220546000198114610cf95781811015610cec5760405162461bcd60e51b815260206004820152601d60248201527f45524332303a20696e73756666696369656e7420616c6c6f77616e63650000006044820152606401610576565b610cf98484848403610a6a565b50505050565b6001600160a01b038316610d7b5760405162461bcd60e51b815260206004820152602560248201527f45524332303a207472616e736665722066726f6d20746865207a65726f20616460448201527f64726573730000000000000000000000000000000000000000000000000000006064820152608401610576565b6001600160a01b038216610ddd5760405162461bcd60e51b815260206004820152602360248201527f45524332303a207472616e7366657220746f20746865207a65726f206164647260448201526265737360e81b6064820152608401610576565b6001600160a01b03831660009081526020819052604090205481811015610e6c5760405162461bcd60e51b815260206004820152602660248201527f45524332303a207472616e7366657220616d6f756e742065786365656473206260448201527f616c616e636500000000000000000000000000000000000000000000000000006064820152608401610576565b6001600160a01b03808516600090815260208190526040808220858503905591851681529081208054849290610ea390849061123d565b92505081905550826001600160a01b0316846001600160a01b03167fddf252ad1be2c89b69c2b068fc378daa952ba7f163c4a11628f55a4df523b3ef84604051610eef91815260200190565b60405180910390a3610cf9565b6005546001600160a01b031633146107185760405162461bcd60e51b815260206004820181905260248201527f4f776e61626c653a2063616c6c6572206973206e6f7420746865206f776e65726044820152606401610576565b600580546001600160a01b0383811673ffffffffffffffffffffffffffffffffffffffff19831681179093556040519116919082907f8be0079c531659141344cd1fd0a4f28419497f9722a3daafe3b4186f6b6457e090600090a35050565b600060208083528351808285015260005b81811015610fe257858101830151858201604001528201610fc6565b81811115610ff4576000604083870101525b50601f01601f1916929092016040019392505050565b80356001600160a01b038116811461102157600080fd5b919050565b6000806040838503121561103957600080fd5b6110428361100a565b946020939093013593505050565b60008060006060848603121561106557600080fd5b61106e8461100a565b925061107c6020850161100a565b9150604084013590509250925092565b60006020828403121561109e57600080fd5b5035919050565b600080604083850312156110b857600080fd5b823591506110c86020840161100a565b90509250929050565b6000602082840312156110e357600080fd5b6106f28261100a565b600080604083850312156110ff57600080fd5b82359150602083013560ff8116811461111757600080fd5b809150509250929050565b6020808252825182820181905260009190848201906040850190845b818110156111635783516001600160a01b03168352928401929184019160010161113e565b50909695505050505050565b60008060006060848603121561118457600080fd5b833592506020840135915061119b6040850161100a565b90509250925092565b600080604083850312156111b757600080fd5b6111c08361100a565b91506110c86020840161100a565b600181811c908216806111e257607f821691505b60208210810361120257634e487b7160e01b600052602260045260246000fd5b50919050565b634e487b7160e01b600052601160045260246000fd5b600081600019048311821515161561123857611238611208565b500290565b6000821982111561125057611250611208565b500190565b60008282101561126757611267611208565b500390565b634e487b7160e01b600052604160045260246000fd5b634e487b7160e01b600052603260045260246000fd5b6000600182016112aa576112aa611208565b506001019056fea2646970667358221220ff43dc7bf7ba5ef2f02167b3a7e231d2a0583f9e0c9e0603e9fe803280430a4264736f6c634300080d0033",
      "opcodes": "PUSH1 0x80 PUSH1 0x40 MSTORE CALLVALUE DUP1 ISZERO PUSH3 0x11 JUMPI PUSH1 0x0 DUP1 REVERT JUMPDEST POP PUSH1 0x40 MLOAD PUSH3 0x1608 CODESIZE SUB DUP1 PUSH3 0x1608 DUP4 CODECOPY DUP2 ADD PUSH1 0x40 DUP2 SWAP1 MSTORE PUSH3 0x34 SWAP2 PUSH3 0x25B JUMP JUMPDEST DUP4 MLOAD DUP5 SWAP1 DUP5 SWAP1 PUSH3 0x4D SWAP1 PUSH1 0x3 SWAP1 PUSH1 0x20 DUP6 ADD SWAP1 PUSH3 0xE8 JUMP JUMPDEST POP DUP1 MLOAD PUSH3 0x63 SWAP1 PUSH1 0x4 SWAP1 PUSH1 0x20 DUP5 ADD SWAP1 PUSH3 0xE8 JUMP JUMPDEST POP POP POP PUSH3 0x80 PUSH3 0x7A PUSH3 0x92 PUSH1 0x20 SHL PUSH1 0x20 SHR JUMP JUMPDEST PUSH3 0x96 JUMP JUMPDEST PUSH1 0x6 SWAP2 SWAP1 SWAP2 SSTORE PUSH1 0x7 SSTORE POP PUSH3 0x311 SWAP1 POP JUMP JUMPDEST CALLER SWAP1 JUMP JUMPDEST PUSH1 0x5 DUP1 SLOAD PUSH1 0x1 PUSH1 0x1 PUSH1 0xA0 SHL SUB DUP4 DUP2 AND PUSH1 0x1 PUSH1 0x1 PUSH1 0xA0 SHL SUB NOT DUP4 AND DUP2 OR SWAP1 SWAP4 SSTORE PUSH1 0x40 MLOAD SWAP2 AND SWAP2 SWAP1 DUP3 SWAP1 PUSH32 0x8BE0079C531659141344CD1FD0A4F28419497F9722A3DAAFE3B4186F6B6457E0 SWAP1 PUSH1 0x0 SWAP1 LOG3 POP POP JUMP JUMPDEST DUP3 DUP1 SLOAD PUSH3 0xF6 SWAP1 PUSH3 0x2D5 JUMP JUMPDEST SWAP1 PUSH1 0x0 MSTORE PUSH1 0x20 PUSH1 0x0 KECCAK256 SWAP1 PUSH1 0x1F ADD PUSH1 0x20 SWAP1 DIV DUP2 ADD SWAP3 DUP3 PUSH3 0x11A JUMPI PUSH1 0x0 DUP6 SSTORE PUSH3 0x165 JUMP JUMPDEST DUP3 PUSH1 0x1F LT PUSH3 0x135 JUMPI DUP1 MLOAD PUSH1 0xFF NOT AND DUP4 DUP1 ADD OR DUP6 SSTORE PUSH3 0x165 JUMP JUMPDEST DUP3 DUP1 ADD PUSH1 0x1 ADD DUP6 SSTORE DUP3 ISZERO PUSH3 0x165 JUMPI SWAP2 DUP3 ADD JUMPDEST DUP3 DUP2 GT ISZERO PUSH3 0x165 JUMPI DUP3 MLOAD DUP3 SSTORE SWAP2 PUSH1 0x20 ADD SWAP2 SWAP1 PUSH1 0x1 ADD SWAP1 PUSH3 0x148 JUMP JUMPDEST POP PUSH3 0x173 SWAP3 SWAP2 POP PUSH3 0x177 JUMP JUMPDEST POP SWAP1 JUMP JUMPDEST JUMPDEST DUP1 DUP3 GT ISZERO PUSH3 0x173 JUMPI PUSH1 0x0 DUP2 SSTORE PUSH1 0x1 ADD PUSH3 0x178 JUMP JUMPDEST PUSH4 0x4E487B71 PUSH1 0xE0 SHL PUSH1 0x0 MSTORE PUSH1 0x41 PUSH1 0x4 MSTORE PUSH1 0x24 PUSH1 0x0 REVERT JUMPDEST PUSH1 0x0 DUP3 PUSH1 0x1F DUP4 ADD SLT PUSH3 0x1B6 JUMPI PUSH1 0x0 DUP1 REVERT JUMPDEST DUP2 MLOAD PUSH1 0x1 PUSH1 0x1 PUSH1 0x40 SHL SUB DUP1 DUP3 GT ISZERO PUSH3 0x1D3 JUMPI PUSH3 0x1D3 PUSH3 0x18E JUMP JUMPDEST PUSH1 0x40 MLOAD PUSH1 0x1F DUP4 ADD PUSH1 0x1F NOT SWAP1 DUP2 AND PUSH1 0x3F ADD AND DUP2 ADD SWAP1 DUP3 DUP3 GT DUP2 DUP4 LT OR ISZERO PUSH3 0x1FE JUMPI PUSH3 0x1FE PUSH3 0x18E JUMP JUMPDEST DUP2 PUSH1 0x40 MSTORE DUP4 DUP2 MSTORE PUSH1 0x20 SWAP3 POP DUP7 DUP4 DUP6 DUP9 ADD ADD GT ISZERO PUSH3 0x21B JUMPI PUSH1 0x0 DUP1 REVERT JUMPDEST PUSH1 0x0 SWAP2 POP JUMPDEST DUP4 DUP3 LT ISZERO PUSH3 0x23F JUMPI DUP6 DUP3 ADD DUP4 ADD MLOAD DUP2 DUP4 ADD DUP5 ADD MSTORE SWAP1 DUP3 ADD SWAP1 PUSH3 0x220 JUMP JUMPDEST DUP4 DUP3 GT ISZERO PUSH3 0x251 JUMPI PUSH1 0x0 DUP4 DUP6 DUP4 ADD ADD MSTORE JUMPDEST SWAP7 SWAP6 POP POP POP POP POP POP JUMP JUMPDEST PUSH1 0x0 DUP1 PUSH1 0x0 DUP1 PUSH1 0x80 DUP6 DUP8 SUB SLT ISZERO PUSH3 0x272 JUMPI PUSH1 0x0 DUP1 REVERT JUMPDEST DUP5 MLOAD PUSH1 0x1 PUSH1 0x1 PUSH1 0x40 SHL SUB DUP1 DUP3 GT ISZERO PUSH3 0x28A JUMPI PUSH1 0x0 DUP1 REVERT JUMPDEST PUSH3 0x298 DUP9 DUP4 DUP10 ADD PUSH3 0x1A4 JUMP JUMPDEST SWAP6 POP PUSH1 0x20 DUP8 ADD MLOAD SWAP2 POP DUP1 DUP3 GT ISZERO PUSH3 0x2AF JUMPI PUSH1 0x0 DUP1 REVERT JUMPDEST POP PUSH3 0x2BE DUP8 DUP3 DUP9 ADD PUSH3 0x1A4 JUMP JUMPDEST PUSH1 0x40 DUP8 ADD MLOAD PUSH1 0x60 SWAP1 SWAP8 ADD MLOAD SWAP6 SWAP9 SWAP1 SWAP8 POP SWAP4 POP POP POP POP JUMP JUMPDEST PUSH1 0x1 DUP2 DUP2 SHR SWAP1 DUP3 AND DUP1 PUSH3 0x2EA JUMPI PUSH1 0x7F DUP3 AND SWAP2 POP JUMPDEST PUSH1 0x20 DUP3 LT DUP2 SUB PUSH3 0x30B JUMPI PUSH4 0x4E487B71 PUSH1 0xE0 SHL PUSH1 0x0 MSTORE PUSH1 0x22 PUSH1 0x4 MSTORE PUSH1 0x24 PUSH1 0x0 REVERT JUMPDEST POP SWAP2 SWAP1 POP JUMP JUMPDEST PUSH2 0x12E7 DUP1 PUSH3 0x321 PUSH1 0x0 CODECOPY PUSH1 0x0 RETURN INVALID PUSH1 0x80 PUSH1 0x40 MSTORE PUSH1 0x4 CALLDATASIZE LT PUSH2 0x177 JUMPI PUSH1 0x0 CALLDATALOAD PUSH1 0xE0 SHR DUP1 PUSH4 0x70A08231 GT PUSH2 0xCA JUMPI DUP1 PUSH4 0x9DAF2111 GT PUSH2 0x79 JUMPI DUP1 PUSH4 0xAA1ED76D GT PUSH2 0x56 JUMPI DUP1 PUSH4 0xAA1ED76D EQ PUSH2 0x3FA JUMPI DUP1 PUSH4 0xDD62ED3E EQ PUSH2 0x40D JUMPI DUP1 PUSH4 0xF2FDE38B EQ PUSH2 0x453 JUMPI STOP JUMPDEST DUP1 PUSH4 0x9DAF2111 EQ PUSH2 0x38D JUMPI DUP1 PUSH4 0xA457C2D7 EQ PUSH2 0x3BA JUMPI DUP1 PUSH4 0xA9059CBB EQ PUSH2 0x3DA JUMPI STOP JUMPDEST DUP1 PUSH4 0x8DA5CB5B GT PUSH2 0xA7 JUMPI DUP1 PUSH4 0x8DA5CB5B EQ PUSH2 0x33A JUMPI DUP1 PUSH4 0x95D89B41 EQ PUSH2 0x362 JUMPI DUP1 PUSH4 0x98DD233F EQ PUSH2 0x377 JUMPI STOP JUMPDEST DUP1 PUSH4 0x70A08231 EQ PUSH2 0x2CF JUMPI DUP1 PUSH4 0x715018A6 EQ PUSH2 0x305 JUMPI DUP1 PUSH4 0x798EE5A9 EQ PUSH2 0x31A JUMPI STOP JUMPDEST DUP1 PUSH4 0x313CE567 GT PUSH2 0x126 JUMPI DUP1 PUSH4 0x3B971F9F GT PUSH2 0x103 JUMPI DUP1 PUSH4 0x3B971F9F EQ PUSH2 0x286 JUMPI DUP1 PUSH4 0x6A29D715 EQ PUSH2 0x29C JUMPI DUP1 PUSH4 0x6A61E5FC EQ PUSH2 0x2AF JUMPI STOP JUMPDEST DUP1 PUSH4 0x313CE567 EQ PUSH2 0x237 JUMPI DUP1 PUSH4 0x3610724E EQ PUSH2 0x253 JUMPI DUP1 PUSH4 0x39509351 EQ PUSH2 0x266 JUMPI STOP JUMPDEST DUP1 PUSH4 0x18160DDD GT PUSH2 0x154 JUMPI DUP1 PUSH4 0x18160DDD EQ PUSH2 0x1FA JUMPI DUP1 PUSH4 0x1AA3A008 EQ PUSH2 0x20F JUMPI DUP1 PUSH4 0x23B872DD EQ PUSH2 0x217 JUMPI STOP JUMPDEST DUP1 PUSH4 0x6FDDE03 EQ PUSH2 0x180 JUMPI DUP1 PUSH4 0x7973CCF EQ PUSH2 0x1AB JUMPI DUP1 PUSH4 0x95EA7B3 EQ PUSH2 0x1CA JUMPI STOP JUMPDEST CALLDATASIZE PUSH2 0x17E JUMPI STOP JUMPDEST STOP JUMPDEST CALLVALUE DUP1 ISZERO PUSH2 0x18C JUMPI PUSH1 0x0 DUP1 REVERT JUMPDEST POP PUSH2 0x195 PUSH2 0x473 JUMP JUMPDEST PUSH1 0x40 MLOAD PUSH2 0x1A2 SWAP2 SWAP1 PUSH2 0xFB5 JUMP JUMPDEST PUSH1 0x40 MLOAD DUP1 SWAP2 SUB SWAP1 RETURN JUMPDEST CALLVALUE DUP1 ISZERO PUSH2 0x1B7 JUMPI PUSH1 0x0 DUP1 REVERT JUMPDEST POP PUSH1 0x8 SLOAD JUMPDEST PUSH1 0x40 MLOAD SWAP1 DUP2 MSTORE PUSH1 0x20 ADD PUSH2 0x1A2 JUMP JUMPDEST CALLVALUE DUP1 ISZERO PUSH2 0x1D6 JUMPI PUSH1 0x0 DUP1 REVERT JUMPDEST POP PUSH2 0x1EA PUSH2 0x1E5 CALLDATASIZE PUSH1 0x4 PUSH2 0x1026 JUMP JUMPDEST PUSH2 0x505 JUMP JUMPDEST PUSH1 0x40 MLOAD SWAP1 ISZERO ISZERO DUP2 MSTORE PUSH1 0x20 ADD PUSH2 0x1A2 JUMP JUMPDEST CALLVALUE DUP1 ISZERO PUSH2 0x206 JUMPI PUSH1 0x0 DUP1 REVERT JUMPDEST POP PUSH1 0x2 SLOAD PUSH2 0x1BC JUMP JUMPDEST PUSH2 0x1BC PUSH2 0x51D JUMP JUMPDEST CALLVALUE DUP1 ISZERO PUSH2 0x223 JUMPI PUSH1 0x0 DUP1 REVERT JUMPDEST POP PUSH2 0x1EA PUSH2 0x232 CALLDATASIZE PUSH1 0x4 PUSH2 0x1050 JUMP JUMPDEST PUSH2 0x5E1 JUMP JUMPDEST CALLVALUE DUP1 ISZERO PUSH2 0x243 JUMPI PUSH1 0x0 DUP1 REVERT JUMPDEST POP PUSH1 0x40 MLOAD PUSH1 0x12 DUP2 MSTORE PUSH1 0x20 ADD PUSH2 0x1A2 JUMP JUMPDEST PUSH2 0x1BC PUSH2 0x261 CALLDATASIZE PUSH1 0x4 PUSH2 0x108C JUMP JUMPDEST PUSH2 0x605 JUMP JUMPDEST CALLVALUE DUP1 ISZERO PUSH2 0x272 JUMPI PUSH1 0x0 DUP1 REVERT JUMPDEST POP PUSH2 0x1EA PUSH2 0x281 CALLDATASIZE PUSH1 0x4 PUSH2 0x1026 JUMP JUMPDEST PUSH2 0x683 JUMP JUMPDEST CALLVALUE DUP1 ISZERO PUSH2 0x292 JUMPI PUSH1 0x0 DUP1 REVERT JUMPDEST POP PUSH2 0x1BC PUSH1 0x6 SLOAD DUP2 JUMP JUMPDEST PUSH2 0x1BC PUSH2 0x2AA CALLDATASIZE PUSH1 0x4 PUSH2 0x10A5 JUMP JUMPDEST PUSH2 0x6C2 JUMP JUMPDEST CALLVALUE DUP1 ISZERO PUSH2 0x2BB JUMPI PUSH1 0x0 DUP1 REVERT JUMPDEST POP PUSH2 0x17E PUSH2 0x2CA CALLDATASIZE PUSH1 0x4 PUSH2 0x108C JUMP JUMPDEST PUSH2 0x6F9 JUMP JUMPDEST CALLVALUE DUP1 ISZERO PUSH2 0x2DB JUMPI PUSH1 0x0 DUP1 REVERT JUMPDEST POP PUSH2 0x1BC PUSH2 0x2EA CALLDATASIZE PUSH1 0x4 PUSH2 0x10D1 JUMP JUMPDEST PUSH1 0x1 PUSH1 0x1 PUSH1 0xA0 SHL SUB AND PUSH1 0x0 SWAP1 DUP2 MSTORE PUSH1 0x20 DUP2 SWAP1 MSTORE PUSH1 0x40 SWAP1 KECCAK256 SLOAD SWAP1 JUMP JUMPDEST CALLVALUE DUP1 ISZERO PUSH2 0x311 JUMPI PUSH1 0x0 DUP1 REVERT JUMPDEST POP PUSH2 0x17E PUSH2 0x706 JUMP JUMPDEST CALLVALUE DUP1 ISZERO PUSH2 0x326 JUMPI PUSH1 0x0 DUP1 REVERT JUMPDEST POP PUSH2 0x17E PUSH2 0x335 CALLDATASIZE PUSH1 0x4 PUSH2 0x108C JUMP JUMPDEST PUSH2 0x71A JUMP JUMPDEST CALLVALUE DUP1 ISZERO PUSH2 0x346 JUMPI PUSH1 0x0 DUP1 REVERT JUMPDEST POP PUSH1 0x5 SLOAD PUSH1 0x40 MLOAD PUSH1 0x1 PUSH1 0x1 PUSH1 0xA0 SHL SUB SWAP1 SWAP2 AND DUP2 MSTORE PUSH1 0x20 ADD PUSH2 0x1A2 JUMP JUMPDEST CALLVALUE DUP1 ISZERO PUSH2 0x36E JUMPI PUSH1 0x0 DUP1 REVERT JUMPDEST POP PUSH2 0x195 PUSH2 0x727 JUMP JUMPDEST CALLVALUE DUP1 ISZERO PUSH2 0x383 JUMPI PUSH1 0x0 DUP1 REVERT JUMPDEST POP PUSH2 0x1BC PUSH1 0x7 SLOAD DUP2 JUMP JUMPDEST CALLVALUE DUP1 ISZERO PUSH2 0x399 JUMPI PUSH1 0x0 DUP1 REVERT JUMPDEST POP PUSH2 0x3AD PUSH2 0x3A8 CALLDATASIZE PUSH1 0x4 PUSH2 0x10EC JUMP JUMPDEST PUSH2 0x736 JUMP JUMPDEST PUSH1 0x40 MLOAD PUSH2 0x1A2 SWAP2 SWAP1 PUSH2 0x1122 JUMP JUMPDEST CALLVALUE DUP1 ISZERO PUSH2 0x3C6 JUMPI PUSH1 0x0 DUP1 REVERT JUMPDEST POP PUSH2 0x1EA PUSH2 0x3D5 CALLDATASIZE PUSH1 0x4 PUSH2 0x1026 JUMP JUMPDEST PUSH2 0x882 JUMP JUMPDEST CALLVALUE DUP1 ISZERO PUSH2 0x3E6 JUMPI PUSH1 0x0 DUP1 REVERT JUMPDEST POP PUSH2 0x1EA PUSH2 0x3F5 CALLDATASIZE PUSH1 0x4 PUSH2 0x1026 JUMP JUMPDEST PUSH2 0x92C JUMP JUMPDEST PUSH2 0x1BC PUSH2 0x408 CALLDATASIZE PUSH1 0x4 PUSH2 0x116F JUMP JUMPDEST PUSH2 0x93A JUMP JUMPDEST CALLVALUE DUP1 ISZERO PUSH2 0x419 JUMPI PUSH1 0x0 DUP1 REVERT JUMPDEST POP PUSH2 0x1BC PUSH2 0x428 CALLDATASIZE PUSH1 0x4 PUSH2 0x11A4 JUMP JUMPDEST PUSH1 0x1 PUSH1 0x1 PUSH1 0xA0 SHL SUB SWAP2 DUP3 AND PUSH1 0x0 SWAP1 DUP2 MSTORE PUSH1 0x1 PUSH1 0x20 SWAP1 DUP2 MSTORE PUSH1 0x40 DUP1 DUP4 KECCAK256 SWAP4 SWAP1 SWAP5 AND DUP3 MSTORE SWAP2 SWAP1 SWAP2 MSTORE KECCAK256 SLOAD SWAP1 JUMP JUMPDEST CALLVALUE DUP1 ISZERO PUSH2 0x45F JUMPI PUSH1 0x0 DUP1 REVERT JUMPDEST POP PUSH2 0x17E PUSH2 0x46E CALLDATASIZE PUSH1 0x4 PUSH2 0x10D1 JUMP JUMPDEST PUSH2 0x9DA JUMP JUMPDEST PUSH1 0x60 PUSH1 0x3 DUP1 SLOAD PUSH2 0x482 SWAP1 PUSH2 0x11CE JUMP JUMPDEST DUP1 PUSH1 0x1F ADD PUSH1 0x20 DUP1 SWAP2 DIV MUL PUSH1 0x20 ADD PUSH1 0x40 MLOAD SWAP1 DUP2 ADD PUSH1 0x40 MSTORE DUP1 SWAP3 SWAP2 SWAP1 DUP2 DUP2 MSTORE PUSH1 0x20 ADD DUP3 DUP1 SLOAD PUSH2 0x4AE SWAP1 PUSH2 0x11CE JUMP JUMPDEST DUP1 ISZERO PUSH2 0x4FB JUMPI DUP1 PUSH1 0x1F LT PUSH2 0x4D0 JUMPI PUSH2 0x100 DUP1 DUP4 SLOAD DIV MUL DUP4 MSTORE SWAP2 PUSH1 0x20 ADD SWAP2 PUSH2 0x4FB JUMP JUMPDEST DUP3 ADD SWAP2 SWAP1 PUSH1 0x0 MSTORE PUSH1 0x20 PUSH1 0x0 KECCAK256 SWAP1 JUMPDEST DUP2 SLOAD DUP2 MSTORE SWAP1 PUSH1 0x1 ADD SWAP1 PUSH1 0x20 ADD DUP1 DUP4 GT PUSH2 0x4DE JUMPI DUP3 SWAP1 SUB PUSH1 0x1F AND DUP3 ADD SWAP2 JUMPDEST POP POP POP POP POP SWAP1 POP SWAP1 JUMP JUMPDEST PUSH1 0x0 CALLER PUSH2 0x513 DUP2 DUP6 DUP6 PUSH2 0xA6A JUMP JUMPDEST POP PUSH1 0x1 SWAP4 SWAP3 POP POP POP JUMP JUMPDEST CALLER PUSH1 0x0 SWAP1 DUP2 MSTORE PUSH1 0x20 DUP2 SWAP1 MSTORE PUSH1 0x40 DUP2 KECCAK256 SLOAD ISZERO PUSH2 0x57F JUMPI PUSH1 0x40 MLOAD PUSH3 0x461BCD PUSH1 0xE5 SHL DUP2 MSTORE PUSH1 0x20 PUSH1 0x4 DUP3 ADD MSTORE PUSH1 0x12 PUSH1 0x24 DUP3 ADD MSTORE PUSH32 0x416C726561647920726567697374657265640000000000000000000000000000 PUSH1 0x44 DUP3 ADD MSTORE PUSH1 0x64 ADD JUMPDEST PUSH1 0x40 MLOAD DUP1 SWAP2 SUB SWAP1 REVERT JUMPDEST PUSH2 0x58B CALLER PUSH1 0x7 SLOAD PUSH2 0xB8E JUMP JUMPDEST POP PUSH1 0x8 DUP1 SLOAD PUSH1 0x1 DUP2 ADD DUP3 SSTORE PUSH1 0x0 SWAP2 SWAP1 SWAP2 MSTORE PUSH32 0xF3F7A9FE364FAAB93B216DA50A3214154F22A0A2B415B23A84C8169E8B636EE3 ADD DUP1 SLOAD PUSH20 0xFFFFFFFFFFFFFFFFFFFFFFFFFFFFFFFFFFFFFFFF NOT AND CALLER OR SWAP1 SSTORE PUSH1 0x7 SLOAD SWAP1 JUMP JUMPDEST PUSH1 0x0 CALLER PUSH2 0x5EF DUP6 DUP3 DUP6 PUSH2 0xC6D JUMP JUMPDEST PUSH2 0x5FA DUP6 DUP6 DUP6 PUSH2 0xCFF JUMP JUMPDEST POP PUSH1 0x1 SWAP5 SWAP4 POP POP POP POP JUMP JUMPDEST PUSH1 0x0 DUP2 PUSH1 0x6 SLOAD PUSH2 0x615 SWAP2 SWAP1 PUSH2 0x121E JUMP JUMPDEST CALLVALUE LT ISZERO PUSH2 0x664 JUMPI PUSH1 0x40 MLOAD PUSH3 0x461BCD PUSH1 0xE5 SHL DUP2 MSTORE PUSH1 0x20 PUSH1 0x4 DUP3 ADD MSTORE PUSH1 0x10 PUSH1 0x24 DUP3 ADD MSTORE PUSH32 0x4E6F7420656E6F7567682066756E647300000000000000000000000000000000 PUSH1 0x44 DUP3 ADD MSTORE PUSH1 0x64 ADD PUSH2 0x576 JUMP JUMPDEST PUSH2 0x66E CALLER DUP4 PUSH2 0xB8E JUMP JUMPDEST POP POP CALLER PUSH1 0x0 SWAP1 DUP2 MSTORE PUSH1 0x20 DUP2 SWAP1 MSTORE PUSH1 0x40 SWAP1 KECCAK256 SLOAD SWAP1 JUMP JUMPDEST CALLER PUSH1 0x0 DUP2 DUP2 MSTORE PUSH1 0x1 PUSH1 0x20 SWAP1 DUP2 MSTORE PUSH1 0x40 DUP1 DUP4 KECCAK256 PUSH1 0x1 PUSH1 0x1 PUSH1 0xA0 SHL SUB DUP8 AND DUP5 MSTORE SWAP1 SWAP2 MSTORE DUP2 KECCAK256 SLOAD SWAP1 SWAP2 SWAP1 PUSH2 0x513 SWAP1 DUP3 SWAP1 DUP7 SWAP1 PUSH2 0x6BD SWAP1 DUP8 SWAP1 PUSH2 0x123D JUMP JUMPDEST PUSH2 0xA6A JUMP JUMPDEST PUSH1 0x0 PUSH2 0x6D8 DUP3 PUSH2 0x6D3 DUP6 PUSH1 0x5 PUSH2 0x121E JUMP JUMPDEST PUSH2 0xB8E JUMP JUMPDEST PUSH1 0x1 PUSH1 0x1 PUSH1 0xA0 SHL SUB DUP3 AND PUSH1 0x0 SWAP1 DUP2 MSTORE PUSH1 0x20 DUP2 SWAP1 MSTORE PUSH1 0x40 SWAP1 KECCAK256 SLOAD JUMPDEST SWAP4 SWAP3 POP POP POP JUMP JUMPDEST PUSH2 0x701 PUSH2 0xEFC JUMP JUMPDEST PUSH1 0x6 SSTORE JUMP JUMPDEST PUSH2 0x70E PUSH2 0xEFC JUMP JUMPDEST PUSH2 0x718 PUSH1 0x0 PUSH2 0xF56 JUMP JUMPDEST JUMP JUMPDEST PUSH2 0x722 PUSH2 0xEFC JUMP JUMPDEST PUSH1 0x7 SSTORE JUMP JUMPDEST PUSH1 0x60 PUSH1 0x4 DUP1 SLOAD PUSH2 0x482 SWAP1 PUSH2 0x11CE JUMP JUMPDEST PUSH1 0x8 SLOAD PUSH1 0x60 SWAP1 PUSH2 0x747 PUSH1 0x1 DUP3 PUSH2 0x1255 JUMP JUMPDEST DUP5 LT PUSH2 0x795 JUMPI PUSH1 0x40 MLOAD PUSH3 0x461BCD PUSH1 0xE5 SHL DUP2 MSTORE PUSH1 0x20 PUSH1 0x4 DUP3 ADD MSTORE PUSH1 0x13 PUSH1 0x24 DUP3 ADD MSTORE PUSH32 0x496E76616C696420737461727420696E64657800000000000000000000000000 PUSH1 0x44 DUP3 ADD MSTORE PUSH1 0x64 ADD PUSH2 0x576 JUMP JUMPDEST PUSH1 0x0 PUSH2 0x7A4 PUSH1 0xFF DUP6 AND DUP7 PUSH2 0x123D JUMP JUMPDEST SWAP1 POP DUP2 DUP2 GT ISZERO PUSH2 0x7B1 JUMPI POP DUP1 JUMPDEST PUSH1 0x0 PUSH2 0x7BD DUP7 DUP4 PUSH2 0x1255 JUMP JUMPDEST PUSH8 0xFFFFFFFFFFFFFFFF DUP2 GT ISZERO PUSH2 0x7D5 JUMPI PUSH2 0x7D5 PUSH2 0x126C JUMP JUMPDEST PUSH1 0x40 MLOAD SWAP1 DUP1 DUP3 MSTORE DUP1 PUSH1 0x20 MUL PUSH1 0x20 ADD DUP3 ADD PUSH1 0x40 MSTORE DUP1 ISZERO PUSH2 0x7FE JUMPI DUP2 PUSH1 0x20 ADD PUSH1 0x20 DUP3 MUL DUP1 CALLDATASIZE DUP4 CALLDATACOPY ADD SWAP1 POP JUMPDEST POP SWAP1 POP DUP6 JUMPDEST DUP3 DUP2 LT ISZERO PUSH2 0x878 JUMPI PUSH1 0x8 DUP2 DUP2 SLOAD DUP2 LT PUSH2 0x81E JUMPI PUSH2 0x81E PUSH2 0x1282 JUMP JUMPDEST SWAP1 PUSH1 0x0 MSTORE PUSH1 0x20 PUSH1 0x0 KECCAK256 ADD PUSH1 0x0 SWAP1 SLOAD SWAP1 PUSH2 0x100 EXP SWAP1 DIV PUSH1 0x1 PUSH1 0x1 PUSH1 0xA0 SHL SUB AND DUP3 DUP3 DUP2 MLOAD DUP2 LT PUSH2 0x84E JUMPI PUSH2 0x84E PUSH2 0x1282 JUMP JUMPDEST PUSH1 0x1 PUSH1 0x1 PUSH1 0xA0 SHL SUB SWAP1 SWAP3 AND PUSH1 0x20 SWAP3 DUP4 MUL SWAP2 SWAP1 SWAP2 ADD SWAP1 SWAP2 ADD MSTORE DUP1 PUSH2 0x870 DUP2 PUSH2 0x1298 JUMP JUMPDEST SWAP2 POP POP PUSH2 0x803 JUMP JUMPDEST POP SWAP6 SWAP5 POP POP POP POP POP JUMP JUMPDEST CALLER PUSH1 0x0 DUP2 DUP2 MSTORE PUSH1 0x1 PUSH1 0x20 SWAP1 DUP2 MSTORE PUSH1 0x40 DUP1 DUP4 KECCAK256 PUSH1 0x1 PUSH1 0x1 PUSH1 0xA0 SHL SUB DUP8 AND DUP5 MSTORE SWAP1 SWAP2 MSTORE DUP2 KECCAK256 SLOAD SWAP1 SWAP2 SWAP1 DUP4 DUP2 LT ISZERO PUSH2 0x91F JUMPI PUSH1 0x40 MLOAD PUSH3 0x461BCD PUSH1 0xE5 SHL DUP2 MSTORE PUSH1 0x20 PUSH1 0x4 DUP3 ADD MSTORE PUSH1 0x25 PUSH1 0x24 DUP3 ADD MSTORE PUSH32 0x45524332303A2064656372656173656420616C6C6F77616E63652062656C6F77 PUSH1 0x44 DUP3 ADD MSTORE PUSH32 0x207A65726F000000000000000000000000000000000000000000000000000000 PUSH1 0x64 DUP3 ADD MSTORE PUSH1 0x84 ADD PUSH2 0x576 JUMP JUMPDEST PUSH2 0x5FA DUP3 DUP7 DUP7 DUP5 SUB PUSH2 0xA6A JUMP JUMPDEST PUSH1 0x0 CALLER PUSH2 0x513 DUP2 DUP6 DUP6 PUSH2 0xCFF JUMP JUMPDEST PUSH1 0x0 PUSH1 0x55 DUP5 LT ISZERO PUSH2 0x98D JUMPI PUSH1 0x40 MLOAD PUSH3 0x461BCD PUSH1 0xE5 SHL DUP2 MSTORE PUSH1 0x20 PUSH1 0x4 DUP3 ADD MSTORE PUSH1 0xC PUSH1 0x24 DUP3 ADD MSTORE PUSH32 0x4C6F772061636375726163790000000000000000000000000000000000000000 PUSH1 0x44 DUP3 ADD MSTORE PUSH1 0x64 ADD PUSH2 0x576 JUMP JUMPDEST PUSH1 0x55 DUP5 LT PUSH2 0x9BB JUMPI PUSH1 0x0 DUP4 PUSH2 0x9A3 PUSH1 0x55 DUP8 PUSH2 0x1255 JUMP JUMPDEST PUSH2 0x9AD SWAP2 SWAP1 PUSH2 0x121E JUMP JUMPDEST SWAP1 POP PUSH2 0x9B9 DUP4 DUP3 PUSH2 0xB8E JUMP JUMPDEST POP JUMPDEST POP PUSH1 0x1 PUSH1 0x1 PUSH1 0xA0 SHL SUB AND PUSH1 0x0 SWAP1 DUP2 MSTORE PUSH1 0x20 DUP2 SWAP1 MSTORE PUSH1 0x40 SWAP1 KECCAK256 SLOAD SWAP3 SWAP2 POP POP JUMP JUMPDEST PUSH2 0x9E2 PUSH2 0xEFC JUMP JUMPDEST PUSH1 0x1 PUSH1 0x1 PUSH1 0xA0 SHL SUB DUP2 AND PUSH2 0xA5E JUMPI PUSH1 0x40 MLOAD PUSH3 0x461BCD PUSH1 0xE5 SHL DUP2 MSTORE PUSH1 0x20 PUSH1 0x4 DUP3 ADD MSTORE PUSH1 0x26 PUSH1 0x24 DUP3 ADD MSTORE PUSH32 0x4F776E61626C653A206E6577206F776E657220697320746865207A65726F2061 PUSH1 0x44 DUP3 ADD MSTORE PUSH32 0x6464726573730000000000000000000000000000000000000000000000000000 PUSH1 0x64 DUP3 ADD MSTORE PUSH1 0x84 ADD PUSH2 0x576 JUMP JUMPDEST PUSH2 0xA67 DUP2 PUSH2 0xF56 JUMP JUMPDEST POP JUMP JUMPDEST PUSH1 0x1 PUSH1 0x1 PUSH1 0xA0 SHL SUB DUP4 AND PUSH2 0xACC JUMPI PUSH1 0x40 MLOAD PUSH3 0x461BCD PUSH1 0xE5 SHL DUP2 MSTORE PUSH1 0x20 PUSH1 0x4 DUP3 ADD MSTORE PUSH1 0x24 DUP1 DUP3 ADD MSTORE PUSH32 0x45524332303A20617070726F76652066726F6D20746865207A65726F20616464 PUSH1 0x44 DUP3 ADD MSTORE PUSH4 0x72657373 PUSH1 0xE0 SHL PUSH1 0x64 DUP3 ADD MSTORE PUSH1 0x84 ADD PUSH2 0x576 JUMP JUMPDEST PUSH1 0x1 PUSH1 0x1 PUSH1 0xA0 SHL SUB DUP3 AND PUSH2 0xB2D JUMPI PUSH1 0x40 MLOAD PUSH3 0x461BCD PUSH1 0xE5 SHL DUP2 MSTORE PUSH1 0x20 PUSH1 0x4 DUP3 ADD MSTORE PUSH1 0x22 PUSH1 0x24 DUP3 ADD MSTORE PUSH32 0x45524332303A20617070726F766520746F20746865207A65726F206164647265 PUSH1 0x44 DUP3 ADD MSTORE PUSH2 0x7373 PUSH1 0xF0 SHL PUSH1 0x64 DUP3 ADD MSTORE PUSH1 0x84 ADD PUSH2 0x576 JUMP JUMPDEST PUSH1 0x1 PUSH1 0x1 PUSH1 0xA0 SHL SUB DUP4 DUP2 AND PUSH1 0x0 DUP2 DUP2 MSTORE PUSH1 0x1 PUSH1 0x20 SWAP1 DUP2 MSTORE PUSH1 0x40 DUP1 DUP4 KECCAK256 SWAP5 DUP8 AND DUP1 DUP5 MSTORE SWAP5 DUP3 MSTORE SWAP2 DUP3 SWAP1 KECCAK256 DUP6 SWAP1 SSTORE SWAP1 MLOAD DUP5 DUP2 MSTORE PUSH32 0x8C5BE1E5EBEC7D5BD14F71427D1E84F3DD0314C0F7B2291E5B200AC8C7C3B925 SWAP2 ADD PUSH1 0x40 MLOAD DUP1 SWAP2 SUB SWAP1 LOG3 POP POP POP JUMP JUMPDEST PUSH1 0x1 PUSH1 0x1 PUSH1 0xA0 SHL SUB DUP3 AND PUSH2 0xBE4 JUMPI PUSH1 0x40 MLOAD PUSH3 0x461BCD PUSH1 0xE5 SHL DUP2 MSTORE PUSH1 0x20 PUSH1 0x4 DUP3 ADD MSTORE PUSH1 0x1F PUSH1 0x24 DUP3 ADD MSTORE PUSH32 0x45524332303A206D696E7420746F20746865207A65726F206164647265737300 PUSH1 0x44 DUP3 ADD MSTORE PUSH1 0x64 ADD PUSH2 0x576 JUMP JUMPDEST DUP1 PUSH1 0x2 PUSH1 0x0 DUP3 DUP3 SLOAD PUSH2 0xBF6 SWAP2 SWAP1 PUSH2 0x123D JUMP JUMPDEST SWAP1 SWAP2 SSTORE POP POP PUSH1 0x1 PUSH1 0x1 PUSH1 0xA0 SHL SUB DUP3 AND PUSH1 0x0 SWAP1 DUP2 MSTORE PUSH1 0x20 DUP2 SWAP1 MSTORE PUSH1 0x40 DUP2 KECCAK256 DUP1 SLOAD DUP4 SWAP3 SWAP1 PUSH2 0xC23 SWAP1 DUP5 SWAP1 PUSH2 0x123D JUMP JUMPDEST SWAP1 SWAP2 SSTORE POP POP PUSH1 0x40 MLOAD DUP2 DUP2 MSTORE PUSH1 0x1 PUSH1 0x1 PUSH1 0xA0 SHL SUB DUP4 AND SWAP1 PUSH1 0x0 SWAP1 PUSH32 0xDDF252AD1BE2C89B69C2B068FC378DAA952BA7F163C4A11628F55A4DF523B3EF SWAP1 PUSH1 0x20 ADD PUSH1 0x40 MLOAD DUP1 SWAP2 SUB SWAP1 LOG3 POP POP JUMP JUMPDEST PUSH1 0x1 PUSH1 0x1 PUSH1 0xA0 SHL SUB DUP4 DUP2 AND PUSH1 0x0 SWAP1 DUP2 MSTORE PUSH1 0x1 PUSH1 0x20 SWAP1 DUP2 MSTORE PUSH1 0x40 DUP1 DUP4 KECCAK256 SWAP4 DUP7 AND DUP4 MSTORE SWAP3 SWAP1 MSTORE KECCAK256 SLOAD PUSH1 0x0 NOT DUP2 EQ PUSH2 0xCF9 JUMPI DUP2 DUP2 LT ISZERO PUSH2 0xCEC JUMPI PUSH1 0x40 MLOAD PUSH3 0x461BCD PUSH1 0xE5 SHL DUP2 MSTORE PUSH1 0x20 PUSH1 0x4 DUP3 ADD MSTORE PUSH1 0x1D PUSH1 0x24 DUP3 ADD MSTORE PUSH32 0x45524332303A20696E73756666696369656E7420616C6C6F77616E6365000000 PUSH1 0x44 DUP3 ADD MSTORE PUSH1 0x64 ADD PUSH2 0x576 JUMP JUMPDEST PUSH2 0xCF9 DUP5 DUP5 DUP5 DUP5 SUB PUSH2 0xA6A JUMP JUMPDEST POP POP POP POP JUMP JUMPDEST PUSH1 0x1 PUSH1 0x1 PUSH1 0xA0 SHL SUB DUP4 AND PUSH2 0xD7B JUMPI PUSH1 0x40 MLOAD PUSH3 0x461BCD PUSH1 0xE5 SHL DUP2 MSTORE PUSH1 0x20 PUSH1 0x4 DUP3 ADD MSTORE PUSH1 0x25 PUSH1 0x24 DUP3 ADD MSTORE PUSH32 0x45524332303A207472616E736665722066726F6D20746865207A65726F206164 PUSH1 0x44 DUP3 ADD MSTORE PUSH32 0x6472657373000000000000000000000000000000000000000000000000000000 PUSH1 0x64 DUP3 ADD MSTORE PUSH1 0x84 ADD PUSH2 0x576 JUMP JUMPDEST PUSH1 0x1 PUSH1 0x1 PUSH1 0xA0 SHL SUB DUP3 AND PUSH2 0xDDD JUMPI PUSH1 0x40 MLOAD PUSH3 0x461BCD PUSH1 0xE5 SHL DUP2 MSTORE PUSH1 0x20 PUSH1 0x4 DUP3 ADD MSTORE PUSH1 0x23 PUSH1 0x24 DUP3 ADD MSTORE PUSH32 0x45524332303A207472616E7366657220746F20746865207A65726F2061646472 PUSH1 0x44 DUP3 ADD MSTORE PUSH3 0x657373 PUSH1 0xE8 SHL PUSH1 0x64 DUP3 ADD MSTORE PUSH1 0x84 ADD PUSH2 0x576 JUMP JUMPDEST PUSH1 0x1 PUSH1 0x1 PUSH1 0xA0 SHL SUB DUP4 AND PUSH1 0x0 SWAP1 DUP2 MSTORE PUSH1 0x20 DUP2 SWAP1 MSTORE PUSH1 0x40 SWAP1 KECCAK256 SLOAD DUP2 DUP2 LT ISZERO PUSH2 0xE6C JUMPI PUSH1 0x40 MLOAD PUSH3 0x461BCD PUSH1 0xE5 SHL DUP2 MSTORE PUSH1 0x20 PUSH1 0x4 DUP3 ADD MSTORE PUSH1 0x26 PUSH1 0x24 DUP3 ADD MSTORE PUSH32 0x45524332303A207472616E7366657220616D6F756E7420657863656564732062 PUSH1 0x44 DUP3 ADD MSTORE PUSH32 0x616C616E63650000000000000000000000000000000000000000000000000000 PUSH1 0x64 DUP3 ADD MSTORE PUSH1 0x84 ADD PUSH2 0x576 JUMP JUMPDEST PUSH1 0x1 PUSH1 0x1 PUSH1 0xA0 SHL SUB DUP1 DUP6 AND PUSH1 0x0 SWAP1 DUP2 MSTORE PUSH1 0x20 DUP2 SWAP1 MSTORE PUSH1 0x40 DUP1 DUP3 KECCAK256 DUP6 DUP6 SUB SWAP1 SSTORE SWAP2 DUP6 AND DUP2 MSTORE SWAP1 DUP2 KECCAK256 DUP1 SLOAD DUP5 SWAP3 SWAP1 PUSH2 0xEA3 SWAP1 DUP5 SWAP1 PUSH2 0x123D JUMP JUMPDEST SWAP3 POP POP DUP2 SWAP1 SSTORE POP DUP3 PUSH1 0x1 PUSH1 0x1 PUSH1 0xA0 SHL SUB AND DUP5 PUSH1 0x1 PUSH1 0x1 PUSH1 0xA0 SHL SUB AND PUSH32 0xDDF252AD1BE2C89B69C2B068FC378DAA952BA7F163C4A11628F55A4DF523B3EF DUP5 PUSH1 0x40 MLOAD PUSH2 0xEEF SWAP2 DUP2 MSTORE PUSH1 0x20 ADD SWAP1 JUMP JUMPDEST PUSH1 0x40 MLOAD DUP1 SWAP2 SUB SWAP1 LOG3 PUSH2 0xCF9 JUMP JUMPDEST PUSH1 0x5 SLOAD PUSH1 0x1 PUSH1 0x1 PUSH1 0xA0 SHL SUB AND CALLER EQ PUSH2 0x718 JUMPI PUSH1 0x40 MLOAD PUSH3 0x461BCD PUSH1 0xE5 SHL DUP2 MSTORE PUSH1 0x20 PUSH1 0x4 DUP3 ADD DUP2 SWAP1 MSTORE PUSH1 0x24 DUP3 ADD MSTORE PUSH32 0x4F776E61626C653A2063616C6C6572206973206E6F7420746865206F776E6572 PUSH1 0x44 DUP3 ADD MSTORE PUSH1 0x64 ADD PUSH2 0x576 JUMP JUMPDEST PUSH1 0x5 DUP1 SLOAD PUSH1 0x1 PUSH1 0x1 PUSH1 0xA0 SHL SUB DUP4 DUP2 AND PUSH20 0xFFFFFFFFFFFFFFFFFFFFFFFFFFFFFFFFFFFFFFFF NOT DUP4 AND DUP2 OR SWAP1 SWAP4 SSTORE PUSH1 0x40 MLOAD SWAP2 AND SWAP2 SWAP1 DUP3 SWAP1 PUSH32 0x8BE0079C531659141344CD1FD0A4F28419497F9722A3DAAFE3B4186F6B6457E0 SWAP1 PUSH1 0x0 SWAP1 LOG3 POP POP JUMP JUMPDEST PUSH1 0x0 PUSH1 0x20 DUP1 DUP4 MSTORE DUP4 MLOAD DUP1 DUP3 DUP6 ADD MSTORE PUSH1 0x0 JUMPDEST DUP2 DUP2 LT ISZERO PUSH2 0xFE2 JUMPI DUP6 DUP2 ADD DUP4 ADD MLOAD DUP6 DUP3 ADD PUSH1 0x40 ADD MSTORE DUP3 ADD PUSH2 0xFC6 JUMP JUMPDEST DUP2 DUP2 GT ISZERO PUSH2 0xFF4 JUMPI PUSH1 0x0 PUSH1 0x40 DUP4 DUP8 ADD ADD MSTORE JUMPDEST POP PUSH1 0x1F ADD PUSH1 0x1F NOT AND SWAP3 SWAP1 SWAP3 ADD PUSH1 0x40 ADD SWAP4 SWAP3 POP POP POP JUMP JUMPDEST DUP1 CALLDATALOAD PUSH1 0x1 PUSH1 0x1 PUSH1 0xA0 SHL SUB DUP2 AND DUP2 EQ PUSH2 0x1021 JUMPI PUSH1 0x0 DUP1 REVERT JUMPDEST SWAP2 SWAP1 POP JUMP JUMPDEST PUSH1 0x0 DUP1 PUSH1 0x40 DUP4 DUP6 SUB SLT ISZERO PUSH2 0x1039 JUMPI PUSH1 0x0 DUP1 REVERT JUMPDEST PUSH2 0x1042 DUP4 PUSH2 0x100A JUMP JUMPDEST SWAP5 PUSH1 0x20 SWAP4 SWAP1 SWAP4 ADD CALLDATALOAD SWAP4 POP POP POP JUMP JUMPDEST PUSH1 0x0 DUP1 PUSH1 0x0 PUSH1 0x60 DUP5 DUP7 SUB SLT ISZERO PUSH2 0x1065 JUMPI PUSH1 0x0 DUP1 REVERT JUMPDEST PUSH2 0x106E DUP5 PUSH2 0x100A JUMP JUMPDEST SWAP3 POP PUSH2 0x107C PUSH1 0x20 DUP6 ADD PUSH2 0x100A JUMP JUMPDEST SWAP2 POP PUSH1 0x40 DUP5 ADD CALLDATALOAD SWAP1 POP SWAP3 POP SWAP3 POP SWAP3 JUMP JUMPDEST PUSH1 0x0 PUSH1 0x20 DUP3 DUP5 SUB SLT ISZERO PUSH2 0x109E JUMPI PUSH1 0x0 DUP1 REVERT JUMPDEST POP CALLDATALOAD SWAP2 SWAP1 POP JUMP JUMPDEST PUSH1 0x0 DUP1 PUSH1 0x40 DUP4 DUP6 SUB SLT ISZERO PUSH2 0x10B8 JUMPI PUSH1 0x0 DUP1 REVERT JUMPDEST DUP3 CALLDATALOAD SWAP2 POP PUSH2 0x10C8 PUSH1 0x20 DUP5 ADD PUSH2 0x100A JUMP JUMPDEST SWAP1 POP SWAP3 POP SWAP3 SWAP1 POP JUMP JUMPDEST PUSH1 0x0 PUSH1 0x20 DUP3 DUP5 SUB SLT ISZERO PUSH2 0x10E3 JUMPI PUSH1 0x0 DUP1 REVERT JUMPDEST PUSH2 0x6F2 DUP3 PUSH2 0x100A JUMP JUMPDEST PUSH1 0x0 DUP1 PUSH1 0x40 DUP4 DUP6 SUB SLT ISZERO PUSH2 0x10FF JUMPI PUSH1 0x0 DUP1 REVERT JUMPDEST DUP3 CALLDATALOAD SWAP2 POP PUSH1 0x20 DUP4 ADD CALLDATALOAD PUSH1 0xFF DUP2 AND DUP2 EQ PUSH2 0x1117 JUMPI PUSH1 0x0 DUP1 REVERT JUMPDEST DUP1 SWAP2 POP POP SWAP3 POP SWAP3 SWAP1 POP JUMP JUMPDEST PUSH1 0x20 DUP1 DUP3 MSTORE DUP3 MLOAD DUP3 DUP3 ADD DUP2 SWAP1 MSTORE PUSH1 0x0 SWAP2 SWAP1 DUP5 DUP3 ADD SWAP1 PUSH1 0x40 DUP6 ADD SWAP1 DUP5 JUMPDEST DUP2 DUP2 LT ISZERO PUSH2 0x1163 JUMPI DUP4 MLOAD PUSH1 0x1 PUSH1 0x1 PUSH1 0xA0 SHL SUB AND DUP4 MSTORE SWAP3 DUP5 ADD SWAP3 SWAP2 DUP5 ADD SWAP2 PUSH1 0x1 ADD PUSH2 0x113E JUMP JUMPDEST POP SWAP1 SWAP7 SWAP6 POP POP POP POP POP POP JUMP JUMPDEST PUSH1 0x0 DUP1 PUSH1 0x0 PUSH1 0x60 DUP5 DUP7 SUB SLT ISZERO PUSH2 0x1184 JUMPI PUSH1 0x0 DUP1 REVERT JUMPDEST DUP4 CALLDATALOAD SWAP3 POP PUSH1 0x20 DUP5 ADD CALLDATALOAD SWAP2 POP PUSH2 0x119B PUSH1 0x40 DUP6 ADD PUSH2 0x100A JUMP JUMPDEST SWAP1 POP SWAP3 POP SWAP3 POP SWAP3 JUMP JUMPDEST PUSH1 0x0 DUP1 PUSH1 0x40 DUP4 DUP6 SUB SLT ISZERO PUSH2 0x11B7 JUMPI PUSH1 0x0 DUP1 REVERT JUMPDEST PUSH2 0x11C0 DUP4 PUSH2 0x100A JUMP JUMPDEST SWAP2 POP PUSH2 0x10C8 PUSH1 0x20 DUP5 ADD PUSH2 0x100A JUMP JUMPDEST PUSH1 0x1 DUP2 DUP2 SHR SWAP1 DUP3 AND DUP1 PUSH2 0x11E2 JUMPI PUSH1 0x7F DUP3 AND SWAP2 POP JUMPDEST PUSH1 0x20 DUP3 LT DUP2 SUB PUSH2 0x1202 JUMPI PUSH4 0x4E487B71 PUSH1 0xE0 SHL PUSH1 0x0 MSTORE PUSH1 0x22 PUSH1 0x4 MSTORE PUSH1 0x24 PUSH1 0x0 REVERT JUMPDEST POP SWAP2 SWAP1 POP JUMP JUMPDEST PUSH4 0x4E487B71 PUSH1 0xE0 SHL PUSH1 0x0 MSTORE PUSH1 0x11 PUSH1 0x4 MSTORE PUSH1 0x24 PUSH1 0x0 REVERT JUMPDEST PUSH1 0x0 DUP2 PUSH1 0x0 NOT DIV DUP4 GT DUP3 ISZERO ISZERO AND ISZERO PUSH2 0x1238 JUMPI PUSH2 0x1238 PUSH2 0x1208 JUMP JUMPDEST POP MUL SWAP1 JUMP JUMPDEST PUSH1 0x0 DUP3 NOT DUP3 GT ISZERO PUSH2 0x1250 JUMPI PUSH2 0x1250 PUSH2 0x1208 JUMP JUMPDEST POP ADD SWAP1 JUMP JUMPDEST PUSH1 0x0 DUP3 DUP3 LT ISZERO PUSH2 0x1267 JUMPI PUSH2 0x1267 PUSH2 0x1208 JUMP JUMPDEST POP SUB SWAP1 JUMP JUMPDEST PUSH4 0x4E487B71 PUSH1 0xE0 SHL PUSH1 0x0 MSTORE PUSH1 0x41 PUSH1 0x4 MSTORE PUSH1 0x24 PUSH1 0x0 REVERT JUMPDEST PUSH4 0x4E487B71 PUSH1 0xE0 SHL PUSH1 0x0 MSTORE PUSH1 0x32 PUSH1 0x4 MSTORE PUSH1 0x24 PUSH1 0x0 REVERT JUMPDEST PUSH1 0x0 PUSH1 0x1 DUP3 ADD PUSH2 0x12AA JUMPI PUSH2 0x12AA PUSH2 0x1208 JUMP JUMPDEST POP PUSH1 0x1 ADD SWAP1 JUMP INVALID LOG2 PUSH5 0x6970667358 0x22 SLT KECCAK256 SELFDESTRUCT NUMBER 0xDC PUSH28 0xF7BA5EF2F02167B3A7E231D2A0583F9E0C9E0603E9FE803280430A42 PUSH5 0x736F6C6343 STOP ADDMOD 0xD STOP CALLER "
    },
    "gasEstimates": {
      "creation": {
        "codeDepositCost": "967800",
        "executionCost": "infinite",
        "totalCost": "infinite"
      },
      "external": {
        "": "186",
        "_signupBonus()": "2384",
        "_tokenPrice()": "2340",
        "allowance(address,address)": "infinite",
        "approve(address,uint256)": "24692",
        "balanceOf(address)": "2586",
        "buyTokens(uint256)": "infinite",
        "dailyRewards(uint256,uint256,address)": "infinite",
        "decimals()": "223",
        "decreaseAllowance(address,uint256)": "26967",
        "getUsers(uint256,uint8)": "infinite",
        "increaseAllowance(address,uint256)": "27035",
        "name()": "infinite",
        "owner()": "2346",
        "register()": "infinite",
        "renounceOwnership()": "infinite",
        "setSignUpBonus(uint256)": "24578",
        "setTokenPrice(uint256)": "24577",
        "streakRewards(uint256,address)": "infinite",
        "symbol()": "infinite",
        "totalSupply()": "2338",
        "transfer(address,uint256)": "51271",
        "transferFrom(address,address,uint256)": "infinite",
        "transferOwnership(address)": "28412",
        "userCount()": "2350"
      }
    },
    "methodIdentifiers": {
      "_signupBonus()": "98dd233f",
      "_tokenPrice()": "3b971f9f",
      "allowance(address,address)": "dd62ed3e",
      "approve(address,uint256)": "095ea7b3",
      "balanceOf(address)": "70a08231",
      "buyTokens(uint256)": "3610724e",
      "dailyRewards(uint256,uint256,address)": "aa1ed76d",
      "decimals()": "313ce567",
      "decreaseAllowance(address,uint256)": "a457c2d7",
      "getUsers(uint256,uint8)": "9daf2111",
      "increaseAllowance(address,uint256)": "39509351",
      "name()": "06fdde03",
      "owner()": "8da5cb5b",
      "register()": "1aa3a008",
      "renounceOwnership()": "715018a6",
      "setSignUpBonus(uint256)": "798ee5a9",
      "setTokenPrice(uint256)": "6a61e5fc",
      "streakRewards(uint256,address)": "6a29d715",
      "symbol()": "95d89b41",
      "totalSupply()": "18160ddd",
      "transfer(address,uint256)": "a9059cbb",
      "transferFrom(address,address,uint256)": "23b872dd",
      "transferOwnership(address)": "f2fde38b",
      "userCount()": "07973ccf"
    }
  },
  "storageLayout": {
    "storage": [
      {
        "astId": 441,
        "contract": "VerNull.sol:VerNull",
        "label": "_balances",
        "offset": 0,
        "slot": "0",
        "type": "t_mapping(t_address,t_uint256)"
      },
      {
        "astId": 447,
        "contract": "VerNull.sol:VerNull",
        "label": "_allowances",
        "offset": 0,
        "slot": "1",
        "type": "t_mapping(t_address,t_mapping(t_address,t_uint256))"
      },
      {
        "astId": 449,
        "contract": "VerNull.sol:VerNull",
        "label": "_totalSupply",
        "offset": 0,
        "slot": "2",
        "type": "t_uint256"
      },
      {
        "astId": 451,
        "contract": "VerNull.sol:VerNull",
        "label": "_name",
        "offset": 0,
        "slot": "3",
        "type": "t_string_storage"
      },
      {
        "astId": 453,
        "contract": "VerNull.sol:VerNull",
        "label": "_symbol",
        "offset": 0,
        "slot": "4",
        "type": "t_string_storage"
      },
      {
        "astId": 320,
        "contract": "VerNull.sol:VerNull",
        "label": "_owner",
        "offset": 0,
        "slot": "5",
        "type": "t_address"
      },
      {
        "astId": 10,
        "contract": "VerNull.sol:VerNull",
        "label": "_tokenPrice",
        "offset": 0,
        "slot": "6",
        "type": "t_uint256"
      },
      {
        "astId": 12,
        "contract": "VerNull.sol:VerNull",
        "label": "_signupBonus",
        "offset": 0,
        "slot": "7",
        "type": "t_uint256"
      },
      {
        "astId": 15,
        "contract": "VerNull.sol:VerNull",
        "label": "_users",
        "offset": 0,
        "slot": "8",
        "type": "t_array(t_address)dyn_storage"
      }
    ],
    "types": {
      "t_address": {
        "encoding": "inplace",
        "label": "address",
        "numberOfBytes": "20"
      },
      "t_array(t_address)dyn_storage": {
        "base": "t_address",
        "encoding": "dynamic_array",
        "label": "address[]",
        "numberOfBytes": "32"
      },
      "t_mapping(t_address,t_mapping(t_address,t_uint256))": {
        "encoding": "mapping",
        "key": "t_address",
        "label": "mapping(address => mapping(address => uint256))",
        "numberOfBytes": "32",
        "value": "t_mapping(t_address,t_uint256)"
      },
      "t_mapping(t_address,t_uint256)": {
        "encoding": "mapping",
        "key": "t_address",
        "label": "mapping(address => uint256)",
        "numberOfBytes": "32",
        "value": "t_uint256"
      },
      "t_string_storage": {
        "encoding": "bytes",
        "label": "string",
        "numberOfBytes": "32"
      },
      "t_uint256": {
        "encoding": "inplace",
        "label": "uint256",
        "numberOfBytes": "32"
      }
    }
  },
  "userdoc": {
    "kind": "user",
    "methods": {},
    "version": 1
  }
}